:020000040800F2
:1000000000080020A1010008051E0008371A00089A
:1000100000000000000000000000000000000000E0
:100020000000000000000000000000009522000811
:100030000000000000000000071E0008BD220008AC
:10004000B3010008B3010008B3010008B3010008C0
:10005000B3010008B3010008B3010008B3010008B0
:1000600000000000B3010008B3010008B30100085C
:10007000B3010008B3010008000000005D2400087F
:100080000000000000000000000000000000000070
:10009000B301000800000000B3010008B30100082C
:1000A00000000000B3010008000000000000000094
:1000B000B3010008B30100080000000000000000C8
:1000C00000F002F800F040F80CA030C808382418FE
:1000D0002D18A246671EAB4654465D46AC4201D180
:1000E00000F032F87E460F3E0FCCB6460126334272
:1000F00000D0FB1AA246AB4633431847C426000083
:10010000E4260000103A02D378C878C1FAD8520722
:1001100001D330C830C101D504680C6070470000BD
:100120000023002400250026103A01D378C1FBD813
:10013000520700D330C100D50B6070471FB500F0E7
:10014000E3F81FBD10B510BD00F0ADFA1146FFF782
:10015000F5FF02F083FA00F0C5FA03B4FFF7F2FFEF
:1001600003BC00F0CBFA000030B40C490C684A68BC
:1001700023681068C0181060241D121D8C4207D21D
:100180008A4208D20C604A6030BC40004008704788
:100190000C00DC3CF6E70A00DC3AF3E798010020AB
:1001A0000748804707480047FEE7FEE7FEE7FEE70F
:1001B000FEE7FEE704480549054A064B7047000084
:1001C000E5230008C100000800020020000800200C
:1001D0000004002000040020FEB5054610460C4631
:1001E000184373D0AE468C460020AD1A01469C41A0
:1001F00067D36646002701243D46B61A9D4102D3C7
:1002000013463A462124654676462F04360C3E4373
:100210002D0CB61A9D4104D3150C1B042B4312045C
:100220001034654676462F06360A3E432D0AB61A26
:100230009D4104D3150E1B022B4312020834654660
:1002400076462F0736093E432D09B61A9D4104D341
:10025000150F1B012B431201241D65467646AF077F
:10026000B6083E43AD08B61A9D4104D3950F9B00D6
:100270002B439200A41C65467646EF0776083E4362
:100280006D08B61A9D411AD392185B41641C16E0A2
:100290000018764665464941B71A9D410191009084
:1002A00009D36046B11A98418E4684460098019958
:1002B0000025401C6941DD0752082A435B08641E83
:1002C000E6D57246634603B0F0BDFFE70020014665
:1002D000C046C0462A462346F5E700000B4A30B523
:1002E00011460B4C60310B46DC3B0CC1372106E05C
:1002F000020C8D0012185A51064A504300190A4642
:10030000491E002AF4DC30BD0120E7E73801002057
:10031000E119D666CD0D010001E004C0091F0429D2
:10032000FBD28B0701D50280801CC90700D0027068
:10033000704700290BD0C30702D00270401C491E31
:10034000022904D3830702D50280801C891EE3E7BB
:100350000022EEE70022DFE7002203098B422CD3C4
:10036000030A8B4211D300239C464EE003460B4305
:100370003CD4002243088B4231D303098B421CD367
:10038000030A8B4201D394463FE0C3098B4201D359
:10039000CB01C01A524183098B4201D38B01C01A91
:1003A000524143098B4201D34B01C01A5241030908
:1003B0008B4201D30B01C01A5241C3088B4201D3B7
:1003C000CB00C01A524183088B4201D38B00C01A64
:1003D000524143088B4201D34B00C01A5241411A8B
:1003E00000D201465241104670475DE0CA0F00D06E
:1003F0004942031000D34042534000229C46030967
:100400008B422DD3030A8B4212D3FC22890112BAEC
:10041000030A8B420CD3890192118B4208D38901C4
:1004200092118B4204D389013AD0921100E08909DC
:10043000C3098B4201D3CB01C01A524183098B42BD
:1004400001D38B01C01A524143098B4201D34B01A6
:10045000C01A524103098B4201D30B01C01A524109
:10046000C3088B4201D3CB00C01A524183088B4290
:1004700001D38B00C01A5241D9D243088B4201D319
:100480004B00C01A5241411A00D201466346524104
:100490005B10104601D34042002B00D54942704703
:1004A00063465B1000D3404201B50020C046C04601
:1004B00002BD704770477047F0B5FF252D04C6098F
:1004C000C209FF2704462E400137CB093E4348406E
:1004D0002A402B400746002A6BD0002B69D0AA4245
:1004E00067D0AB4265D0002800DA32460125ED0521
:1004F00029432C4309022002090AD21A4B0C7F24FB
:10050000E31A434C000A7C44E35C7D242404121962
:1005100014145B00A218884201D3521C00E0400072
:1005200049420C465C4324115C43DB016415E3182B
:10053000040A5C43C502200D0C4644436419250A95
:100540005D432303EC0C0D46654300030019EB18D3
:100550004C42A34201D35B18401CD4052018002B49
:1005600007D05B00C91804D3401C002901D1400802
:1005700040003F2189048A4209D3002A08DC110681
:10058000090F04D0032149074018C00FC007F0BD70
:1005900001224100120689187F2252069142F6D2AA
:1005A00005214907C84201D59010F0BDFF20C005C4
:1005B000F0BD002F00DA32461648AA4207D2AB42FD
:1005C00005D21902090E17D0F80FC007F0BDFF259C
:1005D00063002D06AB42F9D84900A942F6D8AB42D8
:1005E00001D1A942F2D0A94201D1002101E061006C
:1005F0004908D0050843F0BD1102090EFBD0FF20C9
:100600000243D005F0BD0A460146104654E70000FB
:10061000732200000000C07F0102C21504D0012334
:10062000DB071943002A0ADB9E239A1A02D40846E4
:10063000D0407047FF2241001206914201D90020AC
:100640007047C017C04370471F22030C02D10F220E
:1006500000041CD0030E01D10002083A030F01D19F
:100660000001121F830F01D18000921E002801DBC0
:100670004000521ED2055118021251181922904002
:1006800004D3491C002801D1490849000846704795
:10069000C10FC90700D04042012292071143D3E79E
:1006A00001218907D0E7754600F024F8AE46050021
:1006B00069465346C008C000854618B020B5FFF70C
:1006C00079FD60BC00274908B6460026C0C5C0C5F4
:1006D000C0C5C0C5C0C5C0C5C0C5C0C5403D490036
:1006E0008D46704710B50446C046C0462046FFF709
:1006F00034FD10BD00487047A001002001491820BA
:10070000ABBEFEE726000200704772B6FEE70000AF
:1007100070B5044600F0E4F80546601C02D00448B9
:100720000078241800F0DCF8401BA042FAD370BD1A
:1007300020000020F8B5002303240125B8E032464C
:100740002E469E40B446324079D00E79B607B60F99
:10075000012E01D0022E17D186682746B6465E00CC
:10076000B74000967646BE43B646CF68009EB74077
:1007700076463743876046686746BE430F79FF0673
:10078000FF0F9F40374347600E79F643B6070ED000
:10079000C6682746B4465E00B646B7406646BE43C6
:1007A000B4468F687646B74066463743C7600E79D1
:1007B000B607B60F022E14D1DE08B6003618009622
:1007C000366A5F07B446FE0E0F27B646B740664648
:1007D000BE43B4460F697646B74066463743009E2F
:1007E000376206682746B4465E00B646B74066469E
:1007F000BE430F79B446BF07BF0F7646B740664683
:10080000374307604E68B603B60F50D02B4F7E6B50
:100810002E437E639F082A4EBF00BE190096B6681D
:100820000F27B4469E07360FB646B7406646BE430E
:1008300005273F07B446B84202D1002710E036E052
:10084000204FB84201D101270AE01F4FB84201D121
:10085000022705E01D4FB84201D1052700E0062719
:100860007646B74066463743009EB760184E3668F6
:100870004F689643FF0300D51643154F3E607E68D0
:100880004F689643BF0300D51643114F7E60BE6884
:100890004F689643FF0200D516430D4FBE60FE68B9
:1008A0004F689643BF0200D51643094AD6605B1CC9
:1008B0000A681646DA4000D041E7F8BD0010024051
:1008C000000001400004005000080050001C0050CF
:1008D00000040140002A01D08161704781627047A5
:1008E00001488068704700002000002070B5024673
:1008F00040325378202B1CD11378012B19D00123BF
:10090000137024245470046825689D43256004688E
:1009100025681E03B5432560046825680D432560DE
:100920000068016819430160202050700020107099
:1009300070BD022070BD70B5024640325378202B46
:100940001BD11378012B18D0012414702423537069
:1009500003681D68A5431D6005682B680F263602D5
:10096000B34309021943296000680168214301600B
:10097000202050700020107070BD022070BD00005B
:1009800070B5040006D0254640356878002600285A
:1009900002D005E0012070BD2E70204600F0F0F876
:1009A00024206870206801684908490001600F210F
:1009B0006068090688432168086121688A68012007
:1009C000C00382438A60E1680129A16808D021221E
:1009D0009202114322689160E168022902D005E089
:1009E0000143F7E701212268C902516021684A6882
:1009F0000F4B1A434A602168CA688243CA60616922
:100A000020690843A169090208432168C860216A76
:100A1000E0690843216808602068016801221143E9
:100A200001606664202068702663AE70002070BD8F
:100A300000800002FFB5054604464035687883B063
:100A4000202872D10C98002814D00D98002811D0BD
:100A50002878012869D001202870FFF741FF074658
:100A6000012200901923D103204601F07FF80028CD
:100A700071D103E00120400260646CE021206870C5
:100A80004020A870002666640C9860620D9860850E
:100A900066630E980090019704A90EC9204601F0E4
:100AA00021F8002801D02E7055E0608DFF2805D96F
:100AB000FF22228501231B06009606E0608D20851B
:100AC0000096208D0123C2B25B062046049901F0F6
:100AD00039F83A4620460E9901F095F800283AD1A7
:100AE000606A216800788862606A401C6062608D7C
:100AF000401E6085208D401E80B22085618D0029BA
:100B00001FD000281DD100970022802120460E9B77
:100B100001F02CF800281ED1608DFF2806D9FF2295
:100B2000228501231B06009607E024E0608D2085C6
:100B30000096208D0123C2B25B062046049901F085
:100B400001F8608D0028C4D13A4620460E9901F084
:100B500034F8002802D0012007B0F0BD2068202121
:100B6000C16120684268054B1A4042606970AE70EE
:100B70002E700020F0E70220EEE7000000E800FE03
:100B800010B586B0044614216846FFF7E3FB104910
:100B9000206888421AD10F4CE16A01200143E162CA
:100BA000E16A02900140059103214902009112215E
:100BB0000191032104900391052069460007FFF786
:100BC000B9FDA06B012149050843A06306B010BD23
:100BD00000540040001002400248816802788918E1
:100BE000816070472000002010B50848002401688B
:100BF000402211430160204600F00AF8002801D08D
:100C0000012401E000F026F8204610BD002002403B
:100C100070B504460D4D7D202978C000FFF79CFB80
:100C200001460B480068FFF797FB00F0FBFB00282C
:100C300009D1042C07D200222146401E00F022F8E0
:100C400000206C6070BD012070BD000020000020FD
:100C50002C0000200448416B012211434163816B49
:100C6000020411438163704700100240002805DB35
:100C7000C106C90E01208840014908607047000084
:100C800000E100E010B501F0C7FC10BDF8B5044666
:100C9000007800274E4D800671D54D4E403EB06B1A
:100CA000C00004D4B06BA9050843B06301274948CC
:100CB0000168C90511D40168821511430160FFF76D
:100CC0000FFE009005E0FFF70BFE0099401A642824
:100CD00037D840480068C005F5D5326803210905BA
:100CE00060680A400140914208D08103890F0329BE
:100CF00004D13168890301D50120F8BD2A69032197
:100D000009040A4022D0084090421FD02078800673
:100D10001CD528692A6988430121C9040A432A612C
:100D20002A698A432A612861C0050FD5FFF7D8FDDB
:100D3000009008E0FFF7D4FD0099411A264881424F
:100D400001D90320F8BD28698005F3D561688803BF
:100D5000800F032805D132680005824301400A4311
:100D60003260286903226168120411400843286137
:100D7000002F04D0B16B012000078143B1632078BC
:100D8000800705D5E8680C218843A1680843E8601E
:100D90002078400706D5E868032189028843E16886
:100DA0000843E8602078000706D5E86803210903B6
:100DB000884321690843E8602078000606D5E86882
:100DC00003218904884361690843E8600020F8BD75
:100DD000401002400070004088130000F8B50E4635
:100DE000050038D05E480068C007C00FB04214D27A
:100DF0005B4C20684008400030432060FFF770FDE6
:100E0000074605E0FFF76CFDC11B564881427AD8C2
:100E10002068C007C00FB042F4D12878524C800738
:100E200005D5E068F0218843A9680843E060287888
:100E3000C00752D06868022806D0032807D021686E
:100E400001280AD0890504E02168890301E02168AE
:100E50008901002903DB0120F8BD4907F9E7E168B2
:100E6000890889000143E160FFF73AFD0746686899
:100E700002280AD0032814D001281ED029E0FFF749
:100E80002FFDC11B374881423DD8E0680007800F25
:100E90000228F4D121E0FFF723FDC11B3148814234
:100EA00031D8E0680007800F0328F4D115E0FFF780
:100EB00017FDC11B2B48814225D8E0680007800F31
:100EC0000128F4D109E0FFF70BFDC11B2548814241
:100ED00019D8E0680007800FF5D121480168C907DB
:100EE000C90FB14217D9016849084900314301606F
:100EF000FFF7F6FC074608E005E0FFF7F1FCC11B31
:100F00001848814201D90320F8BD15480068C00780
:100F1000C00FB042F1D12878400706D5E06807211C
:100F200009028843E9680843E0602878000707D58C
:100F3000E0680721C90288432969C9000843E060C5
:100F400000F01AF8E168094A0906090F515CC84027
:100F50000749086007480068FFF75AFEF8BD00001F
:100F6000002002408813000000100240642700089F
:100F70002C0000202400002070B51A4AD3681A49BA
:100F80000C2018408D0004280CD04E00082810D0EA
:100F90000C2810D050680004410F0120C003491CE8
:100FA000884070BD1068C00601D5084670BD28464F
:100FB00070BD304670BD98020C4C000F205C1B02C7
:100FC0009C0FD368641CDB0301D5314603E0126833
:100FD000D20600D4294601F0FAFA22460023FFF790
:100FE000FBF870BD0010024000093D0074270008A6
:100FF000FEB505007ED0F74CE7680C20E668074098
:101000000120000406402878C00747D0082F05D0EB
:101010000C2F0AD101200004864206D120688003EB
:101020003CD568680028E5D038E0012069680004F4
:10103000814203D121680143216011E0052301228F
:101040001B0492049942216802D111432160F1E707
:101050008143216021680140009120689043206015
:10106000686800280DD0FFF73BFC009005E0FFF713
:1010700037FC0099401A64287ED820688003F6D592
:101080000CE0FFF72DFC009005E0FFF729FC00992C
:10109000401A6428F0D820688003F6D428788007A6
:1010A0005DD5E868810604D5226820210A432260C4
:1010B00088430923042F0DD00C2F01D1002E09D015
:1010C00000283CD02168994301432160FFF708FCC8
:1010D000064628E02168490701D500288AD06168C2
:1010E0001F22120291432A69120211436160216892
:1010F000994300E091E101432160FFF73DFFE16882
:1011000009060A0FB449895CC840B4490860B4486C
:101110000068FFF77DFD002874D120E0FFF7E0FBB9
:10112000801B0228A8D820684007F7D560681F21D7
:101130000902884329690902084360600FE02068BA
:10114000400840002060FFF7CBFB064604E0FFF7B5
:10115000C7FB801B02288FD820684007F7D4287867
:10116000C00661D5002F0DD0A86900284BD020689B
:10117000FF210131084300E0C6E02060FFF7B0FB2B
:1011800006462DE02068800502D5A8690028A5D074
:101190006068072149038843296A084360606068E2
:1011A000297F0002000A090608436060286A410B93
:1011B0000120C003491C8840E16809060A0F8649DE
:1011C000895CC8408549086085480068FFF720FDB4
:1011D000002817D128E0FFF783FB801B0228A1D845
:1011E00020688005F7D56068072149038843296A8C
:1011F000084360606068297F0002000A090608430E
:10120000606011E0E1E02168FF200130814321604E
:10121000FFF766FB064604E0FFF762FB801B02282F
:1012200072D820688005F7D428786E4E000724D540
:1012300068690028306910D0012108433061FFF748
:101240004FFB009005E0FFF74BFB0099401A022886
:101250005AD830698007F6D50FE040084000306169
:10126000FFF73EFB009005E0FFF73AFB0099401ABC
:10127000022849D830698007F6D42878400765D518
:1012800000200290A06BC00006D4A06B01210907CA
:101290000843A0630120029053480168C90511D496
:1012A0000168821511430160FFF71AFB009005E009
:1012B000FFF716FB0099401A642825D84A480068B1
:1012C000C005F5D5FF20AA680130824203D13169FB
:1012D0000143316111E001218902002A07D0052371
:1012E0001B029A4203D132690A433261EFE7326945
:1012F00082433261306988433061A86800280FD08A
:10130000FFF7EEFA009007E05EE0FFF7E9FA0099D8
:10131000411A3648814257D830698005F5D50DE02D
:10132000FFF7DEFA009006E0FFF7DAFA0099411ABB
:101330002E48814248D830698005F5D402980028AB
:1013400004D0A06B012109078843A063686A0028C4
:1013500065D00C2F4CD0012636060228206805D017
:10136000B0432060FFF7BCFA05462FE0B043206091
:10137000FFF7B6FA074604E0FFF7B2FAC01B0228EF
:1013800022D820688001F7D4E96AA86AE268084395
:10139000296BFD231B049A4311430843E060206836
:1013A00030432060FFF79CFA054604E0FFF798FA07
:1013B000401B022808D820688001F7D52FE0FFF7EE
:1013C0008FFA401B022801D90320FEBD206880014E
:1013D000F5D424E000100240642700082C0000200F
:1013E00024000020401002400070004088130000DC
:1013F0000128EAD0E06801210904AA6A014091426B
:101400000BD10F218904EA6A0140914205D10321E1
:1014100089050840296B884201D00120FEBD0020CB
:10142000FEBD0000094910B5401E884201D90120C7
:1014300010BD074C60610321081F01F0EDF800208A
:10144000A06107202061002010BD0000FFFFFF0009
:1014500000E000E0F0B502462032137E012B1ED0E2
:10146000012515760223537606687468B3687027E1
:10147000BC430F68274377600068AC07A04205D0E3
:10148000084CA04202D0084CA04204D180244968F4
:10149000A34319438160557600201076F0BD0220E9
:1014A000F0BD0000000801400014014070B50500C7
:1014B00005D02C462034607E002802D006E00120B2
:1014C00070BD00202076284600F010F802206076DB
:1014D000291D286800F0CAFF0120A077A076E076D9
:1014E000207760776076002070BD000010B586B070
:1014F000044614216846FEF72DFF01212068890764
:1015000088421FD11048826B01210A438263C26A5C
:101510000A43C262C06A084005900420009000207F
:101520000221029003900191049105206946000771
:10153000FFF700F9002211460F20FFF7A3FB0F2051
:10154000FFF794FB06B010BD00100240F8B5054649
:1015500004462035287E0026012817D00120287651
:1015600002206876226890687727FF23B8431B0221
:10157000984390600868502838D00EDC20284FD05F
:1015800006DC00284CD010281ED149E00220F8BD0E
:10159000302845D0402817D13AE060282ED0702856
:1015A00019D001221203801A0FD090420CD1CB68BF
:1015B0004A688968206800F092FF206881680122EB
:1015C00092031143816000E001260120687600202B
:1015D00028763046F8BDCB684A688968206800F0F4
:1015E0007EFF2168886838438860EEE7CA684968EA
:1015F000206800F087FF5021206806E0CA6849682B
:10160000206800F0B7FF6021206800F073FFDCE77E
:10161000CA684968206800F075FF40212068F4E737
:10162000226801461046F0E7F8B50546007E04281A
:1016300018D100F011FB002814D11F4C012760695C
:10164000002809D00821284600F0DEF9E060A168F2
:10165000884208D9401A0BE00821284600F0D4F946
:101660006761A060F8BD814203D9144A511A081875
:10167000206113480068FFF713F801461148FEF790
:101680001BFF06462069FFF70BF8314601F012F800
:10169000FEF7C2FFA061FEF721FEFEF765FD0B21FC
:1016A000FEF764FE60688842F7D0616027702968A1
:1016B000002048626061F8BD04000020FFFF0000C8
:1016C0002C00002000247449F8B50446002026466A
:1016D00020360090307E0D4601280ED00120307655
:1016E000002A0CD0042A19D0082A2AD00C2A4ED05D
:1016F0000090002030760098F8BD0220F8BDEB681D
:1017000006CD083D206800F00FFF206882690C219B
:101710008A43826120688169AA680FE0EB6806CD80
:10172000083D206800F039FF206881690322920299
:101730009143816120688169AA6812021143816125
:10174000D7E788CD287921688446086AFF220132CC
:1017500090430862C8690A6A800880003843F0270D
:10176000B84367463F073F0E0743052040028243C8
:101770000A20034018021043CF6108622068C16943
:101780000C229143C1612068C1692A682CE02B6852
:1017900020689E466F682B7B016ABC4601221203BB
:1017A00091430162C169026A03273F02B943674658
:1017B0003F020F430F2109038F431907090C05232B
:1017C00039435B039A4373460A273B401B03134389
:1017D000C16103622068C269032189028A43C26130
:1017E0002068C169AA6812021143C16181E770B51E
:1017F000050005D02C462034607E002802D006E08B
:10180000012070BD00202076284600F00FF802204D
:101810006076291D286800F029FE0120A077A076B7
:10182000E076207760776076002070BD704700001A
:1018300070B50446002620340546002908D0042946
:1018400008D0082908D0607F012807D0012070BD8A
:10185000A07EF9E7E07EF7E7207FF5E70220002988
:1018600008D004290CD008290FD060770C292CD07F
:10187000012628E0A0762A68D3680343D3600AE0F3
:10188000E0762868C268042303E020772868C268ED
:1018900008231A43C2600122286800F013FE0122C7
:1018A000286892070121904205D00A4A904202D04E
:1018B000094A904204D182685207520F062A02D088
:1018C00002680A430260304670BD2868C26810236F
:1018D000DFE70000000801400014014070B5044635
:1018E000006801690025C9438907002915DBC16823
:1018F000C943890711D4E91E0161012020762068BF
:1019000080698007204602D0FFF78EFE04E000F0D9
:1019100078F8204600F076F8257620680169C943FA
:10192000490717D4C168C943490713D40421C943DF
:10193000016102202076206880698005800F2046A2
:1019400002D0FFF771FE04E000F05BF8204600F0E3
:1019500059F8257620680169C943090716D4C1687A
:10196000C943090712D40821C94301610420207624
:101970002068C0698007204602D0FFF755FE04E0CA
:1019800000F03FF8204600F03DF825762068016918
:10199000C943C90617D4C168C943C90613D4102165
:1019A000C9430161082020762068C0698005800F46
:1019B000204602D0FFF738FE04E000F022F820466F
:1019C00000F020F8257620680169C943C90708D1CD
:1019D000C168C943C90704D1891E0161204600F0CE
:1019E00012F820680169C943490609D4C168C9438E
:1019F000490605D44021C9430161204600F01AF888
:101A000070BD70477047704702460020002908D01B
:101A1000042909D008290AD00C2901D11068006CCA
:101A200070471068406B70471068806B7047106893
:101A3000C06B70477047FEE701688A69D24392071E
:101A400001D400228A6200688169C943C90703D0B2
:101A5000816901221143816170470000F7B5044696
:101A600000680F468169C943C90636D441688901B7
:101A700004D44168012292031143416000262546A7
:101A8000403520688069C043800612D5781CF8D0A4
:101A9000FEF726FF0299401AB84201D8002FF0D174
:101AA000616C2020014361646870AE702E7001206B
:101AB000FEBD21681020C86120682027C76120462C
:101AC000FFF7BAFF20684168054A11404160606C29
:101AD0000421084360646F70E7E70020FEBD00004A
:101AE00000E800FEF8B50446164615481D46DAB271
:101AF000C3020090079F204600F024F83A46204693
:101B0000069900F080F8002818D12846F5B201287F
:101B100009D02168300A88623A462046069900F0CA
:101B200072F800280AD1206885620097002280217F
:101B30002046069B00F01AF8002800D00120F8BDCE
:101B400000200080F0B50668059C7568064F600DA2
:101B5000384385438805800D11040843184320430A
:101B600005437560F0BD0000FF63FF03F8B51D4637
:101B700017460E46044609E0681C07D0FEF7B0FE83
:101B80000699401AA8420BD8002D09D02068816917
:101B9000304688430FD00020B842EDD00020F8BD79
:101BA000616C202001436164403460700020A070AB
:101BB00020700120F8BD0120EEE770B516460D46F5
:101BC00004460FE0324629462046FFF747FF00282B
:101BD00001D0012070BDFEF783FE801BA84208D80B
:101BE000002D06D020688069C0438006EAD400201A
:101BF00070BD616C2020014361644034607000203E
:101C0000A0702070E5E770B516460D46044611E059
:101C1000324629462046FFF721FF002801D0012047
:101C200070BD681C06D0FEF75BFE801BA84208D87A
:101C3000002D06D020688069C0438007E8D40020CA
:101C400070BD616C202001436164403460700020ED
:101C5000A0702070E3E700000148007870470000A2
:101C600000000020F0B587B014216846FEF772FB33
:101C70002548C26A04210A43C262C26A0A40059228
:101C8000C16A01263143C162C16A31400591C16A0E
:101C900002252943C162C06A002228400590052020
:101CA00040210007FEF716FE0320800303270024CF
:101CB00000906946019702941448FEF73BFD052009
:101CC00001946946000700970294FEF733FDB8209F
:101CD000009005206946019702940007FEF72AFD4F
:101CE0004020009005200294694601960394000765
:101CF000FEF720FD69460648019700950294FEF71D
:101D000019FD07B0F0BD00000010024000080050AF
:101D10000004005010B513481149016000214160D2
:101D200081600161416181610122C161C260016222
:101D3000FEF726FE002801D0FEF7E7FC0021094847
:101D4000FEF7D4FD002801D0FEF7DFFC0021054896
:101D5000FEF7F1FD002801D0FEF7D7FC10BD000012
:101D6000005400403000002010B58AB000240494D4
:101D7000059406940794089401212048099400943E
:101D8000019402948907039412C0046084601C4982
:101D9000C46041600838FFF789FB002801D0FEF7D6
:101DA000B4FC01200003049004A91448FFF7CEFB03
:101DB000002801D0FEF7A9FC1048FFF718FD002805
:101DC00001D0FEF7A2FC089408A90C480994FFF77B
:101DD00041FB002801D0FEF798FC0A20009001206A
:101DE000019002940822694603940448FFF76CFCB2
:101DF000002801D0FEF789FC0AB010BD7C0000204D
:101E0000FFFF0000FEE77047F8B5FE4801780029A3
:101E10007ED1012405462C706878A87000F0E3FAA2
:101E20006878FF257E213C270026F535030000F069
:101E3000E6FB0D080B305357A8B7E2FEFDFC0AFB8A
:101E40000A0000F0D0FA9DE100252046A840C043DA
:101E5000C1B2032000F0EEFA1920FEF759FC6D1C08
:101E6000EDB2082DF1D3FF21032000F0E3FA0025A5
:101E70002046A840C043C1B2022000F0DBFA19207E
:101E8000FEF746FC6D1CEDB2082DF1D3FF210220B8
:101E90001FE007252046A840C043C1B2022000F041
:101EA000C9FA1920FEF734FC6D1EF3D5FF2102207C
:101EB00000F0C0FA07252046A840C043C1B2032065
:101EC00000F0B8FA1920FEF723FC6D1EF3D5FF21B0
:101ED000032000F0AFFA55E100F08FFAFA2087E016
:101EE00000252046A840C743F9B2022000F0A2FA1C
:101EF000F9B2032000F09EFA4B20FEF709FC6D1C9E
:101F0000EDB2082DEDD300F06EFA0025204600E07A
:101F10003FE1A840C743F9B2022000F08BFAF9B2C2
:101F2000032000F087FA4B20FEF7F2FB6D1CEDB2A8
:101F3000082DEBD300F057FA07252046A840C743E9
:101F4000F9B2022000F076FAF9B2032000F072FA3A
:101F50001920FEF7DDFB6D1EEFD500F044FA0725D2
:101F60002046A840C743F9B2022000F063FAF9B254
:101F7000032000F05FFA1920FEF7CAFB6D1EEFD5B3
:101F80005FE7002400F039FA2846FEF7C1FB00F0B5
:101F90002AFA2846FEF7BCFB641C032CF2DBF1E0B6
:101FA0000C46022000F046FA2146032000F042FAD7
:101FB000FA20FEF7ADFB3946022000F03BFA394625
:101FC000032000F037FAFA20FEF7A2FB182421467E
:101FD000022000F02FFA2146032000F02BFAFA200D
:101FE000FEF796FB3146022000F024FA314613E159
:101FF000FEF78EFBC6E00C46022000F01BFA2146DD
:10200000032000F017FAFA20FEF782FB394602207F
:1020100000F010FA3946032000F00CFAFA20FEF71F
:1020200077FB1824214603E0FBE0B3E07AE044E0CC
:10203000022000F0FFF92146032000F0FBF9FA200E
:10204000FEF766FB3146022000F0F4F9314603202A
:1020500000F0F0F96C4C2046FEF75AFB812529462A
:10206000022000F0E7F92946032000F0E3F9FA2006
:10207000FEF74EFBC3252946022000F0DBF9294676
:10208000032000F0D7F9FA20FEF742FBE7252946A6
:10209000022000F0CFF92946032000F0CBF9FA2006
:1020A000FEF736FBFF252946022000F0C3F929463A
:1020B000032000F0BFF920469AE7F0250F270024FF
:1020C0002946022000F0B6F93946032000F0B2F9A3
:1020D000FA20FEF71DFB3946022000F0ABF9294635
:1020E000032000F0A7F9FA20FEF712FBFF210025DC
:1020F000022000F09FF92946032000F09BF9FA2006
:10210000FEF706FBFF272946022000F093F9394627
:10211000032000F08FF9FA20FEF7FAFA641C032C72
:10212000CEDB2FE0002707252046A8406A1E214667
:1021300091400843C043C1B2022000F07BF9322035
:10214000FEF7E6FAAD1E012DEEDAFF21022000F0C7
:1021500071F907252046A840691E22468A4010438F
:10216000C043C1B2032000F065F93220FEF7D0FA77
:10217000AD1E012DEEDAFF21032000F05BF97F1C7C
:10218000052FD0DB002000F091F81E48067000F00B
:102190002AF9F8BD00F031F97D20C000FEF7B8FA49
:1021A0000F20F027002400900220009900F042F94F
:1021B0003946032000F03EF92846FEF7A9FA00F060
:1021C0001CF92846FEF7A4FA641C032CECDBFE2164
:1021D0004F24022000F02EF92146032000F02AF9B6
:1021E0007D252D012846FEF793FAFF216F2402205A
:1021F00000F020F92146032000F01CF92846FEF7E4
:1022000087FA03E000000020EE020000FE21EF2428
:10221000022000F00FF92146032000F00BF92846B8
:10222000E6E600252046A840C043C1B2022000F0E7
:1022300001F9E81F00D5404221468140C843C1B2A0
:10224000032000F0F7F89620FEF762FA6D1C082DC7
:10225000E8DB07252046A840C043C1B2022000F0B9
:10226000E9F8E81F00D5404221468140C843C1B289
:10227000032000F0DFF89620FEF74AFA6D1EE9D53C
:1022800000F0B1F89620FEF743FA00F0B6F87D2092
:10229000C000ADE6704700000348002101704170A6
:1022A00081700A21C17070470000002002494A78FD
:1022B0008A704870704700000000002010B5FEF7DB
:1022C0008BFC10BD10B598B034216846FEF742F87B
:1022D00014210DA8FEF73EF8182112A8FEF73AF8CF
:1022E000184801680322D2029143C2148918016080
:1022F000102000900120069000248003089007948D
:1023000009946846FEF774FE002801D072B6FEE715
:102310000F200D900E940F941094002111940DA88D
:10232000FEF75CFD002801D072B6FEE7082012908F
:10233000169412A8FEF7AAFC002801D072B6FEE798
:1023400018B010BD0070004070B5204DE8680C2139
:102350001F4C084018D004281FD0082824D0E86853
:10236000E96880021B4A000F105C0902EA68890FC5
:1023700001231B04491C1A4204D12A68D20615D530
:10238000154A14E0154A12E0686801210004400F64
:10239000C903401C814021600DE02868C00601D5BA
:1023A0000D4807E00E4805E00C4803E00C4A504396
:1023B000FDF7D2FF2060E86806490006000F1039DB
:1023C000085C2168C140216070BD0000001002401F
:1023D0002C0000207427000800093D0000127A003C
:1023E0000024F400704710B5FF21022000F022F80D
:1023F000FF21032000F01EF810BD10B500210220BF
:1024000000F018F80021032000F014F810BD10B5FA
:1024100000F003F800F007F810BD10B50021062009
:1024200000F008F810BD10B50021072000F002F8F8
:1024300010BD000003B583B00023DB4301220293EB
:1024400004A9019213460091024640210248FEF77A
:10245000F1FA05B000BD00003000002010B50248C0
:10246000FFF73CFA10BD00007C00002070B5026848
:1024700001239B07114C124D984203D0A04201D07A
:10248000A84203D17026B2434E683243984203D02B
:10249000A04201D0A84204D103231B029A43CB6877
:1024A0001A4380239A430B691A4302608A68C26206
:1024B000096881620121416170BD0000000801408E
:1024C0000014014010B5CB06DB0E0121046A9940CF
:1024D0008C430462016A9A401143016210BD30B519
:1024E0008468FF252D021B021343AC430B43234397
:1024F000836030BD826870239A430A4307210A43F0
:102500008260704730B5036A046A6408640004623C
:102510008469F025AC43120122430A24A3430B43F0
:102520008261036230BD000070B5046A6408640013
:1025300004628469056A0126B607B04205D00B4ED5
:10254000B04202D00A4EB04202D1A408A40000E07A
:1025500001221443F02294431A07120E0A23224345
:102560009D43194029438261016270BD000801400A
:102570000014014030B5036A1024A3430362846948
:10258000036A0F252D031203AC432243A024A34367
:10259000090119438261016230BD70B5046A1025DA
:1025A000AC4304628569046A03263602B54312020D
:1025B0002A430F252D031B071B0CAA431343A022FC
:1025C00009019443114021438361016270BDF8B554
:1025D000040C8BB2264682B25E430D0C1046370CBB
:1025E0005843360480190021794116466E43370C52
:1025F00036048019794126466E438919F8BD30B4F6
:102600007446641E2578641CAB4200D21D46635D8F
:102610005B00E31830BC18478307FF22DB0E9A40AB
:102620008907090E9940002808DB830809489B00A8
:102630001B18186890430843186070470007000F84
:102640000838830804489B001B18D8699043084346
:10265000D861704700E400E000ED00E0FEF7C4FA46
:10266000FFF730FEFFF7FEFAFFF754FBFFF77CFBA6
:10267000FFF76AFE08210D48FFF7DAF8FFF7C7FEFB
:10268000FFF7B1FEFFF708FE0C20FFF70FFEFFF784
:10269000BBFB074C002520780028FCD02570207952
:1026A000FFF704FEFFF7B0FBF5E700007C00002019
:1026B0000400002070B5420064414B005C41120EE2
:1026C00039D01B0E38D0FF2A3CD0FF2B3AD0400225
:1026D0004902400A490A060045184E43000A090A01
:1026E000D2184843ED017F3A0104731A4019190CBE
:1026F0004318990F04D001215B0849075B1A521C4B
:10270000D80904D3401CF50301D19D0607D0FF2A48
:1027100008D2D50506D0E4072043401970BD012535
:10272000A843F4E7002A01DCE00770BD2402FF2083
:102730002043C00570BD1B0EFF2A03D0FF2B01D024
:10274000E00770BDFF2645003606B54206D84D00AD
:10275000B54203D8D218FF2A00D0E7E7004870BD81
:102760000000C07F00000000000000000102030420
:1027700006070809030406080C101820308182831C
:102780008485868788898B8C8D8E8F919293959680
:1027900097999A9C9D9FA0A2A3A5A7A8AAACAEB00A
:1027A000B2B3B5B7B9BCBEC0C2C5C7C9CCCED1D40F
:1027B000D7D9DCDFE2E6E9ECF0F3F7FAFE0000003F
:1027C000E02700080000002030000000040100089D
:1027D0001028000830000020D00700002001000869
:1027E00000000000000000000000000000000000E9
:1027F00000000000000000000000000000000000D9
:1028000001000000040000000000000000002000A3
:04000005080000C12E
:00000001FF
