:020000040800F2
:10000000280700206501000835190008511600086E
:1000100000000000000000000000000000000000E0
:10002000000000000000000000000000A919000806
:1000300000000000000000005D190008AB19000876
:10004000770100083919000899190008770100089C
:100050007701000877010008A30400087701000871
:100060000000000077010008770100087701000810
:10007000770100085516000800000000770100080D
:100080000000000000000000000000000000000070
:1000900077010008000000007701000877010008E0
:1000A00000000000770100080000000000000000D0
:1000B0007701000877010008000000000000000040
:1000C00000F002F800F03EF80CA030C80838241800
:1000D0002D18A246671EAB4654465D46AC4201D180
:1000E00000F030F87E460F3E0FCCB6460126334274
:1000F00000D0FB1AA246AB4633431847681A0000EB
:10010000881A0000103A02D378C878C1FAD852078A
:1001100001D330C830C101D504680C6070470000BD
:100120000023002400250026103A01D378C1FBD813
:10013000520700D330C100D50B6070471FB51FBDFB
:1001400010B510BD00F07BF91146FFF7F7FF01F085
:10015000B5FC00F093F903B4FFF7F2FF03BC00F025
:1001600099F900000748804707480047FEE7FEE787
:10017000FEE7FEE7FEE7FEE704480549054A064BB1
:1001800070470000451A0008C1000008280100203F
:10019000280700202803002028030020FEB505467C
:1001A00010460C46184373D0AE468C460020AD1A5C
:1001B00001469C4167D36646002701243D46B61A96
:1001C0009D4102D313463A462124654676462F04C4
:1001D000360C3E432D0CB61A9D4104D3150C1B045E
:1001E0002B4312041034654676462F06360A3E43EA
:1001F0002D0AB61A9D4104D3150E1B022B43120281
:100200000834654676462F0736093E432D09B61A4F
:100210009D4104D3150F1B012B431201241D65467C
:100220007646AF07B6083E43AD08B61A9D4104D3E3
:10023000950F9B002B439200A41C65467646EF0762
:1002400076083E436D08B61A9D411AD392185B4159
:10025000641C16E00018764665464941B71A9D4170
:100260000191009009D36046B11A98418E468446A8
:10027000009801990025401C6941DD0752082A4376
:100280005B08641EE6D57246634603B0F0BDFFE727
:1002900000200146C046C0462A462346F5E701E055
:1002A00004C0091F0429FBD28B0701D50280801CE2
:1002B000C90700D00270704700290BD0C30702D0D5
:1002C0000270401C491E022904D3830702D5028014
:1002D000801C891EE3E70022EEE70022DFE7002210
:1002E00003098B422CD3030A8B4211D300239C4673
:1002F0004EE003460B433CD4002243088B4231D3EB
:1003000003098B421CD3030A8B4201D394463FE07E
:10031000C3098B4201D3CB01C01A524183098B42DE
:1003200001D38B01C01A524143098B4201D34B01C7
:10033000C01A524103098B4201D30B01C01A52412A
:10034000C3088B4201D3CB00C01A524183088B42B1
:1003500001D38B00C01A524143088B4201D34B009A
:10036000C01A5241411A00D201465241104670470C
:100370005DE0CA0F00D04942031000D34042534011
:1003800000229C4603098B422DD3030A8B4212D3D1
:10039000FC22890112BA030A8B420CD38901921103
:1003A0008B4208D3890192118B4204D389013AD040
:1003B000921100E08909C3098B4201D3CB01C01A15
:1003C000524183098B4201D38B01C01A5241430928
:1003D0008B4201D34B01C01A524103098B4201D316
:1003E0000B01C01A5241C3088B4201D3CB00C01A83
:1003F000524183088B4201D38B00C01A5241D9D29B
:1004000043088B4201D34B00C01A5241411A00D21B
:100410000146634652415B10104601D34042002B17
:1004200000D54942704763465B1000D3404201B596
:100430000020C046C04602BD7047704770477546F1
:1004400000F024F8AE46050069465346C008C000D7
:10045000854618B020B5FFF78FFE60BC002749081D
:10046000B6460026C0C5C0C5C0C5C0C5C0C5C0C54C
:10047000C0C5C0C5403D49008D46704710B5044613
:10048000C046C0462046FFF766FE10BD00487047D4
:10049000C800002001491820ABBEFEE7260002007C
:1004A000704710B5042000F02BF810BD72B6FEE7BF
:1004B00070B5042821D1052636070421304600F006
:1004C000FBF801250D4C002806D16078002803D1E7
:1004D000257000F0FDF860600421304600F0ECF873
:1004E00000280AD06078002807D100F0F1F8616890
:1004F000401AA06000202070657070BD00000020D0
:1005000010B504494A69024202D04861FFF7D0FFA2
:1005100010BD000000040140F8B5002303240125AC
:10052000B8E032462E469E40B446324079D00E792D
:10053000B607B60F012E01D0022E17D186682746C6
:10054000B6465E00B74000967646BE43B646CF68D4
:10055000009EB74076463743876046686746BE438D
:100560000F79FF06FF0F9F40374347600E79F64330
:10057000B6070ED0C6682746B4465E00B646B740FA
:100580006646BE43B4468F687646B74066463743F4
:10059000C7600E79B607B60F022E14D1DE08B6007A
:1005A00036180096366A5F07B446FE0E0F27B64629
:1005B000B7406646BE43B4460F697646B7406646C6
:1005C0003743009E376206682746B4465E00B6464B
:1005D000B7406646BE430F79B446BF07BF0F7646A5
:1005E000B7406646374307604E68B603B60F50D033
:1005F0002B4F7E6B2E437E639F082A4EBF00BE1991
:100600000096B6680F27B4469E07360FB646B74029
:100610006646BE4305273F07B446B84202D10027CD
:1006200010E036E0204FB84201D101270AE01F4F09
:10063000B84201D1022705E01D4FB84201D105277C
:1006400000E006277646B74066463743009EB7600F
:10065000184E36684F689643FF0300D51643154F72
:100660003E607E684F689643BF0300D51643114F26
:100670007E60BE684F689643FF0200D516430D4F5B
:10068000BE60FE684F689643BF0200D51643094A14
:10069000D6605B1C0A681646DA4000D041E7F8BD18
:1006A000001002400000014000040050000800500B
:1006B000001C0050000401400069084000D00120E7
:1006C0007047002A01D08161704781627047000045
:1006D00001488068704700001800002070B502468D
:1006E00040325378202B1CD11378012B19D00123D1
:1006F000137024245470046825689D4325600468A1
:1007000025681E03B5432560046825680D432560F0
:1007100000680168194301602020507000201070AB
:1007200070BD022070BD70B5024640325378202B58
:100730001BD11378012B18D001241470242353707B
:1007400003681D68A5431D6005682B680F263602E7
:10075000B34309021943296000680168214301601D
:10076000202050700020107070BD022070BD00006D
:1007700070B5040006D0254640356878002600286C
:1007800002D005E0012070BD2E70204600F04AF82E
:1007900024206870206801684908490001600F2121
:1007A0006068090688432168086121688A68012019
:1007B000C00382438A60E1680129A16808D0212230
:1007C0009202114322689160E168022902D005E09B
:1007D0000143F7E701212268C902516021684A6894
:1007E0000F4B1A434A602168CA688243CA60616934
:1007F00020690843A169090208432168C860216A89
:10080000E0690843216808602068016801221143FB
:1008100001606664202068702663AE70002070BDA1
:100820000080000210B586B0044614216846FFF728
:1008300054FD1049206888421AD10F4CE16A01200A
:100840000143E162E16A02900140059103214902FE
:100850000091122101910321049003910520694622
:100860000007FFF759FEA06B012149050843A0636B
:1008700006B010BD005400400010024002488168DC
:1008800002788918816070471800002010B5084868
:1008900000240168402211430160204600F00AF85C
:1008A000002801D0012401E000F050F9204610BDDD
:1008B0000020024070B504460D4D7D202978C0000F
:1008C000FFF70DFD01460B480068FFF708FD00F03B
:1008D000A7FE002809D1042C07D200222146401E81
:1008E00000F058F900206C6070BD012070BD000060
:1008F00018000020240000207047704770477047A0
:10090000F8B50446022026462036B0731E48026819
:10091000C3041A4302606068012809D0A06A9A11D2
:10092000904205D12068C26807235B029A43C260E7
:100930002068026901252A43026120681027476068
:10094000206881613946204600F006FF032819D04F
:10095000204600F091FEB07B032813D02068816808
:1009600039438160206881680222114381602068D8
:100970000169294301612068016904221143016171
:10098000B5730020F8BD00000004014070477047B7
:1009900010B5044600680168C943C90708D18168D9
:1009A000C943C90704D1012141602046FFF7A6FFD2
:1009B00020680168C943890708D48168C943890749
:1009C00004D4022141602046FFF796FF20680168A9
:1009D000C943490708D48168C943490704D404219D
:1009E0004160204600F0B0F820680168C94309075B
:1009F00008D48168C943090704D40821416020460E
:100A0000FFF77DFF20680168C943C90608D48168E3
:100A1000C943C90604D4102141602046FFF76DFF89
:100A200020680168C943890608D48168C9438906DA
:100A300004D4202141602046FFF7A9FF2068016807
:100A4000C943490608D48168C943490604D44021F2
:100A500041602046FFF79AFF10BD0000F8B5040082
:100A600005D025462035A87B002802D006E00120CD
:100A7000F8BD00206873204600F048F80220A873F3
:100A80002068C26884466368012B04D00120A16AF3
:100A9000C005814201D11E2082431948616981420B
:100AA00001D0184802401848A66802401846304352
:100AB000676A266A3E433043A66A30431043002BE0
:100AC00018D0012B03D00122D205964203D123690D
:100AD000E2681A4310430A4A914205D0A2691143C1
:100AE000E2690243084610436146C8600120A873CA
:100AF0000020F8BD2369E2691A431043E3E70000D0
:100B0000FFFF00003F1FFFFFFEF119FF10B5006857
:100B1000084988420CD10848816BC20411438163A3
:100B2000002211460D2000F035F80D2000F026F8C7
:100B300010BD0000007C0040001002400068806989
:100B400070470068C0697047704700001CB50948CD
:100B5000416B012211434163816B020411438163A4
:100B60004020009004480190684600F017F800F01B
:100B700049F81CBD0010024001000200002805DBFE
:100B8000C106C90E01208840014908607047000075
:100B900000E100E010B500F06FFF10BD174A1168CA
:100BA000E023994303681943116015494B680122FA
:100BB000120493434B600B6893430B60CB689343E1
:100BC000CB608B6893438B604368DB0302D50B6873
:100BD00013430B6043689B0302D54B6813434B6080
:100BE0000379DB0702D08B6813438B6000798007A1
:100BF00002D5C8681043C86070470000007000400C
:100C0000000401400248016810221143016070474E
:100C1000007000407047000010B5054C6069C003CB
:100C200004D5FFF7F7FF01200004606110BD00004C
:100C300000040140F8B50446007800274E4D8006B8
:100C400071D54D4E403EB06BC00004D4B06BA905C9
:100C50000843B063012749480168C90511D40168F8
:100C6000821511430160FFF733FD009005E0FFF7A7
:100C70002FFD0099401A642837D840480068C00505
:100C8000F5D532680321090560680A4001409142A8
:100C900008D08103890F032904D13168890301D564
:100CA0000120F8BD2A69032109040A4022D0084026
:100CB00090421FD0207880061CD528692A69884375
:100CC0000121C9040A432A612A698A432A612861E9
:100CD000C0050FD5FFF7FCFC009008E0FFF7F8FC1B
:100CE0000099411A2648814201D90320F8BD28699C
:100CF0008005F3D561688803800F032805D1326829
:100D00000005824301400A4332602869032261687A
:100D10001204114008432861002F04D0B16B012058
:100D200000078143B1632078800705D5E8680C216E
:100D30008843A1680843E8602078400706D5E86842
:100D4000032189028843E1680843E86020780007AE
:100D500006D5E86803210903884321690843E86050
:100D60002078000606D5E868032189048843616974
:100D70000843E8600020F8BD4010024000700040C9
:100D800088130000F8B50E46050038D05E480068AC
:100D9000C007C00FB04214D25B4C2068400840002E
:100DA00030432060FFF794FC074605E0FFF790FC16
:100DB000C11B564881427AD82068C007C00FB04294
:100DC000F4D12878524C800705D5E068F02188439B
:100DD000A9680843E0602878C00752D068680228F4
:100DE00006D0032807D0216801280AD0890504E02D
:100DF0002168890301E021688901002903DB0120C2
:100E0000F8BD4907F9E7E168890889000143E16015
:100E1000FFF75EFC0746686802280AD0032814D052
:100E200001281ED029E0FFF753FCC11B374881423F
:100E30003DD8E0680007800F0228F4D121E0FFF7D9
:100E400047FCC11B3148814231D8E0680007800F60
:100E50000328F4D115E0FFF73BFCC11B2B4881426E
:100E600025D8E0680007800F0128F4D109E0FFF7DA
:100E70002FFCC11B2548814219D8E0680007800F6C
:100E8000F5D121480168C907C90FB14217D90168D6
:100E90004908490031430160FFF71AFC074608E0A2
:100EA00005E0FFF715FCC11B1848814201D903205A
:100EB000F8BD15480068C007C00FB042F1D12878CE
:100EC000400706D5E068072109028843E96808431E
:100ED000E0602878000707D5E0680721C902884349
:100EE0002969C9000843E06000F01AF8E168094A7E
:100EF0000906090F515CC8400749086007480068A7
:100F0000FFF7D8FCF8BD0000002002408813000065
:100F100000100240481B0008240000201C00002094
:100F200070B51A4AD3681A490C2018408D0004285D
:100F30000CD04E00082810D00C2810D050680004A7
:100F4000410F0120C003491C884070BD1068C006D5
:100F500001D5084670BD284670BD304670BD980268
:100F60000C4C000F205C1B029C0FD368641CDB033D
:100F700001D5314603E01268D20600D4294600F0BC
:100F800062FD22460023FFF709F970BD0010024000
:100F900000093D00581B0008FEB505007ED0F74C47
:100FA000E7680C20E6680740012000040640287826
:100FB000C00747D0082F05D00C2F0AD1012000040C
:100FC000864206D1206880033CD568680028E5D0B9
:100FD00038E0012069680004814203D1216801439F
:100FE000216011E0052301221B049204994221682B
:100FF00002D111432160F1E7814321602168014062
:101000000091206890432060686800280DD0FFF7A9
:101010005FFB009005E0FFF75BFB0099401A642836
:101020007ED820688003F6D50CE0FFF751FB0090D6
:1010300005E0FFF74DFB0099401A6428F0D82068BE
:101040008003F6D4287880075DD5E868810604D54A
:10105000226820210A43226088430923042F0DD0EF
:101060000C2F01D1002E09D000283CD021689943D3
:1010700001432160FFF72CFB064628E02168490761
:1010800001D500288AD061681F22120291432A6983
:101090001202114361602168994300E091E101432C
:1010A0002160FFF73DFFE16809060A0FB449895C3A
:1010B000C840B4490860B4480068FFF7FBFB00284B
:1010C00074D120E0FFF704FB801B0228A8D8206819
:1010D0004007F7D560681F21090288432969090282
:1010E000084360600FE02068400840002060FFF780
:1010F000EFFA064604E0FFF7EBFA801B02288FD8D0
:1011000020684007F7D42878C00661D5002F0DD09D
:10111000A86900284BD02068FF210131084300E076
:10112000C6E02060FFF7D4FA06462DE0206880056F
:1011300002D5A8690028A5D0606807214903884323
:10114000296A084360606068297F0002000A090676
:1011500008436060286A410B0120C003491C884095
:10116000E16809060A0F8649895CC840854908601C
:1011700085480068FFF79EFB002817D128E0FFF79D
:10118000A7FA801B0228A1D820688005F7D56068DF
:10119000072149038843296A084360606068297F02
:1011A0000002000A09060843606011E0E1E02168DE
:1011B000FF20013081432160FFF78AFA064604E0F0
:1011C000FFF786FA801B022872D820688005F7D4C2
:1011D00028786E4E000724D568690028306910D041
:1011E000012108433061FFF773FA009005E0FFF733
:1011F0006FFA0099401A02285AD830698007F6D54C
:101200000FE0400840003061FFF762FA009005E00F
:10121000FFF75EFA0099401A022849D83069800722
:10122000F6D42878400765D500200290A06BC00056
:1012300006D4A06B012109070843A0630120029096
:1012400053480168C90511D4016882151143016032
:10125000FFF73EFA009005E0FFF73AFA0099401ACE
:10126000642825D84A480068C005F5D5FF20AA683B
:101270000130824203D131690143316111E0012122
:101280008902002A07D005231B029A4203D1326942
:101290000A433261EFE73269824332613069884341
:1012A0003061A86800280FD0FFF712FA009007E01D
:1012B0005EE0FFF70DFA0099411A3648814257D88F
:1012C00030698005F5D50DE0FFF702FA009006E0E1
:1012D000FFF7FEF90099411A2E48814248D830693B
:1012E0008005F5D40298002804D0A06B01210907DD
:1012F0008843A063686A002865D00C2F4CD0012673
:1013000036060228206805D0B0432060FFF7E0F9D8
:1013100005462FE0B0432060FFF7DAF9074604E006
:10132000FFF7D6F9C01B022822D820688001F7D425
:10133000E96AA86AE2680843296BFD231B049A4303
:1013400011430843E060206830432060FFF7C0F994
:10135000054604E0FFF7BCF9401B022808D82068C6
:101360008001F7D52FE0FFF7B3F9401B022801D920
:101370000320FEBD20688001F5D424E00010024067
:10138000481B0008240000201C00002040100240E0
:1013900000700040881300000128EAD0E0680121B5
:1013A0000904AA6A014091420BD10F218904EA6A1B
:1013B0000140914205D1032189050840296B8842EB
:1013C00001D00120FEBD0020FEBD0000F7B505469E
:1013D00004462035287882B0012814D001202870D6
:1013E000022068702168CA20486221685320486240
:1013F0002068806800264005FF27002812DAFFF7E2
:1014000067F900900AE0022005B0F0BDFFF760F92F
:101410000099411A7D20C00081421CD82068C06814
:101420004007F3D4206881680122920291438160D1
:101430002068C16880221140204A8918C160FFF7E6
:1014400047F900900DE0FFF743F90099411A7D201C
:10145000C000814205D920684762032068702E7061
:10146000D2E72068C0684007EDD52168039848613D
:1014700020688168C908C900816020688168049A71
:10148000114381600E480268012109050A43026088
:1014900082680A43826020688168012292031143B6
:1014A0008160206881681211114381602068476261
:1014B000012068702E700020A6E700007FFBFFFF70
:1014C000000401407047000010B504460068C06881
:1014D000400509D52046FFF7F5FF2068C168802246
:1014E0001140054A8918C16001200449000548617E
:1014F00001202034607010BD7FFBFFFF000401401D
:10150000F8B5040050D0254620356878002803D16E
:101510002870204600F052F8022068702168CA2026
:101520004862216853204862204600F018FAFF26DE
:1015300004270028206802D046626F7034E081687A
:101540001D4A11408160216888686268A369104360
:1015500022691A43104388602168E06808612068A6
:10156000016922891204114301612068C168802247
:101570009143C1602068C16C89088900C164E16938
:10158000606901432068C26C1143C16420688068AF
:1015900080060BD4204600F029F8002806D02068E9
:1015A00046626F70002028700120F8BD20684662F6
:1015B000012068700020F8BDBFFF8FFF10B50068E4
:1015C000084988420DD1084801690122920411435B
:1015D0000161002211460220FFF7DCFA0220FFF72A
:1015E000CDFA10BD002800404010024070B50446FE
:1015F0000068C168A0229143C160FFF769F87D26A9
:101600000546F60006E0FFF763F8401BB04201D93B
:10161000032070BD2068C0688006F4D5002070BD2E
:10162000094910B5401E884201D9012010BD074C60
:1016300060610321081F00F01FFA0020A06107204D
:101640002061002010BD0000FFFFFF0000E000E06F
:10165000FEE7000010B506480178002905D00021FA
:1016600001700448FFF794F910BD0121F8E700006C
:101670001400002074000020FEB50446002772B656
:10168000334A01688B1804D13248C76803208004AC
:10169000074088680190C868009048698E69002BEF
:1016A00008D12C4940398B6ACD042B438B628B6A5D
:1016B000AB438B62014631433CD025492368CB4282
:1016C00005D12449CA6803239B049A43CA6025466E
:1016D0002035002810D021680A6901231A430A61C5
:1016E000216848610821204600F036F8032800D11F
:1016F000A873216808204860002E10D02068016976
:10170000012211430161206886611021204600F00A
:1017100023F8032800D1A8732168102048600C48E2
:101720002168C14206D10B48C1680322920491434B
:101730003943C16020680169490849000161216895
:101740000198886021680098C86062B6FEBD0000FC
:101750000084FFBF4010024070B506460B480D469E
:10176000002409490068FEF7BAFD7D21C9004843FD
:101770003168401E00D103240B682A469A4301D0E9
:101780000028F6D1204670BD204E00002400002025
:10179000F0B587B014216846FEF79FFD2E48C16A58
:1017A00004252943C162C16A29400591C16A012209
:1017B0001143C162C16A11400591C16A02263143D9
:1017C000C162C06A00223040059005204021000718
:1017D000FEF777FF0320800303270024009069466B
:1017E000019702941D48FEF797FE05200194694673
:1017F000000700970294FEF78FFE3120000401904D
:1018000005206946009502940007FEF785FEB82082
:10181000009005206946019702940007FEF77CFEC0
:101820004020009001200190052002946946039415
:101830000007FEF771FE6946094801970096029479
:10184000FEF76AFE002211460620FFF7A3F90620E4
:10185000FFF794F907B0F0BD0010024000080050F7
:101860000004005010B51348114901601421416073
:10187000002181600161416181610122C161C26019
:101880000162FEF775FF002801D0FEF70FFE002170
:101890000848FEF723FF002801D0FEF707FE0021CD
:1018A0000448FEF740FF002801D0FEF7FFFD10BD01
:1018B000005400402800002010B50B480949016081
:1018C000072252028260002141600162074A4162A0
:1018D00042618162FFF7C2F8002801D0FEF7E6FD01
:1018E00010BD0000007C004074000020FFFF0000DD
:1018F00010B50F480D4901607F22826000214160D0
:1019000001614161FF228161C260C161FFF7F8FDA1
:10191000002801D0FEF7CAFD002211460448FFF757
:1019200055FD002801D0FEF7C1FD10BD0028004084
:10193000A4000020FEE7000010B5FFF76DF906498E
:101940000878072807D0022805D0032803D00428E8
:1019500001D00920087010BD02000020704770B54A
:1019600004460068C168490613D40021C943C16018
:10197000FEF7AEFE7D260546F60006E0FEF7A8FE61
:10198000401BB04201D9032070BD2068C0684006EA
:10199000F4D5002070BD000010B50248FFF794FD9B
:1019A00010BD0000A4000020704710B5FEF766FFD0
:1019B00010BD000010B598B034216846FEF78DFCCC
:1019C00014210DA8FEF789FC182112A8FEF785FC4A
:1019D0001B4801680322D2029143C2148918016096
:1019E00018200090012005900690002480030890A4
:1019F000079409946846FFF7CFFA002801D072B621
:101A0000FEE70F200D900E940F9410940021119476
:101A10000DA8FFF7B7F9002801D072B6FEE7A8209D
:101A2000129001204004139040001790169412A8C1
:101A3000FFF700F9002801D072B6FEE718B010BD1C
:101A4000007000407047F8B5040C8BB2264682B295
:101A50005E430D0C1046370C5843360480190021A4
:101A6000794116466E43370C360480197941264673
:101A70006E438919F8BD00008307FF22DB0E9A40F0
:101A80008907090E9940002808DB830809489B0054
:101A90001B18186890430843186070470007000F30
:101AA0000838830804489B001B18D86990430843F2
:101AB000D861704700E400E000ED00E01CB51D4C6B
:101AC0000220A070FEF7E2FEFFF774FFFFF760FE52
:101AD000FFF7C8FEFFF70CFFFFF7EEFE00221146EE
:101AE0000120FFF757F80120FFF748F81248816BF3
:101AF000020411438163002211460120FFF74AF8D6
:101B00000120FFF73BF8402000900C480190684608
:101B1000FFF744F8FFF776F809490A48FEF7F0FEA8
:101B20000848FFF70EF8E0600648FFF707F8206165
:101B3000F6E7000000000020001002400100010054
:101B4000E021000074000020000000000000000000
:101B50000102030406070809030406080C101820F4
:101B600030000000841B0008000000202800000056
:101B700004010008AC1B000828000020000700003A
:101B8000200100080000020000000000000000002A
:101B90000000000000000000000000000100000044
:0C1BA00004000000000000000000200015
:04000005080000C12E
:00000001FF
