:020000040800F2
:10000000F0070020A1010008111A00084D16000891
:1000100000000000000000000000000000000000E0
:10002000000000000000000000000000011F0008A8
:100030000000000000000000131A0008291F00083B
:10004000B3010008B3010008B3010008B3010008C0
:10005000B3010008B30100081F050008B301000840
:1000600000000000B3010008B3010008B30100085C
:10007000B3010008B301000800000000B30100084C
:100080000000000000000000000000000000000070
:10009000B301000800000000B3010008B30100082C
:1000A00000000000B3010008000000000000000094
:1000B000B3010008B30100080000000000000000C8
:1000C00000F002F800F040F80CA030C808382418FE
:1000D0002D18A246671EAB4654465D46AC4201D180
:1000E00000F032F87E460F3E0FCCB6460126334272
:1000F00000D0FB1AA246AB46334318474C220000FF
:100100006C220000103A02D378C878C1FAD852079E
:1001100001D330C830C101D504680C6070470000BD
:100120000023002400250026103A01D378C1FBD813
:10013000520700D330C100D50B6070471FB500F0E7
:10014000E3F81FBD10B510BD00F0B6F91146FFF77A
:10015000F5FF02F005F800F0CEF903B4FFF7F2FF67
:1001600003BC00F0D5F9000030B40C490C684A68B3
:1001700023681068C0181060241D121D8C4207D21D
:100180008A4208D20C604A6030BC40004008704788
:100190000C00DC3CF6E70A00DC3AF3E784010020BF
:1001A0000748804707480047FEE7FEE7FEE7FEE70F
:1001B000FEE7FEE704480549054A064B7047000084
:1001C00059200008C1000008F0010020F0070020BD
:1001D000F0030020F0030020FEB5054610460C4653
:1001E000184373D0AE468C460020AD1A01469C41A0
:1001F00067D36646002701243D46B61A9D4102D3C7
:1002000013463A462124654676462F04360C3E4373
:100210002D0CB61A9D4104D3150C1B042B4312045C
:100220001034654676462F06360A3E432D0AB61A26
:100230009D4104D3150E1B022B4312020834654660
:1002400076462F0736093E432D09B61A9D4104D341
:10025000150F1B012B431201241D65467646AF077F
:10026000B6083E43AD08B61A9D4104D3950F9B00D6
:100270002B439200A41C65467646EF0776083E4362
:100280006D08B61A9D411AD392185B41641C16E0A2
:100290000018764665464941B71A9D410191009084
:1002A00009D36046B11A98418E4684460098019958
:1002B0000025401C6941DD0752082A435B08641E83
:1002C000E6D57246634603B0F0BDFFE70020014665
:1002D000C046C0462A462346F5E700000B4A30B523
:1002E00011460B4C60310B46DC3B0CC1372106E05C
:1002F000020C8D0012185A51064A504300190A4642
:10030000491E002AF4DC30BD0120E7E7240100206B
:10031000E119D666CD0D010001E004C0091F0429D2
:10032000FBD28B0701D50280801CC90700D0027068
:10033000704700290BD0C30702D00270401C491E31
:10034000022904D3830702D50280801C891EE3E7BB
:100350000022EEE70022DFE7002203098B422CD3C4
:10036000030A8B4211D300239C464EE003460B4305
:100370003CD4002243088B4231D303098B421CD367
:10038000030A8B4201D394463FE0C3098B4201D359
:10039000CB01C01A524183098B4201D38B01C01A91
:1003A000524143098B4201D34B01C01A5241030908
:1003B0008B4201D30B01C01A5241C3088B4201D3B7
:1003C000CB00C01A524183088B4201D38B00C01A64
:1003D000524143088B4201D34B00C01A5241411A8B
:1003E00000D201465241104670475DE0CA0F00D06E
:1003F0004942031000D34042534000229C46030967
:100400008B422DD3030A8B4212D3FC22890112BAEC
:10041000030A8B420CD3890192118B4208D38901C4
:1004200092118B4204D389013AD0921100E08909DC
:10043000C3098B4201D3CB01C01A524183098B42BD
:1004400001D38B01C01A524143098B4201D34B01A6
:10045000C01A524103098B4201D30B01C01A524109
:10046000C3088B4201D3CB00C01A524183088B4290
:1004700001D38B00C01A5241D9D243088B4201D319
:100480004B00C01A5241411A00D201466346524104
:100490005B10104601D34042002B00D54942704703
:1004A00063465B1000D3404201B50020C046C04601
:1004B00002BD704770477047754600F025F8AE469C
:1004C000050069465346C008C000854618B020B5EF
:1004D000FFF770FE60BC00274908B6460026C0C57D
:1004E000C0C5C0C5C0C5C0C5C0C5C0C5C0C5403DEC
:1004F00049008D46704710B50446C046C0462046A8
:10050000FFF72BFE10BD0000004870478C01002053
:1005100001491820ABBEFEE726000200704710B567
:10052000042000F043F810BD72B6FEE770B5044633
:1005300000F024F90546601C02D004480078241815
:1005400000F01CF9401BA042FAD370BD140000203B
:1005500070B5042826D1052636070421304600F060
:1005600001F90125104C002803D1257000F006F98F
:1005700060600421304600F0F5F8002812D000F049
:10058000FDF86168401A002160602170FFF7A6FE47
:10059000FFF7EAFD0B21FFF7E9FEA0688842F7D0DC
:1005A000A160657070BD00000400002010B5044912
:1005B0004A69024202D04861FFF7CAFF10BD00003D
:1005C00000040140F8B5002303240125B8E03246B9
:1005D0002E469E40B446324079D00E79B607B60F0B
:1005E000012E01D0022E17D186682746B6465E003E
:1005F000B74000967646BE43B646CF68009EB740E9
:1006000076463743876046686746BE430F79FF06E4
:10061000FF0F9F40374347600E79F643B6070ED071
:10062000C6682746B4465E00B646B7406646BE4337
:10063000B4468F687646B74066463743C7600E7942
:10064000B607B60F022E14D1DE08B6003618009693
:10065000366A5F07B446FE0E0F27B646B7406646B9
:10066000BE43B4460F697646B74066463743009EA0
:10067000376206682746B4465E00B646B74066460F
:10068000BE430F79B446BF07BF0F7646B7406646F4
:10069000374307604E68B603B60F50D02B4F7E6BC2
:1006A0002E437E639F082A4EBF00BE190096B6688F
:1006B0000F27B4469E07360FB646B7406646BE4380
:1006C00005273F07B446B84202D1002710E036E0C4
:1006D000204FB84201D101270AE01F4FB84201D193
:1006E000022705E01D4FB84201D1052700E006278B
:1006F0007646B74066463743009EB760184E366868
:100700004F689643FF0300D51643154F3E607E6841
:100710004F689643BF0300D51643114F7E60BE68F5
:100720004F689643FF0200D516430D4FBE60FE682A
:100730004F689643BF0200D51643094AD6605B1C3A
:100740000A681646DA4000D041E7F8BD00100240C2
:10075000000001400004005000080050001C005040
:10076000000401400069084000D001207047002AC1
:1007700001D0816170478162704700000148806844
:10078000704700001400002070B5024640325378D4
:10079000202B1CD11378012B19D001231370242492
:1007A0005470046825689D432560046825681E030D
:1007B000B5432560046825680D432560006801681D
:1007C00019430160202050700020107070BD02207D
:1007D00070BD70B5024640325378202B1BD1137880
:1007E000012B18D0012414702423537003681D6852
:1007F000A5431D6005682B680F263602B343090226
:10080000194329600068016821430160202050706D
:100810000020107070BD022070BD000070B5040093
:1008200006D02546403568780026002802D005E02D
:10083000012070BD2E70204600F0F0F82420687072
:10084000206801684908490001600F2160680906B5
:1008500088432168086121688A680120C0038243B7
:100860008A60E1680129A16808D02122920211431F
:1008700022689160E168022902D005E00143F7E7B0
:1008800001212268C902516021684A680F4B1A434E
:100890004A602168CA688243CA6061692069084366
:1008A000A169090208432168C860216AE069084318
:1008B00021680860206801680122114301606664B4
:1008C000202068702663AE70002070BD008000029A
:1008D000FFB5054604464035687883B0202872D1BC
:1008E0000C98002814D00D98002811D028780128E1
:1008F00069D001202870FFF741FF074601220090D0
:100900001923D103204600F03BFF002871D103E0FA
:100910000120400260646CE0212068704020A870D3
:10092000002666640C9860620D98608566630E9878
:100930000090019704A90EC9204600F0DDFE0028B2
:1009400001D02E7055E0608DFF2805D9FF22228549
:1009500001231B06009606E0608D20850096208D01
:100960000123C2B25B062046049900F0F5FE3A4628
:1009700020460E9900F051FF00283AD1606A2168A4
:1009800000788862606A401C6062608D401E6085ED
:10099000208D401E80B22085618D00291FD0002847
:1009A0001DD100970022802120460E9B00F0E8FE1A
:1009B00000281ED1608DFF2806D9FF222285012341
:1009C0001B06009607E024E0608D20850096208DB0
:1009D0000123C2B25B062046049900F0BDFE608D83
:1009E0000028C4D13A4620460E9900F0F0FE0028B7
:1009F00002D0012007B0F0BD20682021C16120682D
:100A00004268054B1A4042606970AE702E7000203B
:100A1000F0E70220EEE7000000E800FE10B586B027
:100A2000044614216846FFF795FC10492068884267
:100A30001AD10F4CE16A01200143E162E16A0290A0
:100A400001400591032149020091122101910321E6
:100A500004900391052069460007FFF7B3FDA06BE2
:100A6000012149050843A06306B010BD00540040B1
:100A7000001002400248816802788918816070473E
:100A80001400002010B508480024016840221143DA
:100A90000160204600F00AF8002801D0012401E09E
:100AA00000F026F8204610BD0020024070B5044634
:100AB0000D4D7D202978C000FFF74EFC01460B4804
:100AC0000068FFF749FC00F0A9FD002809D1042CBB
:100AD00007D200222146401E00F022F800206C6060
:100AE00070BD012070BD0000140000202000002017
:100AF0000448416B012211434163816B020411439D
:100B00008163704700100240002805DBC106C90E52
:100B100001208840014908607047000000E100E0C2
:100B200010B501F0FBFA10BDF8B5044600780027B7
:100B30004E4D800671D54D4E403EB06BC00004D482
:100B4000B06BA9050843B063012749480168C9058E
:100B500011D40168821511430160FFF70FFE009068
:100B600005E0FFF70BFE0099401A642837D840488B
:100B70000068C005F5D532680321090560680A40A0
:100B80000140914208D08103890F032904D13168C3
:100B9000890301D50120F8BD2A69032109040A400F
:100BA00022D0084090421FD0207880061CD52869AA
:100BB0002A6988430121C9040A432A612A698A43B0
:100BC0002A612861C0050FD5FFF7D8FD009008E025
:100BD000FFF7D4FD0099411A2648814201D903202C
:100BE000F8BD28698005F3D561688803800F032864
:100BF00005D132680005824301400A43326028690A
:100C0000032261681204114008432861002F04D0B8
:100C1000B16B012000078143B1632078800705D5BF
:100C2000E8680C218843A1680843E8602078400701
:100C300006D5E868032189028843E1680843E86033
:100C40002078000706D5E868032109038843216955
:100C50000843E8602078000606D5E8680321890487
:100C6000884361690843E8600020F8BD40100240F5
:100C70000070004088130000F8B50E46050038D01B
:100C80005E480068C007C00FB04214D25B4C2068B9
:100C90004008400030432060FFF770FD074605E044
:100CA000FFF76CFDC11B564881427AD82068C00707
:100CB000C00FB042F4D12878524C800705D5E068C7
:100CC000F0218843A9680843E0602878C00752D023
:100CD0006868022806D0032807D0216801280AD0B6
:100CE000890504E02168890301E021688901002960
:100CF00003DB0120F8BD4907F9E7E16889088900AD
:100D00000143E160FFF73AFD0746686802280AD010
:100D1000032814D001281ED029E0FFF72FFDC11BA6
:100D2000374881423DD8E0680007800F0228F4D19F
:100D300021E0FFF723FDC11B3148814231D8E06833
:100D40000007800F0328F4D115E0FFF717FDC11B42
:100D50002B48814225D8E0680007800F0128F4D194
:100D600009E0FFF70BFDC11B2548814219D8E06857
:100D70000007800FF5D121480168C907C90FB142AA
:100D800017D901684908490031430160FFF7F6FCB3
:100D9000074608E005E0FFF7F1FCC11B1848814257
:100DA00001D90320F8BD15480068C007C00FB04244
:100DB000F1D12878400706D5E06807210902884369
:100DC000E9680843E0602878000707D5E068072154
:100DD000C90288432969C9000843E06000F01AF895
:100DE000E168094A0906090F515CC84007490860D3
:100DF00007480068FFF75AFEF8BD000000200240D7
:100E000088130000001002402C230008200000205E
:100E10001800002070B51A4AD3681A490C201840EF
:100E20008D0004280CD04E00082810D00C2810D0BB
:100E300050680004410F0120C003491C884070BD68
:100E40001068C00601D5084670BD284670BD304602
:100E500070BD98020C4C000F205C1B029C0FD368E5
:100E6000641CDB0301D5314603E01268D20600D4CE
:100E7000294601F02DF922460023FFF7ADF970BD98
:100E80000010024000093D003C230008FEB50500AB
:100E90007ED0F74CE7680C20E6680740012000048C
:100EA00006402878C00747D0082F05D00C2F0AD15C
:100EB00001200004864206D1206880033CD5686882
:100EC0000028E5D038E0012069680004814203D1A0
:100ED00021680143216011E0052301221B049204D3
:100EE0009942216802D111432160F1E781432160D9
:100EF00021680140009120689043206068680028C4
:100F00000DD0FFF73BFC009005E0FFF737FC0099A0
:100F1000401A64287ED820688003F6D50CE0FFF7DD
:100F20002DFC009005E0FFF729FC0099401A642889
:100F3000F0D820688003F6D4287880075DD5E8686B
:100F4000810604D5226820210A43226088430923B0
:100F5000042F0DD00C2F01D1002E09D000283CD039
:100F60002168994301432160FFF708FC064628E009
:100F70002168490701D500288AD061681F22120222
:100F800091432A691202114361602168994300E08C
:100F900091E101432160FFF73DFFE16809060A0F77
:100FA000B449895CC840B4490860B4480068FFF798
:100FB0007DFD002874D120E0FFF7E0FB801B0228B4
:100FC000A8D820684007F7D560681F210902884328
:100FD00029690902084360600FE02068400840006A
:100FE0002060FFF7CBFB064604E0FFF7C7FB801B42
:100FF00002288FD820684007F7D42878C00661D52A
:10100000002F0DD0A86900284BD02068FF210131A6
:10101000084300E0C6E02060FFF7B0FB06462DE085
:101020002068800502D5A8690028A5D0606807213E
:1010300049038843296A084360606068297F000289
:10104000000A090608436060286A410B0120C003BA
:10105000491C8840E16809060A0F8649895CC84036
:101060008549086085480068FFF720FD002817D1F2
:1010700028E0FFF783FB801B0228A1D820688005A9
:10108000F7D56068072149038843296A08436060EF
:101090006068297F0002000A09060843606011E0C9
:1010A000E1E02168FF20013081432160FFF766FB0A
:1010B000064604E0FFF762FB801B022872D8206816
:1010C0008005F7D428786E4E000724D5686900287B
:1010D000306910D0012108433061FFF74FFB0090C9
:1010E00005E0FFF74BFB0099401A02285AD83069F7
:1010F0008007F6D50FE0400840003061FFF73EFB67
:10110000009005E0FFF73AFB0099401A022849D801
:1011100030698007F6D42878400765D50020029012
:10112000A06BC00006D4A06B012109070843A0638F
:101130000120029053480168C90511D40168821545
:1011400011430160FFF71AFB009005E0FFF716FB63
:101150000099401A642825D84A480068C005F5D58A
:10116000FF20AA680130824203D131690143316115
:1011700011E001218902002A07D005231B029A42AF
:1011800003D132690A433261EFE732698243326147
:10119000306988433061A86800280FD0FFF7EEFA65
:1011A000009007E05EE0FFF7E9FA0099411A36483F
:1011B000814257D830698005F5D50DE0FFF7DEFA9A
:1011C000009006E0FFF7DAFA0099411A2E488142B2
:1011D00048D830698005F5D40298002804D0A06B67
:1011E000012109078843A063686A002865D00C2F95
:1011F0004CD0012636060228206805D0B043206076
:10120000FFF7BCFA05462FE0B0432060FFF7B6FABF
:10121000074604E0FFF7B2FAC01B022822D8206874
:101220008001F7D4E96AA86AE2680843296BFD23C4
:101230001B049A4311430843E06020683043206058
:10124000FFF79CFA054604E0FFF798FA401B0228D6
:1012500008D820688001F7D52FE0FFF78FFA401BF0
:10126000022801D90320FEBD20688001F5D424E0C6
:10127000001002402C23000820000020180000204D
:101280004010024000700040881300000128EAD09E
:10129000E06801210904AA6A014091420BD10F21A3
:1012A0008904EA6A0140914205D103218905084079
:1012B000296B884201D00120FEBD0020FEBD10B583
:1012C00000680B464068C021C94301400002000E7F
:1012D000CC04D870E40E5C708C06A40E0904490F8F
:1012E0009C701970002A0AD100F094FBD8705878CD
:1012F00000F090FB5870987800F08CFB98700020FC
:1013000010BD000030B50B460168896A596001685C
:1013100009694904490C9960006804680F4821462E
:10132000014088024D04800E18706D0E49065D70F4
:10133000490E99706102490E40242140D970002A5B
:101340000AD100F067FB1870587800F063FB587002
:10135000987800F05FFB9870002030BD7F7F7F00A1
:10136000F8B5040050D0254620356878002803D110
:101370002870204600F052F8022068702168CA20C8
:101380004862216853204862204600F057FBFF2640
:1013900004270028206802D046626F7034E081681C
:1013A0001D4A11408160216888686268A369104302
:1013B00022691A43104388602168E0680861206848
:1013C000016922891204114301612068C1688022E9
:1013D0009143C1602068C16C89088900C164E169DA
:1013E000606901432068C26C1143C1642068806851
:1013F00080060BD4204600F0F7F8002806D02068BD
:1014000046626F70002028700120F8BD2068466297
:10141000012068700020F8BDBFFF8FFF00680549FC
:10142000884205D1044801690122920411430161F7
:10143000704700000028004040100240F8B5054603
:101440000446203528780B4601280FD0012028704B
:1014500002206870002A0BD0D8789E7800040643DA
:101460005878097800024903084317E00220F8BDC4
:101470005878C10603D5EF2108400A305870D87853
:1014800000F0D0FA0604587800F0CCFA00020643C7
:10149000987800F0C7FA064318784003064321689D
:1014A000CA204862216853204862204600F0C6FAEC
:1014B0000027002811D111480640206846602068A6
:1014C000C16880229143C1602068806880060CD486
:1014D000204600F089F8002807D02168FF204862E4
:1014E000042068702F700120F8BD2168FF20486239
:1014F000012068702F700020F8BD00003FFFFF0042
:10150000F8B506460446203630780D46012822D02C
:101510000120307002207070206800278068002A47
:101520001BD0400600D4EF702978A878090408433E
:101530006978EA780902120411430843009021688F
:10154000CA204862216853204862204600F076FA9B
:10155000002837D116E00220F8BD400600D4EF7015
:10156000287800F05FFA0304687800F05BFA000264
:101570000343A87800F056FA0343E87800040343D5
:101580000093DCE71749009808402168086020684C
:10159000816801229204914381602969E8680843C7
:1015A00021688A68104388602068C168802291435E
:1015B000C1602068806880060CD4204600F014F8D2
:1015C000002807D02168FF2048620420707037701F
:1015D0000120F8BD2168FF2048620120707037703B
:1015E0000020F8BD7F7F7F0070B504460068C168A9
:1015F000A0229143C160FFF7C1F87D260546F600A1
:1016000006E0FFF7BBF8401BB04201D9032070BDD4
:101610002068C0688006F4D5002070BD094910B567
:10162000401E884201D9012010BD074C6061032192
:10163000081F00F073FD0020A0610720206100203A
:1016400010BD0000FFFFFF0000E000E0FEE70168C2
:101650008A69D243920701D400228A6200688169B4
:10166000C943C90703D081690122114381617047D1
:10167000F7B5044600680F468169C943C90636D4E8
:101680004168890104D441680122920311434160F9
:1016900000262546403520688069C043800612D563
:1016A000781CF8D0FFF76AF80299401AB84201D8BE
:1016B000002FF0D1616C2020014361646870AE702E
:1016C0002E700120FEBD21681020C86120682027EF
:1016D000C7612046FFF7BBFF20684168054A1140FB
:1016E0004160606C0421084360646F70E7E700208C
:1016F000FEBD000000E800FEF8B504461646154899
:101700001D46DAB2C3020090079F204600F024F87D
:101710003A462046069900F080F8002818D128465D
:10172000F5B2012809D02168300A88623A4620467D
:10173000069900F072F800280AD1206885620097A7
:10174000002280212046069B00F01AF8002800D0D5
:101750000120F8BD00200080F0B50668059C756882
:10176000064F600D384385438805800D11040843FA
:101770001843204305437560F0BD0000FF63FF037D
:10178000F8B51D4617460E46044609E0681C07D00A
:10179000FEF7F4FF0699401AA8420BD8002D09D095
:1017A00020688169304688430FD00020B842EDD0D0
:1017B0000020F8BD616C20200143616440346070FA
:1017C0000020A07020700120F8BD0120EEE770B568
:1017D00016460D4604460FE0324629462046FFF7DE
:1017E00047FF002801D0012070BDFEF7C7FF801B16
:1017F000A84208D8002D06D020688069C043800622
:10180000EAD4002070BD616C202001436164403443
:1018100060700020A0702070E5E770B516460D4698
:10182000044611E0324629462046FFF721FF0028F2
:1018300001D0012070BD681C06D0FEF79FFF801B01
:10184000A84208D8002D06D020688069C0438007D0
:10185000E8D4002070BD616C2020014361644034F5
:1018600060700020A0702070E3E70000F0B587B042
:1018700014216846FEF76EFD2E48C16A04252943EF
:10188000C162C16A29400591C16A01221143C16246
:10189000C16A11400591C16A02263143C162C06A22
:1018A000002230400590052040210007FEF75FFF31
:1018B00003208003032700240090694601970294C7
:1018C0001D48FEF77FFE052001946946000700973A
:1018D0000294FEF777FE312000040190052069464E
:1018E000009502940007FEF76DFEB82000900520D9
:1018F0006946019702940007FEF764FE40200090BD
:101900000120019005200294694603940007FEF728
:1019100059FE69460948019700960294FEF752FE67
:10192000002211460620FFF7FBF80620FFF7ECF82F
:1019300007B0F0BD00100240000800500004005045
:1019400010B51348114901600021416081600161B7
:10195000416181610122C161C2600162FEF75EFFE7
:10196000002801D0FEF7E0FD00210948FEF70CFF3A
:10197000002801D0FEF7D8FD00210548FEF729FF19
:10198000002801D0FEF7D0FD10BD0000005400403B
:101990003800002010B586B014216846FEF7DAFC46
:1019A000002419491948059412C07F210160846000
:1019B000C4600461FF21446141600838FFF7D0FC36
:1019C000002801D0FEF7B0FD6846047044708470B2
:1019D0000394002269460D480494FFF791FD002806
:1019E00001D0FEF7A1FD012069460875487588758C
:1019F000CC75002205A90548FFF720FD002801D07D
:101A0000FEF792FD06B010BD0028004084000020C3
:101A1000FEE7704701090A2200075143000F4018F2
:101A2000C0B270470022014602E00A39C9B2521C16
:101A30000A29FAD21007000E0843704770B5044611
:101A40000068C168490613D40021C943C160FEF78C
:101A500095FE7D260546F60006E0FEF78FFE401B4C
:101A6000B04201D9032070BD2068C0684006F4D59B
:101A7000002070BDF8B5FE48017800297ED1012410
:101A800005462C706878A87000F0E7FA6878FF25A2
:101A90007E213C270026F535030000F031FB0D08C0
:101AA0000B305357A8B7E2FEFDFC0AFB0A0000F01A
:101AB000D4FA9DE100252046A840C043C1B20320CE
:101AC00000F0F2FA1920FEF731FD6D1CEDB2082D81
:101AD000F1D3FF21032000F0E7FA00252046A840BB
:101AE000C043C1B2022000F0DFFA1920FEF71EFD4C
:101AF0006D1CEDB2082DF1D3FF2102201FE0072558
:101B00002046A840C043C1B2022000F0CDFA1920FF
:101B1000FEF70CFD6D1EF3D5FF21022000F0C4FA84
:101B200007252046A840C043C1B2032000F0BCFAFC
:101B30001920FEF7FBFC6D1EF3D5FF21032000F0FA
:101B4000B3FA55E100F093FAFA2087E00025204629
:101B5000A840C743F9B2022000F0A6FAF9B2032068
:101B600000F0A2FA4B20FEF7E1FC6D1CEDB2082D4F
:101B7000EDD300F072FA0025204600E03FE1A840D6
:101B8000C743F9B2022000F08FFAF9B2032000F047
:101B90008BFA4B20FEF7CAFC6D1CEDB2082DEBD37F
:101BA00000F05BFA07252046A840C743F9B202209F
:101BB00000F07AFAF9B2032000F076FA1920FEF765
:101BC000B5FC6D1EEFD500F048FA07252046A84069
:101BD000C743F9B2022000F067FAF9B2032000F01F
:101BE00063FA1920FEF7A2FC6D1EEFD55FE7002413
:101BF00000F03DFA2846FEF799FC00F02EFA284640
:101C0000FEF794FC641C032CF2DBF1E00C4602208E
:101C100000F04AFA2146032000F046FAFA20FEF7C7
:101C200085FC3946022000F03FFA3946032000F0D7
:101C30003BFAFA20FEF77AFC18242146022000F035
:101C400033FA2146032000F02FFAFA20FEF76EFC4B
:101C50003146022000F028FA314613E1FEF766FC17
:101C6000C6E00C46022000F01FFA2146032000F0D7
:101C70001BFAFA20FEF75AFC3946022000F014FA4B
:101C80003946032000F010FAFA20FEF74FFC182422
:101C9000214603E0FBE0B3E07AE044E0022000F0FC
:101CA00003FA2146032000F0FFF9FA20FEF73EFC7C
:101CB0003146022000F0F8F93146032000F0F4F933
:101CC0006C4C2046FEF732FC81252946022000F0AC
:101CD000EBF92946032000F0E7F9FA20FEF726FC8D
:101CE000C3252946022000F0DFF92946032000F031
:101CF000DBF9FA20FEF71AFCE7252946022000F05E
:101D0000D3F92946032000F0CFF9FA20FEF70EFCA4
:101D1000FF252946022000F0C7F92946032000F0DC
:101D2000C3F920469AE7F0250F2700242946022010
:101D300000F0BAF93946032000F0B6F9FA20FEF7B0
:101D4000F5FB3946022000F0AFF92946032000F0E8
:101D5000ABF9FA20FEF7EAFBFF210025022000F094
:101D6000A3F92946032000F09FF9FA20FEF7DEFBD5
:101D7000FF272946022000F097F93946032000F09A
:101D800093F9FA20FEF7D2FB641C032CCEDB2FE084
:101D9000002707252046A8406A1E21469140084397
:101DA000C043C1B2022000F07FF93220FEF7BEFB33
:101DB000AD1E012DEEDAFF21022000F075F9072596
:101DC0002046A840691E22468A401043C043C1B243
:101DD000032000F069F93220FEF7A8FBAD1E012DAB
:101DE000EEDAFF21032000F05FF97F1C052FD0DB26
:101DF000002000F091F81E48067000F02EF9F8BDA2
:101E000000F035F97D20C000FEF790FB0F20F02791
:101E1000002400900220009900F046F93946032082
:101E200000F042F92846FEF781FB00F020F9284631
:101E3000FEF77CFB641C032CECDBFE214F2402200C
:101E400000F032F92146032000F02EF97D252D0106
:101E50002846FEF76BFBFF216F24022000F024F9D7
:101E60002146032000F020F92846FEF75FFB03E03F
:101E700000000020EE020000FE21EF24022000F00E
:101E800013F92146032000F00FF92846E6E6002565
:101E90002046A840C043C1B2022000F005F9E81F67
:101EA00000D5404221468140C843C1B2032000F022
:101EB000FBF89620FEF73AFB6D1C082DE8DB0725A2
:101EC0002046A840C043C1B2022000F0EDF8E81F50
:101ED00000D5404221468140C843C1B2032000F0F2
:101EE000E3F89620FEF722FB6D1EE9D500F0B5F869
:101EF0009620FEF71BFB00F0BAF87D20C000ADE68F
:101F000070470000034800210170417081700A2170
:101F1000C17070470000002002494A788A704870FA
:101F2000704700000000002010B5FEF7A3FD10BDB3
:101F300010B598B034216846FEF70CFA14210DA8AC
:101F4000FEF708FA182112A8FEF704FA1A480168E9
:101F50000322D2029143C214891801601820009014
:101F600001200590069000248003089007940994AE
:101F70006846FEF78BFF002801D072B6FEE70F20FF
:101F80000D900E940F941094002111940DA8FEF75B
:101F900073FE002801D072B6FEE7282012900120BF
:101FA00040041390169412A8FEF7BEFD002801D03D
:101FB00072B6FEE718B010BD0070004070B5204D3D
:101FC000E8680C211F4C084018D004281FD00828AE
:101FD00024D0E868E96880021B4A000F105C0902FF
:101FE000EA68890F01231B04491C1A4204D12A689C
:101FF000D20615D5154A14E0154A12E06868012189
:102000000004400FC903401C814021600DE0286896
:10201000C00601D50D4807E00E4805E00C4803E076
:102020000C4A5043FEF798F92060E868064900061C
:10203000000F1039085C2168C140216070BD0000AC
:1020400000100240200000203C23000800093D0051
:1020500000127A000024F400704710B5FF2102201E
:1020600000F022F8FF21032000F01EF810BD10B58B
:102070000021022000F018F80021032000F014F8DD
:1020800010BD10B500F003F800F007F810BD10B552
:102090000021062000F008F810BD10B5002107202F
:1020A00000F002F810BD000003B583B00023DB434D
:1020B0000122029304A90192134600910246402195
:1020C0000248FEF705FC05B000BD00003800002006
:1020D000F8B5040C8BB2264682B25E430D0C104656
:1020E000370C5843360480190021794116466E4357
:1020F000370C36048019794126466E438919F8BD9C
:1021000030B47446641E2578641CAB4200D21D4670
:10211000635D5B00E31830BC184700008307FF22B3
:10212000DB0E9A408907090E9940002808DB8308D6
:1021300009489B001B1818689043084318607047B3
:102140000007000F0838830804489B001B18D86953
:1021500090430843D861704700E400E000ED00E0E0
:102160006E4D0224AC70FEF78DFCFFF7E1FEFFF729
:102170007DFBFFF7E5FBFFF70DFCAC70FFF71EFFE3
:10218000FFF77FFFFFF769FFFFF7BCFE0C20FFF7AB
:10219000C3FEFFF76FFC0420A870687800270028B2
:1021A0007ED06F705E49686888427BD90320A87032
:1021B00000225C495C48FFF7A5F8294600220C3153
:1021C0005948FFF77CF801240026FFF746FFFE215F
:1021D0002CE06878002860D06F70FF216868F531C6
:1021E000884227D2641CE4B2002E0AD0012E0BD004
:1021F000022E0CD0032E0DD0042E0FD0052E10D0A1
:1022000012E0202C08D00FE00D2C05D00CE0642C3F
:1022100002D009E0082C07D1012405E0182C02D0D7
:1022200002E03D2C00D10024FF20011B0220FFF71B
:102230003BFF32E07D21090188422ED9002E0AD0D1
:10224000012E0CD0022E0ED0032E11D0042E12D04F
:10225000052E39D012E031480C30847006E02F484A
:102260000C30447002E02D480C30C470012405E0AD
:102270002A480C3000E02B4804700024FFF7F7FEDA
:10228000FF20F530FEF752F9FFF7E7FEFF20011BB4
:102290000220FFF709FF761CF6B2A878032800E0B9
:1022A00000E096D01D4E1F4C0C3600221D491E48E2
:1022B000FFF728F8194900220C311B48FEF7FFFFF1
:1022C0006078012814D01EE0164800224470877000
:1022D000014647601448FFF713F9104900220C31FA
:1022E0001148FFF7ABF80520A870FFF7B6FED9E755
:1022F000A078072807D1B0780D2804D10520FFF772
:102300000BFEFFF7B7FB68780028CED06F70287AF5
:10231000FFF702FEFFF7AEFBC7E700000400002056
:10232000DC050000240000208400002000000000E4
:102330000000000001020304060708090304060860
:102340000C10182030000000682300080000002056
:1023500024000000040100088C2300082400002051
:10236000CC07000020010008000000000000000071
:10237000000000000000000000000000010000005C
:0C2380000400000000000000000020002D
:04000005080000C12E
:00000001FF
