:020000040800F2
:1000000090040020D9000008711600084113000870
:1000100000000000000000000000000000000000E0
:10002000000000000000000000000000751600083D
:10003000000000000000000073160008771600089A
:10004000EB000008EB000008EB000008EB000008E4
:10005000EB000008EB000008EB000008EB000008D4
:1000600000000000EB000008EB000008EB000008B7
:10007000EB000008EB00000800000000EB000008A7
:100080000000000000000000000000000000000070
:10009000EB00000800000000EB000008EB00000887
:1000A00000000000EB00000800000000000000005D
:1000B000EB000008EB00000800000000000000005A
:1000C0000448854600F0E2F900480047CD170008D3
:1000D000C046C046900400200448804704480047BA
:1000E000FEE7FEE7FEE7FEE7FEE7FEE7091700088A
:1000F000C100000830B50B46014600202022012433
:1001000009E00D46D5409D4205D31D469540491B4B
:100110002546954040191546521E002DF1DC30BD94
:10012000F0B51FB40646002082B005464024019178
:1001300000901BE0019922460F46304600F036F948
:10014000049A059B801A994110D3104619462246FD
:1001500000F01CF9361A8F41019722460120002138
:10016000009F00F013F938184D4100902046641E9E
:100170000028DFDC019B00982946324607B0F0BD1D
:10018000D2B201E00270401C491EFBD2704700222F
:10019000F6E710B513460A4604461946FFF7F0FF86
:1001A000204610BDF0B51FB488B00B990998002403
:1001B00048400999C00F490049080991C0070B99A7
:1001C0000090490049080B9109990898A6460843F0
:1001D0001CD00B990A98084318D0099801244000B4
:1001E000420D4800410D099824050003000B2043EF
:1001F00009900B980003000B20430B9050181C49EA
:100200004018002201901446104605E000200146E7
:100210000DB0F0BD032801DA034600E003239C463D
:10022000C11A0AAE0AE05F0008ADED5B4F00F75B54
:100230007D430027AA187C41491C5B1E6145F2DD05
:10024000410004AB5A522104120C0A43240C401CF6
:100250000828DFDB01980290009970460191009018
:10026000059B049A0799069800F0BEF8D0E70000B5
:100270000DFCFFFFF0B50C465C4085B0E40FE407D1
:1002800003944C000026640859009446490802462D
:100290000296224321D062460A431ED06200570DC7
:1002A0004A000E032303550D012402462C49240560
:1002B000781B1B0B360B40182343264361460090E6
:1002C0001C46501AB44103D30098401C009002E031
:1002D000921800985B41002803DA0020014605B01F
:1002E000F0BD0020012109050746864611E064465D
:1002F0001D46141BB54106D36546521BB3417446D7
:1003000007430C43A646CD074008490828439218E6
:100310005B4105460D43EAD11046184313D06046B1
:10032000194650407140084306D06046101AB34148
:1003300006D20122002306E000220123DB0702E0AF
:100340000122D2435310009874460105381C6141C4
:10035000029C039D0019694100F039F8BFE70000D5
:10036000FD0300000EB5C217C10F5040CA07401868
:100370000021054B0293019200910A460B4600F0C2
:1003800033F803B000BD00003304000010B5202A8C
:1003900004DB0146203A9140002010BD914020230B
:1003A0009C1A0346E3401943904010BD10B5202A23
:1003B00004DB0846203AD040002110BD0B46D34054
:1003C000D0402024A21A91400843194610BD10B510
:1003D000002B08DA0024401C614192185B411A434B
:1003E00001D14008400010BDF0B51FB482B00546F1
:1003F0000C0003D0084601F088F902E001F085F90D
:1004000020300246009021462846FFF7BFFF049B9C
:10041000059A04460F4618431143084314D0184662
:1004200010431BD0009840210A1A18460599FFF77F
:10043000BDFF05460E46009A05990498FFF7A6FFF2
:10044000084305D0012004E02046394607B0F0BD3E
:100450000020C11705430E432C43374300990E98E3
:100460006305401A7905E40A00220C43FD0A0A30AC
:1004700002D500200146E9E70105101969410C9CED
:100480000D9D00196941FFF7A2FFDFE7064C01252A
:10049000064E05E0E36807CC2B430C3C984710342C
:1004A000B442F7D3FFF710FE2C1E00084C1E0008C4
:1004B00072B6FEE770B5044600F0EAF80546601C27
:1004C00002D004480078241800F0E2F8401BA04253
:1004D000FAD370BD30000020F8B5002303240125B5
:1004E000B8E032462E469E40B446324079D00E796E
:1004F000B607B60F012E01D0022E17D18668274607
:10050000B6465E00B74000967646BE43B646CF6814
:10051000009EB74076463743876046686746BE43CD
:100520000F79FF06FF0F9F40374347600E79F64370
:10053000B6070ED0C6682746B4465E00B646B7403A
:100540006646BE43B4468F687646B7406646374334
:10055000C7600E79B607B60F022E14D1DE08B600BA
:1005600036180096366A5F07B446FE0E0F27B64669
:10057000B7406646BE43B4460F697646B740664606
:100580003743009E376206682746B4465E00B6468B
:10059000B7406646BE430F79B446BF07BF0F7646E5
:1005A000B7406646374307604E68B603B60F50D073
:1005B0002B4F7E6B2E437E639F082A4EBF00BE19D1
:1005C0000096B6680F27B4469E07360FB646B7406A
:1005D0006646BE4305273F07B446B84202D100270E
:1005E00010E036E0204FB84201D101270AE01F4F4A
:1005F000B84201D1022705E01D4FB84201D10527BD
:1006000000E006277646B74066463743009EB7604F
:10061000184E36684F689643FF0300D51643154FB2
:100620003E607E684F689643BF0300D51643114F66
:100630007E60BE684F689643FF0200D516430D4F9B
:10064000BE60FE684F689643BF0200D51643094A54
:10065000D6605B1C0A681646DA4000D041E7F8BD58
:10066000001002400000014000040050000800504B
:10067000001C0050000401400069084000D0012027
:100680007047002A01D08161704781627047000085
:1006900001488068704700003000002070B50246B5
:1006A00040325378202B1CD11378012B19D0012311
:1006B000137024245470046825689D4325600468E1
:1006C00025681E03B5432560046825680D43256031
:1006D00000680168194301602020507000201070EC
:1006E00070BD022070BD70B5024640325378202B99
:1006F0001BD11378012B18D00124147024235370BC
:1007000003681D68A5431D6005682B680F26360227
:10071000B34309021943296000680168214301605D
:10072000202050700020107070BD022070BD0000AD
:1007300070B5040006D025464035687800260028AC
:1007400002D005E0012070BD2E70204600F09AF91D
:1007500024206870206801684908490001600F2161
:100760006068090688432168086121688A68012059
:10077000C00382438A60E1680129A16808D0212270
:100780009202114322689160E168022902D005E0DB
:100790000143F7E701212268C902516021684A68D4
:1007A0000F4B1A434A602168CA688243CA60616974
:1007B00020690843A169090208432168C860216AC9
:1007C000E06908432168086020680168012211433C
:1007D00001606664202068702663AE70002070BDE2
:1007E00000800002FFB5054604464035687883B0B6
:1007F000202875D10C98002814D00D98002811D00D
:10080000287801286CD001202870FFF741FF0746A7
:10081000012200901923D103204600F05BFE00283E
:1008200074D103E00120400260646FE02220687010
:100830004020A870002666640C9860620D98608560
:1008400066630E980090019704A90EC9204600F037
:10085000CDFD002801D02E7058E0618D3448FF296D
:1008600005D9FF22228501231B06009006E0618D39
:1008700021850090208D0123C2B25B062046049999
:1008800000F014FE00970022042120460E9B00F089
:1008900021FE00283AD12068406A616A0870606AC7
:1008A000401C6062208D401E81B22185608D401EFB
:1008B0006085608D00281FD000291DD1009700227F
:1008C000802120460E9B00F005FE00281ED1608D81
:1008D000FF2806D9FF22228501231B06009607E088
:1008E00024E0608D20850096208D0123C2B25B0636
:1008F0002046049900F0DAFD608D0028C2D13A4606
:1009000020460E9900F00DFE002802D0012007B00D
:10091000F0BD20682021C16120684268054B1A4063
:1009200042606970AE702E700020F0E70220EEE7A2
:100930000024008000E800FEFFB50546044640356F
:10094000687883B0202872D10C98002814D00D98B4
:10095000002811D02878012869D001202870FFF7DD
:1009600097FE0746012200901923D103204600F08C
:10097000B1FD002871D103E00120400260646CE009
:10098000212068704020A870002666640C98606280
:100990000D98608566630E980090019704A90EC9B2
:1009A000204600F053FD002801D02E7055E0608DE8
:1009B000FF2805D9FF22228501231B06009606E0A9
:1009C000608D20850096208D0123C2B25B062046F3
:1009D000049900F06BFD3A4620460E9900F0C7FDE1
:1009E00000283AD1606A216800788862606A401CF9
:1009F0006062608D401E6085208D401E80B2208523
:100A0000618D00291FD000281DD100970022802170
:100A100020460E9B00F05EFD00281ED1608DFF2851
:100A200006D9FF22228501231B06009607E024E059
:100A3000608D20850096208D0123C2B25B06204682
:100A4000049900F033FD608D0028C4D13A46204659
:100A50000E9900F066FD002802D0012007B0F0BD1D
:100A600020682021C16120684268054B1A4042601D
:100A70006970AE702E700020F0E70220EEE70000F3
:100A800000E800FE10B586B0044614216846FFF762
:100A90007EFB1049206888421AD10F4CE16A012080
:100AA0000143E162E16A029001400591032149029C
:100AB00000911221019103210490039105206946C0
:100AC0000007FFF709FDA06B012149050843A0635A
:100AD00006B010BD0054004000100240024881687A
:100AE00002788918816070473000002010B50848EE
:100AF00000240168402211430160204600F00AF8FA
:100B0000002801D0012401E000F026F8204610BDA5
:100B10000020024070B504460D4D7D202978C000AC
:100B2000FFF7E8FA01460B480068FFF7E3FA00F028
:100B3000EFFB002809D1042C07D200222146401ED9
:100B400000F016F800206C6070BD012070BD000040
:100B5000300000203C0000200448416B012211437A
:100B60004163816B020411438163704700100240AE
:100B700010B500F0F9FD10BDF8B504460078002767
:100B80004E4D800671D54D4E403EB06BC00004D432
:100B9000B06BA9050843B063012749480168C9053E
:100BA00011D40168821511430160FFF771FD0090B7
:100BB00005E0FFF76DFD0099401A642837D84048DA
:100BC0000068C005F5D532680321090560680A4050
:100BD0000140914208D08103890F032904D1316873
:100BE000890301D50120F8BD2A69032109040A40BF
:100BF00022D0084090421FD0207880061CD528695A
:100C00002A6988430121C9040A432A612A698A435F
:100C10002A612861C0050FD5FFF73AFD009008E072
:100C2000FFF736FD0099411A2648814201D9032079
:100C3000F8BD28698005F3D561688803800F032813
:100C400005D132680005824301400A4332602869B9
:100C5000032261681204114008432861002F04D068
:100C6000B16B012000078143B1632078800705D56F
:100C7000E8680C218843A1680843E86020784007B1
:100C800006D5E868032189028843E1680843E860E3
:100C90002078000706D5E868032109038843216905
:100CA0000843E8602078000606D5E8680321890437
:100CB000884361690843E8600020F8BD40100240A5
:100CC0000070004088130000F8B50E46050038D0CB
:100CD0005E480068C007C00FB04214D25B4C206869
:100CE0004008400030432060FFF7D2FC074605E093
:100CF000FFF7CEFCC11B564881427AD82068C00756
:100D0000C00FB042F4D12878524C800705D5E06876
:100D1000F0218843A9680843E0602878C00752D0D2
:100D20006868022806D0032807D0216801280AD065
:100D3000890504E02168890301E02168890100290F
:100D400003DB0120F8BD4907F9E7E168890889005C
:100D50000143E160FFF79CFC0746686802280AD05F
:100D6000032814D001281ED029E0FFF791FCC11BF5
:100D7000374881423DD8E0680007800F0228F4D14F
:100D800021E0FFF785FCC11B3148814231D8E06882
:100D90000007800F0328F4D115E0FFF779FCC11B91
:100DA0002B48814225D8E0680007800F0128F4D144
:100DB00009E0FFF76DFCC11B2548814219D8E068A6
:100DC0000007800FF5D121480168C907C90FB1425A
:100DD00017D901684908490031430160FFF758FC01
:100DE000074608E005E0FFF753FCC11B18488142A5
:100DF00001D90320F8BD15480068C007C00FB042F4
:100E0000F1D12878400706D5E06807210902884318
:100E1000E9680843E0602878000707D5E068072103
:100E2000C90288432969C9000843E06000F01AF844
:100E3000E168094A0906090F515CC8400749086082
:100E400007480068FFF766FEF8BD0000002002407A
:100E50008813000000100240101E00083C00002013
:100E60003400002070B51A4AD3681A490C20184083
:100E70008D0004280CD04E00082810D00C2810D06B
:100E800050680004410F0120C003491C884070BD18
:100E90001068C00601D5084670BD284670BD3046B2
:100EA00070BD98020C4C000F205C1B029C0FD36895
:100EB000641CDB0301D5314603E01268D20600D47E
:100EC000294600F039FC22460023FFF729F970BDBE
:100ED0000010024000093D00201E0008FEB505007C
:100EE0007ED0F74CE7680C20E6680740012000043C
:100EF00006402878C00747D0082F05D00C2F0AD10C
:100F000001200004864206D1206880033CD5686831
:100F10000028E5D038E0012069680004814203D14F
:100F200021680143216011E0052301221B04920482
:100F30009942216802D111432160F1E78143216088
:100F40002168014000912068904320606868002873
:100F50000DD0FFF79DFB009005E0FFF799FB00998E
:100F6000401A64287ED820688003F6D50CE0FFF78D
:100F70008FFB009005E0FFF78BFB0099401A642877
:100F8000F0D820688003F6D4287880075DD5E8681B
:100F9000810604D5226820210A4322608843092360
:100FA000042F0DD00C2F01D1002E09D000283CD0E9
:100FB0002168994301432160FFF76AFB064628E058
:100FC0002168490701D500288AD061681F221202D2
:100FD00091432A691202114361602168994300E03C
:100FE00091E101432160FFF73DFFE16809060A0F27
:100FF000B449895CC840B4490860B4480068FFF748
:1010000089FD002874D120E0FFF742FB801B0228F5
:10101000A8D820684007F7D560681F2109028843D7
:1010200029690902084360600FE020684008400019
:101030002060FFF72DFB064604E0FFF729FB801B2D
:1010400002288FD820684007F7D42878C00661D5D9
:10105000002F0DD0A86900284BD02068FF21013156
:10106000084300E0C6E02060FFF712FB06462DE0D3
:101070002068800502D5A8690028A5D060680721EE
:1010800049038843296A084360606068297F000239
:10109000000A090608436060286A410B0120C0036A
:1010A000491C8840E16809060A0F8649895CC840E6
:1010B0008549086085480068FFF72CFD002817D196
:1010C00028E0FFF7E5FA801B0228A1D820688005F8
:1010D000F7D56068072149038843296A084360609F
:1010E0006068297F0002000A09060843606011E079
:1010F000E1E02168FF20013081432160FFF7C8FA59
:10110000064604E0FFF7C4FA801B022872D8206864
:101110008005F7D428786E4E000724D5686900282A
:10112000306910D0012108433061FFF7B1FA009017
:1011300005E0FFF7ADFA0099401A02285AD8306945
:101140008007F6D50FE0400840003061FFF7A0FAB5
:10115000009005E0FFF79CFA0099401A022849D850
:1011600030698007F6D42878400765D500200290C2
:10117000A06BC00006D4A06B012109070843A0633F
:101180000120029053480168C90511D401688215F5
:1011900011430160FFF77CFA009005E0FFF778FA51
:1011A0000099401A642825D84A480068C005F5D53A
:1011B000FF20AA680130824203D1316901433161C5
:1011C00011E001218902002A07D005231B029A425F
:1011D00003D132690A433261EFE7326982433261F7
:1011E000306988433061A86800280FD0FFF750FAB3
:1011F000009007E05EE0FFF74BFA0099411A36488D
:10120000814257D830698005F5D50DE0FFF740FAE7
:10121000009006E0FFF73CFA0099411A2E488142FF
:1012200048D830698005F5D40298002804D0A06B16
:10123000012109078843A063686A002865D00C2F44
:101240004CD0012636060228206805D0B043206025
:10125000FFF71EFA05462FE0B0432060FFF718FAAB
:10126000074604E0FFF714FAC01B022822D82068C2
:101270008001F7D4E96AA86AE2680843296BFD2374
:101280001B049A4311430843E06020683043206008
:10129000FFF7FEF9054604E0FFF7FAF9401B0228C4
:1012A00008D820688001F7D52FE0FFF7F1F9401B3F
:1012B000022801D90320FEBD20688001F5D424E076
:1012C00000100240101E00083C00002034000020E6
:1012D0004010024000700040881300000128EAD04E
:1012E000E06801210904AA6A014091420BD10F2153
:1012F0008904EA6A0140914205D103218905084029
:10130000296B884201D00120FEBD0020FEBD0000F7
:10131000094910B5401E884201D9012010BD074C73
:1013200060610321081F00F01FFA0020A061072060
:101330002061002010BD0000FFFFFF0000E000E082
:10134000FEE701688A69D243920701D400228A62CB
:1013500000688169C943C90703D08169012211432B
:1013600081617047F7B5044600680F468169C9433B
:10137000C90636D44168890104D441680122920328
:101380001143416000262546403520688069C043EE
:10139000800612D5781CF8D0FFF77AF90299401A26
:1013A000B84201D8002FF0D1616C20200143616464
:1013B0006870AE702E700120FEBD21681020C861DB
:1013C00020682027C7612046FFF7BBFF20684168DF
:1013D000054A11404160606C0421084360646F70ED
:1013E000E7E70020FEBD000000E800FEF8B5044677
:1013F000164615481D46DAB20090079F0023204686
:1014000000F054F83A462046069900F0B0F800285B
:1014100018D12846F5B2012809D02168300A88621F
:101420003A462046069900F0A2F800280AD1206822
:1014300085620097002240212046069B00F04AF872
:10144000002800D00120F8BD00200080F8B5044637
:10145000164615481D46DAB2C3020090079F204683
:1014600000F024F83A462046069900F080F800285B
:1014700018D12846F5B2012809D02168300A8862BF
:101480003A462046069900F072F800280AD12068F2
:1014900085620097002280212046069B00F01AF802
:1014A000002800D00120F8BD00200080F0B50668BB
:1014B000059C7568064F600D384385438805800D8F
:1014C000110408431843204305437560F0BD000034
:1014D000FF63FF03F8B51D4617460E46044609E0B4
:1014E000681C07D0FFF7D4F80699401AA8420BD819
:1014F000002D09D020688169304688430FD0002034
:10150000B842EDD00020F8BD616C20200143616439
:10151000403460700020A07020700120F8BD0120D0
:10152000EEE770B516460D4604460FE032462946F2
:101530002046FFF717FF002801D0012070BDFFF7FC
:10154000A7F8801BA84208D8002D06D02068806923
:10155000C0438006EAD4002070BD616C20200143A6
:101560006164403460700020A0702070E5E770B5C1
:1015700016460D46044611E0324629462046FFF73E
:10158000F1FE002801D0012070BD681C06D0FFF7D5
:101590007FF8801BA84208D8002D06D020688069FB
:1015A000C0438007E8D4002070BD616C2020014357
:1015B0006164403460700020A0702070E3E7000098
:1015C00070B586B014216846FEF7E1FD1148C16A86
:1015D00001252943C162C06A0526284036070590C7
:1015E000002220213046FFF74CF80620002400900E
:1015F0000194694602943046FEF76EFF2020009069
:1016000002946946019503943046FEF765FF06B0E3
:1016100070BD00000010024010B513481149016070
:1016200012494160002181600161416181610122B3
:10163000C161C2600162FFF77BF8002801D0FEF7AC
:1016400037FF00210848FFF729F8002801D0FEF7EE
:101650002FFF00210448FFF746F8002801D0FEF7CD
:1016600027FF10BD0054004040000020020200008F
:10167000FEE77047704710B5FFF730FA10BD000065
:1016800010B598B034216846FEF781FD14210DA8ED
:10169000FEF77DFD182112A8FEF779FD19480168B3
:1016A0000322D2029143C2148918016010200090D5
:1016B00001200690032000248003089007940994D9
:1016C0006846FFF70BFC002801D072B6FEE70F203A
:1016D0000D900E940F941094002111940DA8FFF713
:1016E000F3FA002801D072B6FEE708201290169493
:1016F00012A8FFF741FA002801D072B6FEE718B031
:1017000010BD00000070004070472021020C01D085
:1017100010211046020A01D010460839020901D0F2
:101720001046091F820801D01046891E420801D0C8
:10173000881E7047081A7047F8B5040C8BB226460D
:1017400082B25E430D0C1046370C584336048019A4
:101750000021794116466E43370C360480197941D1
:1017600026466E438919F8BD8307FF22DB0E9A4097
:101770008907090E9940002808DB830809489B0067
:101780001B18186890430843186070470007000F43
:101790000838830804489B001B18D8699043084305
:1017A000D861704700E400E000ED00E002E008C806
:1017B000121F08C1002AFAD170477047002001E0CB
:1017C00001C1121F002AFBD1704700001FB5FFF7AF
:1017D0008DF9FFF755FFFFF7F3FEFFF71DFFFF4FF2
:1017E00000207870451E01267C1C334606224021CD
:1017F000FB48019602950094FFF79EF8012307220B
:101800004021F748019602950094FFF795F8601E75
:10181000009001230F22312101960295F048FEF736
:10182000E1FF97207870012320223021EC480196B7
:1018300002950094FFF780F8382078700123232266
:101840003021E748019602950094FFF775F82A20A9
:101850007870012338223021E148019602950094E6
:10186000FFF76AF838207870012323223021DC4802
:10187000019602950094FFF75FF805207870012328
:101880003A223021D648019602950094FFF754F889
:101890000A20787001233B223021D148019602951D
:1018A0000094FFF749F8FF20787001233C22302193
:1018B000CB48019602950094FFF73EF8FF20787020
:1018C00001233D223021C648019602950094FFF77E
:1018D00033F8AEE0052004210007FEF7CDFE002816
:1018E0000CD1A878401CA8700120E870A8780528C1
:1018F00001D90020A870FA20FEF7DCFD00270126A0
:1019000003A8FF4300903346392231210297019604
:10191000B348FEF767FF6846007B800601D5FF20CD
:101920002871AE480123401D0090282231210297E2
:101930000196AB48FEF756FFA8480123801D009092
:101940002922312102970196A548FEF74BFFA8797D
:10195000697900024018A8810C20285EFEF702FD7C
:101960000022A04BFEF786FC00229F4BFEF71AFCDC
:10197000A861E96199480123C01D00902A22312104
:10198000029701969648FEF72DFF944801230830F0
:1019900000902B223121029701969148FEF722FFF9
:1019A000287AE97900024018E8810E20285EFEF7C7
:1019B000D9FC00228B4BFEF75DFC00228A4BFEF720
:1019C000F1FB2862696285480123093000902C22CE
:1019D0003121029701968248FEF704FF7F480123D8
:1019E0000A3000902D223121029701967C48FEF7A3
:1019F000F9FEA87A697A0002401828821020285E31
:101A0000FEF7B0FC0022774BFEF734FC0022764B49
:101A1000FEF7C8FBA862E962FF20F530FEF74AFD39
:101A2000A878401CA870A878052801D90020A870C3
:101A3000EE706A4DE878002800D14BE7DEE1A87827
:101A4000002806D0A878012815D0A878022858D0F8
:101A50009CE0FF20687000260127F6433B460222E7
:101A600040215F48019702960094FEF765FF0197B9
:101A70000296009484E0002601273846B040C04317
:101A800068700020C0430290012303224021019787
:101A900000945348FEF750FF1920FEF70BFD761C0B
:101AA000F6B2082EE9D3FF2068700020C0430290F0
:101AB000012303224021019700944948FEF73CFF8F
:101AC00000263846B040C04368700020C0430290F2
:101AD000012302224021019700944148FEF72CFF88
:101AE0001920FEF7E7FC761CF6B2082EE9D3FF209A
:101AF00068700020C04301230222019700940290E5
:101B000040E0072601273846B040C04368700020F7
:101B1000C0430290012302224021019700943048E3
:101B2000FEF70AFF1920FEF7C5FC761EEBD5FF2055
:101B300068700020C04302900123022240210197D7
:101B400000942748FEF7F8FE07263846B040C04309
:101B500068700020C04302900123032240210197B6
:101B600000941F48FEF7E8FE1920FEF7A3FC761E3E
:101B7000EBD5FF2068700020C043019700940290CD
:101B80000123032240211648FEF7D6FEA878032839
:101B900015D100206870461E01273B4602224021D5
:101BA0000F48019702960094FEF7C6FE0123032218
:101BB00040210B48019702960094FEF7BDFE0748AE
:101BC000807804287ED10027461F01252846B8408A
:101BD0000249C04348700123022207E000000020B0
:101BE000400000200040EF4000004840402186486F
:101BF000029601950094FEF79FFE012303224021E7
:101C00008148029601950094FEF796FE4B20FEF760
:101C100051FC7F1CFFB2082FD8D37C48FF214170B4
:101C20000123022240217848029601950094FEF794
:101C300083FE0123032240217348029601950094FC
:101C4000FEF77AFE00272846B8407049C043487026
:101C50000123022240216C48029601950094FEF770
:101C60006BFE0123032240216748029601950094F0
:101C7000FEF762FE4B20FEF71DFC7F1CFFB2082F13
:101C8000E1D36249FF2048700123022240215E48CF
:101C9000029601950094FEF74FFE01230322402196
:101CA0005948029601950094FEF746FE07272846FC
:101CB000B8405649C043487001230222402152488F
:101CC000029600E058E001950094FEF735FE0123EE
:101CD000032240214C48029601950094FEF72CFE09
:101CE0001920FEF7E7FB7F1EE1D54849FF20487029
:101CF0000123022240214448029601950094FEF7F8
:101D00001BFE0123032240213F48029601950094C7
:101D1000FEF712FE07272846B8403C49C0434870EA
:101D20000123022240213848029601950094FEF7D3
:101D300003FE0123032240213348029601950094BB
:101D4000FEF7FAFD1920FEF7B5FB7F1EE3D52F49FC
:101D5000FF2048700123022240212B480296019562
:101D60000094FEF7E9FD0123032240212648029654
:101D700001950094FEF7E0FD2448807805283AD1CB
:101D80000027851F012621490020487001230222D7
:101D900040211D48019602950094FEF7CDFD0123D8
:101DA000032240211848019602950094FEF7C4FDD5
:101DB000FF20F530FEF77EFB1449FF204870012319
:101DC000022240211048019602950094FEF7B4FDCE
:101DD0000123032240210C48019602950094FEF74E
:101DE000ABFDFF20F530FEF765FB7F1C032FCADB40
:101DF00006490020887005490020C870034DE87826
:101E0000002800D115E61AE640000020000000205E
:101E1000000000000000000001020304060708099A
:101E2000030406080C101820300000004C1E0008A7
:101E30000000002040000000AC1700088C1E0008C5
:101E40004000002050040000BC1700080000000003
:101E50000000000000000000000000000000000082
:101E60000000000000000000000000000000000072
:101E70000000000000000000000000000100000061
:0C1E800004000000000000000000200032
:04000005080000C12E
:00000001FF
