:020000040800F2
:1000000018080020A1010008751F0008891B0008BE
:1000100000000000000000000000000000000000E0
:10002000000000000000000000000000C9240008DB
:1000300000000000000000009D1F0008F1240008DF
:10004000B3010008791F0008D91F0008B301000898
:10005000B3010008B301000853080008B301000809
:1000600000000000B3010008B3010008B30100085C
:10007000B3010008B301000800000000B30100084C
:100080000000000000000000000000000000000070
:10009000B301000800000000B3010008B30100082C
:1000A00000000000B3010008000000000000000094
:1000B000B3010008B30100080000000000000000C8
:1000C00000F002F800F040F80CA030C808382418FE
:1000D0002D18A246671EAB4654465D46AC4201D180
:1000E00000F032F87E460F3E0FCCB6460126334272
:1000F00000D0FB1AA246AB4633431847982F0000A6
:10010000B82F0000103A02D378C878C1FAD8520745
:1001100001D330C830C101D504680C6070470000BD
:100120000023002400250026103A01D378C1FBD813
:10013000520700D330C100D50B6070471FB500F0E7
:10014000E3F81FBD10B510BD00F022FB1146FFF70C
:10015000F5FF02F055FD00F03AFB03B4FFF7F2FFA4
:1001600003BC00F06FFB000030B40C490C684A6817
:1001700023681068C0181060241D121D8C4207D21D
:100180008A4208D20C604A6030BC40004008704788
:100190000C00DC3CF6E70A00DC3AF3E7AC01002097
:1001A0000748804707480047FEE7FEE7FEE7FEE70F
:1001B000FEE7FEE704480549054A064B7047000084
:1001C00085250008C100000818020020180800203A
:1001D0001804002018040020FEB5054610460C4601
:1001E000184373D0AE468C460020AD1A01469C41A0
:1001F00067D36646002701243D46B61A9D4102D3C7
:1002000013463A462124654676462F04360C3E4373
:100210002D0CB61A9D4104D3150C1B042B4312045C
:100220001034654676462F06360A3E432D0AB61A26
:100230009D4104D3150E1B022B4312020834654660
:1002400076462F0736093E432D09B61A9D4104D341
:10025000150F1B012B431201241D65467646AF077F
:10026000B6083E43AD08B61A9D4104D3950F9B00D6
:100270002B439200A41C65467646EF0776083E4362
:100280006D08B61A9D411AD392185B41641C16E0A2
:100290000018764665464941B71A9D410191009084
:1002A00009D36046B11A98418E4684460098019958
:1002B0000025401C6941DD0752082A435B08641E83
:1002C000E6D57246634603B0F0BDFFE70020014665
:1002D000C046C0462A462346F5E700000B4A30B523
:1002E00011460B4C60310B46DC3B0CC1372106E05C
:1002F000020C8D0012185A51064A504300190A4642
:10030000491E002AF4DC30BD0120E7E74C01002043
:10031000E119D666CD0D010001E004C0091F0429D2
:10032000FBD28B0701D50280801CC90700D0027068
:10033000704700290BD0C30702D00270401C491E31
:10034000022904D3830702D50280801C891EE3E7BB
:100350000022EEE70022DFE7002203098B422CD3C4
:10036000030A8B4211D300239C464EE003460B4305
:100370003CD4002243088B4231D303098B421CD367
:10038000030A8B4201D394463FE0C3098B4201D359
:10039000CB01C01A524183098B4201D38B01C01A91
:1003A000524143098B4201D34B01C01A5241030908
:1003B0008B4201D30B01C01A5241C3088B4201D3B7
:1003C000CB00C01A524183088B4201D38B00C01A64
:1003D000524143088B4201D34B00C01A5241411A8B
:1003E00000D201465241104670475DE0CA0F00D06E
:1003F0004942031000D34042534000229C46030967
:100400008B422DD3030A8B4212D3FC22890112BAEC
:10041000030A8B420CD3890192118B4208D38901C4
:1004200092118B4204D389013AD0921100E08909DC
:10043000C3098B4201D3CB01C01A524183098B42BD
:1004400001D38B01C01A524143098B4201D34B01A6
:10045000C01A524103098B4201D30B01C01A524109
:10046000C3088B4201D3CB00C01A524183088B4290
:1004700001D38B00C01A5241D9D243088B4201D319
:100480004B00C01A5241411A00D201466346524104
:100490005B10104601D34042002B00D54942704703
:1004A00063465B1000D3404201B50020C046C04601
:1004B00002BD704770477047F0B5FF252D04C6098F
:1004C000C209FF2704462E400137CB093E4348406E
:1004D0002A402B400746002A6BD0002B69D0AA4245
:1004E00067D0AB4265D0002800DA32460125ED0521
:1004F00029432C4309022002090AD21A4B0C7F24FB
:10050000E31A434C000A7C44E35C7D242404121962
:1005100014145B00A218884201D3521C00E0400072
:1005200049420C465C4324115C43DB016415E3182B
:10053000040A5C43C502200D0C4644436419250A95
:100540005D432303EC0C0D46654300030019EB18D3
:100550004C42A34201D35B18401CD4052018002B49
:1005600007D05B00C91804D3401C002901D1400802
:1005700040003F2189048A4209D3002A08DC110681
:10058000090F04D0032149074018C00FC007F0BD70
:1005900001224100120689187F2252069142F6D2AA
:1005A00005214907C84201D59010F0BDFF20C005C4
:1005B000F0BD002F00DA32461648AA4207D2AB42FD
:1005C00005D21902090E17D0F80FC007F0BDFF259C
:1005D00063002D06AB42F9D84900A942F6D8AB42D8
:1005E00001D1A942F2D0A94201D1002101E061006C
:1005F0004908D0050843F0BD1102090EFBD0FF20C9
:100600000243D005F0BD0A460146104654E70000FB
:10061000472B00000000C07F0102C21504D0012357
:10062000DB071943002A0ADB9E239A1A02D40846E4
:10063000D0407047FF2241001206914201D90020AC
:100640007047C017C04370471F22030C02D10F220E
:1006500000041CD0030E01D10002083A030F01D19F
:100660000001121F830F01D18000921E002801DBC0
:100670004000521ED2055118021251181922904002
:1006800004D3491C002801D1490849000846704795
:10069000C10FC90700D04042012292071143D3E79E
:1006A00001218907D0E7000010B5FF22C30D1340D8
:1006B00009D05A4007D0914205DA5C42A14202DDDE
:1006C000C905081810BDC40FE407002B06D0002A86
:1006D00006D0002902DBFF20C0050443204610BDE0
:1006E0004102FCD0004810BD0000C07F10B5FF23C0
:1006F0001B0644009C421DD84C009C421AD803465D
:10070000124A0B4307D4401A02D3EFF3008010BD06
:10071000EFF3008010BD081A06D2EFF3008001212C
:100720009043C907084302E0EFF30080904380F351
:10073000008810BD0D231B041A4204D0114600206E
:1007400000F006F810BD00F01BF810BD000000908E
:10075000C80212D54803400F002804D0C803C04384
:10076000012188407047EFF3008000010009032158
:100770000907084380F30088704700207047000095
:1007800010B5024800F02BF810BD00000000C07F3B
:10079000754600F053F8AE46050069465346C0085A
:1007A000C000854618B020B5FFF704FD60BC0027E7
:1007B0004908B6460026C0C5C0C5C0C5C0C5C0C52D
:1007C000C0C5C0C5C0C5403D49008D46704710B585
:1007D0000446C046C0462046FFF7BFFC10BD10B51A
:1007E0000C461107090F092904D00A290AD0082943
:1007F0000CD104E011460820FFF7AAFF06E05106DD
:1008000006D501E0510601D50120C007214610BDE3
:10081000D10607D501010909CC084907000E0006D9
:10082000044309E0410F20024907000A0143200E5A
:1008300000061D22D14101430846E7E70048704702
:10084000B401002001491820ABBEFEE726000200DB
:10085000704710B5042000F03DF810BD72B6FEE7F9
:1008600070B5044600F01EF90546601C02D004482D
:100870000078241800F016F9401BA042FAD370BD8E
:100880003800002070B5042821D105263607042140
:10089000304600F0FBF801250D4C002806D16078A9
:1008A000002803D1257000F0FDF860600421304677
:1008B00000F0ECF800280AD06078002807D100F09A
:1008C000F1F86168401AA06000202070657070BD6A
:1008D0000400002010B504494A69024202D0486170
:1008E000FFF7D0FF10BD000000040140F8B5002361
:1008F00003240125B8E032462E469E40B4463240DD
:1009000079D00E79B607B60F012E01D0022E17D17D
:1009100086682746B6465E00B74000967646BE43D8
:10092000B646CF68009EB740764637438760466834
:100930006746BE430F79FF06FF0F9F40374347606E
:100940000E79F643B6070ED0C6682746B4465E0059
:10095000B646B7406646BE43B4468F687646B74053
:1009600066463743C7600E79B607B60F022E14D11C
:10097000DE08B60036180096366A5F07B446FE0EEB
:100980000F27B646B7406646BE43B4460F69764663
:10099000B74066463743009E376206682746B4462E
:1009A0005E00B646B7406646BE430F79B446BF0701
:1009B000BF0F7646B7406646374307604E68B603BA
:1009C000B60F50D02B4F7E6B2E437E639F082A4E6E
:1009D000BF00BE190096B6680F27B4469E07360FB3
:1009E000B646B7406646BE4305273F07B446B84201
:1009F00002D1002710E036E0204FB84201D1012794
:100A00000AE01F4FB84201D1022705E01D4FB8424E
:100A100001D1052700E006277646B74066463743F2
:100A2000009EB760184E36684F689643FF0300D5A6
:100A30001643154F3E607E684F689643BF0300D54E
:100A40001643114F7E60BE684F689643FF0200D583
:100A500016430D4FBE60FE684F689643BF0200D537
:100A60001643094AD6605B1C0A681646DA4000D075
:100A700041E7F8BD001002400000014000040050B2
:100A800000080050001C00500004014000690840AC
:100A900000D001207047002A01D081617047816237
:100AA000704700000148806870470000380000204F
:100AB00070B5024640325378202B1CD11378012B9D
:100AC00019D00123137024245470046825689D43B1
:100AD0002560046825681E03B54325600468256801
:100AE0000D432560006801681943016020205070A3
:100AF0000020107070BD022070BD70B502464032FB
:100B00005378202B1BD11378012B18D0012414709B
:100B10002423537003681D68A5431D6005682B6876
:100B20000F263602B34309021943296000680168A1
:100B300021430160202050700020107070BD022001
:100B400070BD000070B5040006D0254640356878B9
:100B50000026002802D005E0012070BD2E7020463E
:100B600000F09AF92420687020680168490849005B
:100B700001600F21606809068843216808612168C7
:100B80008A680120C00382438A60E1680129A16864
:100B900008D021229202114322689160E168022963
:100BA00002D005E00143F7E701212268C902516044
:100BB00021684A680F4B1A434A602168CA68824319
:100BC000CA60616920690843A16909020843216874
:100BD000C860216AE06908432168086020680168EC
:100BE0000122114301606664202068702663AE70A4
:100BF000002070BD00800002FFB505460446403568
:100C0000687883B0202875D10C98002814D00D98EE
:100C1000002811D0287801286CD001202870FFF717
:100C200041FF0746012200901923D103204601F01D
:100C300075F8002874D103E00120400260646FE081
:100C4000222068704020A870002666640C986062BC
:100C50000D98608566630E980090019704A90EC9EF
:100C6000204600F0E7FF002801D02E7058E0618D8B
:100C70003448FF2905D9FF22228501231B06009055
:100C800006E0618D21850090208D0123C2B25B06B4
:100C90002046049901F02EF80097002204212046F6
:100CA0000E9B01F03BF800283AD12068406A616A47
:100CB0000870606A401C6062208D401E81B22185F0
:100CC000608D401E6085608D00281FD000291DD1D9
:100CD00000970022802120460E9B01F01FF800287B
:100CE0001ED1608DFF2806D9FF22228501231B0615
:100CF000009607E024E0608D20850096208D01237A
:100D0000C2B25B062046049900F0F4FF608D002813
:100D1000C2D13A4620460E9901F027F8002802D0A9
:100D2000012007B0F0BD20682021C1612068426821
:100D3000054B1A4042606970AE702E700020F0E7DB
:100D40000220EEE70024008000E800FEFFB5054623
:100D500004464035687883B0202872D10C9800286A
:100D600014D00D98002811D02878012869D00120CE
:100D70002870FFF797FE0746012200901923D10340
:100D8000204600F0CBFF002871D103E00120400293
:100D900060646CE0212068704020A87000266664C2
:100DA0000C9860620D98608566630E9800900197BC
:100DB00004A90EC9204600F06DFF002801D02E7056
:100DC00055E0608DFF2805D9FF22228501231B06EF
:100DD000009606E0608D20850096208D0123C2B22A
:100DE0005B062046049900F085FF3A4620460E999E
:100DF00000F0E1FF00283AD1606A2168007888623B
:100E0000606A401C6062608D401E6085208D401EBF
:100E100080B22085618D00291FD000281DD1009748
:100E20000022802120460E9B00F078FF00281ED172
:100E3000608DFF2806D9FF22228501231B0600961C
:100E400007E024E0608D20850096208D0123C2B24A
:100E50005B062046049900F04DFF608D0028C4D148
:100E60003A4620460E9900F080FF002802D001206B
:100E700007B0F0BD20682021C16120684268054BA1
:100E80001A4042606970AE702E700020F0E70220B8
:100E9000EEE7000000E800FE10B586B0044614211D
:100EA0006846FFF757FA1049206888421AD10F4C5C
:100EB000E16A01200143E162E16A0290014005918B
:100EC0000321490200911221019103210490039111
:100ED000052069460007FFF709FDA06B01214905C0
:100EE0000843A06306B010BD00540040001002404B
:100EF00002488168027889188160704738000020B4
:100F000010B50848002401684022114301602046C2
:100F100000F00AF8002801D0012401E000F026F8D2
:100F2000204610BD0020024070B504460D4D7D20C6
:100F30002978C000FFF710FA01460B480068FFF758
:100F40000BFA00F001FE002809D1042C07D2002280
:100F50002146401E00F02EF800206C6070BD01207C
:100F600070BD000038000020440000201CB5094876
:100F7000416B012211434163816B02041143816380
:100F80004020009004480190684600F025F800F0E9
:100F900057F81CBD0010024001000200002805DBCC
:100FA000C106C90E01208840014908607047000051
:100FB00000E100E010B501F047FB10BDBFF34F8F1B
:100FC00004490348C860BFF34F8F00BFFDE700002E
:100FD0000400FA0500ED00E0174A1168E023994388
:100FE00003681943116015494B68012212049343A9
:100FF0004B600B6893430B60CB689343CB608B686B
:1010000093438B604368DB0302D50B6813430B608B
:1010100043689B0302D54B6813434B600379DB079E
:1010200002D08B6813438B600079800702D5C868B3
:101030001043C86070470000007000400004014089
:10104000024801681022114301607047007000409F
:10105000F0B5154A1368154D54152D6A2340ED0758
:10106000ED0F002B04D0002D02D01668A6431660A9
:101070001668B608B600064316600D4807690426D0
:101080003743076101290DD040BF20BF20BF016950
:10109000B1430161002B04D0002D02D01068204321
:1010A0001060F0BD30BFF2E700700040000001406A
:1010B00000ED00E07047000010B5054C6069C0030A
:1010C00004D5FFF7F7FF01200004606110BD0000A8
:1010D00000040140F8B50446007800274E4D800614
:1010E00071D54D4E403EB06BC00004D4B06BA90525
:1010F0000843B063012749480168C90511D4016854
:10110000821511430160FFF7CDFC009005E0FFF769
:10111000C9FC0099401A642837D840480068C005C7
:10112000F5D532680321090560680A400140914203
:1011300008D08103890F032904D13168890301D5BF
:101140000120F8BD2A69032109040A4022D0084081
:1011500090421FD0207880061CD528692A698843D0
:101160000121C9040A432A612A698A432A61286144
:10117000C0050FD5FFF796FC009008E0FFF792FC42
:101180000099411A2648814201D90320F8BD2869F7
:101190008005F3D561688803800F032805D1326884
:1011A0000005824301400A433260286903226168D6
:1011B0001204114008432861002F04D0B16B0120B4
:1011C00000078143B1632078800705D5E8680C21CA
:1011D0008843A1680843E8602078400706D5E8689E
:1011E000032189028843E1680843E860207800070A
:1011F00006D5E86803210903884321690843E860AC
:101200002078000606D5E8680321890488436169CF
:101210000843E8600020F8BD401002400070004024
:1012200088130000F8B50E46050038D05E48006807
:10123000C007C00FB04214D25B4C20684008400089
:1012400030432060FFF72EFC074605E0FFF72AFC3D
:10125000C11B564881427AD82068C007C00FB042EF
:10126000F4D12878524C800705D5E068F0218843F6
:10127000A9680843E0602878C00752D0686802284F
:1012800006D0032807D0216801280AD0890504E088
:101290002168890301E021688901002903DB01201D
:1012A000F8BD4907F9E7E168890889000143E16071
:1012B000FFF7F8FB0746686802280AD0032814D015
:1012C00001281ED029E0FFF7EDFBC11B3748814202
:1012D0003DD8E0680007800F0228F4D121E0FFF735
:1012E000E1FBC11B3148814231D8E0680007800F23
:1012F0000328F4D115E0FFF7D5FBC11B2B48814231
:1013000025D8E0680007800F0128F4D109E0FFF735
:10131000C9FBC11B2548814219D8E0680007800F2E
:10132000F5D121480168C907C90FB14217D9016831
:101330004908490031430160FFF7B4FB074608E064
:1013400005E0FFF7AFFBC11B1848814201D903201C
:10135000F8BD15480068C007C00FB042F1D1287829
:10136000400706D5E068072109028843E968084379
:10137000E0602878000707D5E0680721C9028843A4
:101380002969C9000843E06000F01AF8E168094AD9
:101390000906090F515CC840074908600748006802
:1013A000FFF7C2FDF8BD00000020024088130000D6
:1013B0000010024038300008440000203C000020AB
:1013C00070B51A4AD3681A490C2018408D000428B9
:1013D0000CD04E00082810D00C2810D05068000403
:1013E000410F0120C003491C884070BD1068C00631
:1013F00001D5084670BD284670BD304670BD9802C4
:101400000C4C000F205C1B029C0FD368641CDB0398
:1014100001D5314603E01268D20600D4294601F016
:10142000EDF822460023FEF7D7FE70BD0010024003
:1014300000093D0048300008FEB505007ED0F74C9D
:10144000E7680C20E6680740012000040640287881
:10145000C00747D0082F05D00C2F0AD10120000467
:10146000864206D1206880033CD568680028E5D014
:1014700038E0012069680004814203D121680143FA
:10148000216011E0052301221B0492049942216886
:1014900002D111432160F1E78143216021680140BD
:1014A0000091206890432060686800280DD0FFF705
:1014B000F9FA009005E0FFF7F5FA0099401A642860
:1014C0007ED820688003F6D50CE0FFF7EBFA009099
:1014D00005E0FFF7E7FA0099401A6428F0D8206881
:1014E0008003F6D4287880075DD5E868810604D5A6
:1014F000226820210A43226088430923042F0DD04B
:101500000C2F01D1002E09D000283CD0216899432E
:1015100001432160FFF7C6FA064628E02168490723
:1015200001D500288AD061681F22120291432A69DE
:101530001202114361602168994300E091E1014387
:101540002160FFF73DFFE16809060A0FB449895C95
:10155000C840B4490860B4480068FFF7E5FC0028BB
:1015600074D120E0FFF79EFA801B0228A8D82068DB
:101570004007F7D560681F210902884329690902DD
:10158000084360600FE02068400840002060FFF7DB
:1015900089FA064604E0FFF785FA801B02288FD8F7
:1015A00020684007F7D42878C00661D5002F0DD0F9
:1015B000A86900284BD02068FF210131084300E0D2
:1015C000C6E02060FFF76EFA06462DE02068800531
:1015D00002D5A8690028A5D060680721490388437F
:1015E000296A084360606068297F0002000A0906D2
:1015F00008436060286A410B0120C003491C8840F1
:10160000E16809060A0F8649895CC8408549086077
:1016100085480068FFF788FC002817D128E0FFF70D
:1016200041FA801B0228A1D820688005F7D56068A0
:10163000072149038843296A084360606068297F5D
:101640000002000A09060843606011E0E1E0216839
:10165000FF20013081432160FFF724FA064604E0B1
:10166000FFF720FA801B022872D820688005F7D483
:1016700028786E4E000724D568690028306910D09C
:10168000012108433061FFF70DFA009005E0FFF7F4
:1016900009FA0099401A02285AD830698007F6D50D
:1016A0000FE0400840003061FFF7FCF9009005E0D2
:1016B000FFF7F8F90099401A022849D830698007E5
:1016C000F6D42878400765D500200290A06BC000B2
:1016D00006D4A06B012109070843A06301200290F2
:1016E00053480168C90511D401688215114301608E
:1016F000FFF7D8F9009005E0FFF7D4F90099401AF8
:10170000642825D84A480068C005F5D5FF20AA6896
:101710000130824203D131690143316111E001217D
:101720008902002A07D005231B029A4203D132699D
:101730000A433261EFE7326982433261306988439C
:101740003061A86800280FD0FFF7ACF9009007E0DF
:101750005EE0FFF7A7F90099411A3648814257D851
:1017600030698005F5D50DE0FFF79CF9009006E0A3
:10177000FFF798F90099411A2E48814248D83069FC
:101780008005F5D40298002804D0A06B0121090738
:101790008843A063686A002865D00C2F4CD00126CE
:1017A00036060228206805D0B0432060FFF77AF99A
:1017B00005462FE0B0432060FFF774F9074604E0C8
:1017C000FFF770F9C01B022822D820688001F7D4E7
:1017D000E96AA86AE2680843296BFD231B049A435F
:1017E00011430843E060206830432060FFF75AF956
:1017F000054604E0FFF756F9401B022808D8206888
:101800008001F7D52FE0FFF74DF9401B022801D9E1
:101810000320FEBD20688001F5D424E000100240C2
:1018200038300008440000203C00002040100240F6
:1018300000700040881300000128EAD0E068012110
:101840000904AA6A014091420BD10F218904EA6A76
:101850000140914205D1032189050840296B884246
:1018600001D00120FEBD0020FEBDF8B505460446AE
:1018700020352878012819D00120287002206870AE
:101880002168CA2048622168532048622068816824
:101890000122920291438160206881681201914384
:1018A0008160FFF7FFF8064600270FE00220F8BD31
:1018B000FFF7F8F8811B7D20C000814206D921681E
:1018C000FF204862032068702F70F8BD2068C06850
:1018D0004007EDD52168FF204862012068702F7015
:1018E0000020F8BDF7B5054604462035287882B0BB
:1018F000012814D001202870022068702168CA20B5
:1019000048622168532048622068806800264005AC
:10191000FF27002812DAFFF7C5F800900AE002203E
:1019200005B0F0BDFFF7BEF80099411A7D20C00058
:1019300081421CD82068C0684007F3D420688168C1
:1019400001229202914381602068C1688022114087
:10195000204A8918C160FFF7A5F800900DE0FFF755
:10196000A1F80099411A7D20C000814205D9206864
:101970004762032068702E70D2E72068C068400775
:10198000EDD521680398486120688168C908C900BD
:10199000816020688168049A114381600E48026862
:1019A000012109050A43026082680A4382602068B7
:1019B00081680122920311438160206881681211BD
:1019C0001143816020684762012068702E700020FA
:1019D000A6E700007FFBFFFF000401407047000006
:1019E00010B504460068C068400509D52046FFF7D9
:1019F000F5FF2068C16880221140054A8918C1603E
:101A0000012004490005486101202034607010BDA8
:101A10007FFBFFFF00040140F8B5040050D02546CD
:101A200020356878002803D12870204600F052F84D
:101A3000022068702168CA204862216853204862E9
:101A4000204600F0ACFAFF2604270028206802D0C8
:101A500046626F7034E081681D4A114081602168E0
:101A600088686268A369104322691A43104388603A
:101A70002168E06808612068016922891204114325
:101A800001612068C16880229143C1602068C16CF7
:101A900089088900C164E169606901432068C26CFA
:101AA0001143C1642068806880060BD4204600F092
:101AB00029F8002806D0206846626F700020287040
:101AC0000120F8BD20684662012068700020F8BD42
:101AD000BFFF8FFF10B50068084988420DD1084844
:101AE0000169012292041143016100221146022082
:101AF000FFF760FA0220FFF751FA10BD00280040FE
:101B00004010024070B504460068C168A0229143AD
:101B1000C160FEF7C7FF7D260546F60006E0FEF72A
:101B2000C1FF401BB04201D9032070BD2068C068CE
:101B30008006F4D5002070BD0248016902221143DD
:101B40000161704700E000E0094910B5401E88427D
:101B500001D9012010BD074C60610321081F00F06E
:101B600073FD0020A06107202061002010BD00004F
:101B7000FFFFFF0000E000E00248016902229143FC
:101B80000161704700E000E0FEE701688A69D24326
:101B9000920701D400228A6200688169C943C9079B
:101BA00003D081690122114381617047F7B5044672
:101BB00000680F468169C943C90636D44168890166
:101BC00004D4416801229203114341600026254656
:101BD000403520688069C043800612D5781CF8D053
:101BE000FEF760FF0299401AB84201D8002FF0D1E9
:101BF000616C2020014361646870AE702E7001201A
:101C0000FEBD21681020C86120682027C7612046DA
:101C1000FFF7BBFF20684168054A11404160606CD6
:101C20000421084360646F70E7E70020FEBD0000F8
:101C300000E800FEF8B50446164615481D46DAB21F
:101C40000090079F0023204600F054F83A462046B3
:101C5000069900F0B0F8002818D12846F5B20128FE
:101C600009D02168300A88623A462046069900F079
:101C7000A2F800280AD1206885620097002240213E
:101C80002046069B00F04AF8002800D00120F8BD4D
:101C900000200080F8B50446164615481D46DAB205
:101CA000C3020090079F204600F024F83A462046E1
:101CB000069900F080F8002818D12846F5B20128CE
:101CC00009D02168300A88623A462046069900F019
:101CD00072F800280AD120688562009700228021CE
:101CE0002046069B00F01AF8002800D00120F8BD1D
:101CF00000200080F0B50668059C7568064F600DF1
:101D0000384385438805800D110408431843204358
:101D100005437560F0BD0000FF63FF03F8B51D4685
:101D200017460E46044609E0681C07D0FEF7BAFEC7
:101D30000699401AA8420BD8002D09D02068816965
:101D4000304688430FD00020B842EDD00020F8BDC7
:101D5000616C202001436164403460700020A070F9
:101D600020700120F8BD0120EEE770B516460D4643
:101D700004460FE0324629462046FFF717FF0028A9
:101D800001D0012070BDFEF78DFE801BA84208D84F
:101D9000002D06D020688069C0438006EAD4002068
:101DA00070BD616C2020014361644034607000208C
:101DB000A0702070E5E770B516460D46044611E0A8
:101DC000324629462046FFF7F1FE002801D00120C7
:101DD00070BD681C06D0FEF765FE801BA84208D8BF
:101DE000002D06D020688069C0438007E8D4002019
:101DF00070BD616C2020014361644034607000203C
:101E0000A0702070E3E70000F0B587B014216846A9
:101E1000FEF7A0FA2E48C16A04252943C162C16AAF
:101E200029400591C16A01221143C162C16A114072
:101E30000591C16A02263143C162C06A0022304066
:101E40000590052040210007FEF725FE03208003B2
:101E50000327002400906946019702941D48FEF76D
:101E600045FD052001946946000700970294FEF79E
:101E70003DFD312000040190052069460095029443
:101E80000007FEF733FDB820009005206946019752
:101E900002940007FEF72AFD4020009001200190E7
:101EA00005200294694603940007FEF71FFD69466A
:101EB0000948019700960294FEF718FD002211468A
:101EC0000620FFF777F80620FFF768F807B0F0BDA7
:101ED00000100240000800500004005010B51348E4
:101EE000114901601421416000218160016141615B
:101EF00081610122C161C2600162FEF723FE0028F8
:101F000001D0FEF7ABFC00210848FEF7D1FD002808
:101F100001D0FEF7A3FC00210448FEF7EEFD0028E7
:101F200001D0FEF79BFC10BD00540040480000208B
:101F300010B50F480D4901607F2282600021416089
:101F400001614161FF228161C260C161FFF764FDEF
:101F5000002801D0FEF782FC002211460448FFF75A
:101F6000C1FC002801D0FEF779FC10BD002800401C
:101F700094000020FEE7000010B5FFF79DF8064929
:101F80000878072807D0022805D0032803D00428A2
:101F900001D00920087010BD06000020704770B500
:101FA00004460068C168490613D40021C943C160D2
:101FB000FEF778FD7D260546F60006E0FEF772FD89
:101FC000401BB04201D9032070BD2068C0684006A4
:101FD000F4D5002070BD000010B50248FFF700FDE9
:101FE00010BD000094000020F8B5FE4801780029DB
:101FF0007ED1012405462C706878A87000F0C3FAE1
:1020000068787E213C2618270025030000F00EFB8F
:102010000D080B305357A8B9E7FCFBFA0AF90A0080
:1020200000F0B1FA46E200262046B040C043C1B2FB
:10203000032000F0CFFA1920FEF712FC761CF6B24E
:10204000082EF1D3FF21032000F0C4FA0026204619
:10205000B040C043C1B2022000F0BCFA1920FEF724
:10206000FFFB761CF6B2082EF1D3FF2102201FE001
:1020700007262046B040C043C1B2022000F0AAFAB1
:102080001920FEF7EDFB761EF3D5FF21022000F0AC
:10209000A1FA07262046B040C043C1B2032000F099
:1020A00099FA1920FEF7DCFB761EF3D5FF210320F9
:1020B00000F090FAFEE100F070FAFA208CE00026C1
:1020C0002046B040C743F9B2022000F083FAF9B2CB
:1020D000032000F07FFA4B20FEF7C2FB761CF6B21D
:1020E000082EEDD300F04FFA00262046B04000E065
:1020F000E7E1C743F9B2022000F06CFAF9B203201D
:1021000000F068FA4B20FEF7ABFB761CF6B2082E07
:10211000EBD300F038FA07262046B040C743F9B2A7
:10212000022000F057FAF9B2032000F053FA192008
:10213000FEF796FB761EEFD500F025FA072620461F
:10214000B040C743F9B2022000F044FAF9B20320CC
:1021500000F040FA1920FEF783FB761EEFD55FE70B
:10216000FF260024F53600F018FA3046FEF778FB1B
:1021700000F009FA3046FEF773FB641C032CF2DB17
:1021800098E10C46022000F025FA2146032000F0D9
:1021900021FAFA20FEF764FB3146022000F01AFA19
:1021A0003146032000F016FAFA20FEF759FB3946B3
:1021B000022000F00FFA3946032000F00BFAFA2053
:1021C000FEF74EFB2946022000F004FA29460320C0
:1021D00000F000FAFF20F530FEF742FB6AE10C4602
:1021E000022000F0F7F92146032000F0F3F9FA206D
:1021F000FEF736FB3146022000F0ECF931460320B1
:1022000003E028E1B2E080E04AE000F0E3F9FA20E0
:10221000FEF726FB3946022000F0DCF939460320A0
:1022200000F0D8F9FA20FEF71BFB2946022000F047
:10223000D1F92946032000F0CDF96B4C2046FEF77A
:102240000FFB81263146022000F0C4F931460320FD
:1022500000F0C0F9FA20FEF703FBC3263146022046
:1022600000F0B8F93146032000F0B4F9FA20FEF787
:10227000F7FAE7263146022000F0ACF93146032098
:1022800000F0A8F9FA20FEF7EBFAFF26314602200B
:1022900000F0A0F93146032000F09CF920469BE7AE
:1022A000F0260F2700243146022000F093F939462A
:1022B000032000F08FF9FA20FEF7D2FA3946022007
:1022C00000F088F93146032000F084F9FA20FEF787
:1022D000C7FAFF210026022000F07CF931460320D6
:1022E00000F078F9FA20FEF7BBFAFF27314602200A
:1022F00000F070F93946032000F06CF9FA20FEF77F
:10230000AFFA641C032CCEDBD4E00027072620465E
:10231000B040721E214691400843C043C1B2022022
:1023200000F058F93220FEF79BFAB61E012EEEDAC5
:10233000FF21022000F04EF907262046B040711E12
:1023400022468A401043C043C1B2032000F042F944
:102350003220FEF785FAB61E012EEEDAFF210320A9
:1023600000F038F97F1C052FD0DBA3E07F2103208C
:1023700000F030F93220FEF773FA7F21022000F0DE
:1023800029F93220FEF76CFA7E21022000F022F9B2
:102390003220FEF765FA7E21032000F01BF932207F
:1023A000FEF75EFA7C21032000F014F93220FEF7DC
:1023B00057FA7C21022000F00DF93220FEF750FA86
:1023C0007821022000F006F93220FEF749FA782140
:1023D000032000F0FFF83220FEF742FA70210320BC
:1023E00004E0000000000020EE02000000F0F2F81F
:1023F0003220FEF735FA7021022000F0EBF832208F
:10240000FEF72EFA6021022000F0E4F83220FEF7F9
:1024100027FA6021032000F0DDF83220FEF720FAD1
:102420004021032000F0D6F83220FEF719FA4021AF
:10243000022000F0CFF83220FEF712FA002102202D
:1024400000F0C8F83220FEF70BFA0021032000F05C
:10245000C1F83220C0E600262046B040C043C1B2D9
:10246000022000F0B7F8F01F00D54042214681401D
:10247000C843C1B2032000F0ADF89620FEF7F0F992
:10248000761C082EE8DB07262046B040C043C1B2C8
:10249000022000F09FF8F01F00D540422146814005
:1024A000C843C1B2032000F095F89620FEF7D8F992
:1024B000761EE9D5002000F013F80248057000F000
:1024C00062F8F8BD000000207047000003480021BA
:1024D0000170417081700A21C170704700000020B6
:1024E00002494A788A704870704700000000002056
:1024F00010B5FEF7FDFC10BD10B598B0342168464C
:10250000FDF728FF14210DA8FDF724FF182112A8BC
:10251000FDF720FF1A4801680322D2029143C2143A
:102520008918016018200090012005900690002471
:1025300080030890079409946846FEF77DFF002801
:1025400001D072B6FEE70F200D900E940F941094F8
:10255000002111940DA8FEF765FE002801D072B687
:10256000FEE728201290012040041390169412A830
:10257000FEF7B0FD002801D072B6FEE718B010BD1E
:1025800000700040704710B5FF21022000F022F8D3
:10259000FF21032000F01EF810BD10B5002102201D
:1025A00000F018F80021032000F014F810BD10B559
:1025B00000F003F800F007F810BD10B50021062068
:1025C00000F008F810BD10B50021072000F002F857
:1025D00010BD000003B583B00023DB43012202934A
:1025E00004A9019213460091024640210248FEF7D9
:1025F000ADFB05B000BD000048000020F8B5040C9C
:102600008BB2264682B25E430D0C1046370C5843FF
:10261000360480190021794116466E43370C360482
:102620008019794126466E438919F8BD30B4744645
:10263000641E2578641CAB4200D21D46635D5B00BE
:10264000E31830BC184700008307FF22DB0E9A40D6
:102650008907090E9940002808DB830809489B0078
:102660001B18186890430843186070470007000F54
:102670000838830804489B001B18D8699043084316
:10268000D861704700E400E000ED00E010B50F48AD
:102690000D4901600E4941600E4981600E4900F00C
:1026A00077F90D48C01EC078332800D0FEE700211E
:1026B000064800F03BF90021044800F00FF9012121
:1026C000024800F007FA10BD3D2E0008B8000020B7
:1026D000212E0008480000201B000020014840690E
:1026E000704700001800002010B52C482A490160EE
:1026F0002B4941602B4981602B4900F049F92A4858
:10270000C01EC078332800D0FEE70121234800F026
:102710000DF90721214800F022F900211F4800F09F
:1027200059F900211D4800F089F912211B4800F0D9
:102730002CFA2021194800F000FA2021174800F057
:10274000E2F93021154800F02AF917491348891E8B
:1027500000F0B2F914488022801E01781143017004
:1027600001460E4800F0AFF900210C4800F04CF98A
:102770000D490A48491E00F0FAF90B492A22491E60
:10278000087810430870054800F0F8F90121034863
:1027900000F0A0F910BD00003D2E0008B800002098
:1027A000212E0008480000201B000020F0B585B055
:1027B0000020039002A9364800F015FA6846344F0D
:1027C000007A0C37002817D006213248FDF7C0FDEB
:1027D00030492F4800F062F82E4C0020205E00F0B7
:1027E000F1F838600220205E00F0ECF878600420F8
:1027F000205E00F0E7F8B86002A9254800F0DFF994
:10280000244C0025183C2678042E2DD33046FDF7A5
:1028100047FF014601906068FDF74EFE6060074685
:102820000199A068FDF748FEA06006460199E0689E
:10283000FDF742FEE0604000400801907100780022
:102840004908400800F01EFB019900F01BFB1249EB
:10285000FDF732FE6061216900F05AFB656101D22B
:1028600001200390257010E03968606800F00AFBD1
:1028700060607968A06800F005FBA060B968E06856
:1028800000F000FB761CE0602670039805B0F0BDF8
:10289000B800002030000020000040401CB50C466D
:1028A00006236A46282100F041F9694649782180CB
:1028B0000A0269460978511821806946C978618001
:1028C0000A02694689785118618069464979A18070
:1028D0000A02694609795118A1801CBD38B50C4619
:1028E000054601236A461F2100F020F900281CD16B
:1028F000002C05D00121284600F018F8002814D13A
:1029000069460878A1074006C90F400EC90108436F
:10291000BF210840E107490E0843694608700123BA
:102920006A461F21284600F057F938BD38B50C46D5
:10293000054601236A46232100F0F8F800280DD14E
:1029400069460878E1014006400E08436946087070
:1029500001236A462321284600F03EF938BD38B5E8
:102960000C46054601236A46202100F0DFF80028C6
:102970000DD16946087821010007000F0843694618
:10298000087001236A462021284600F025F938BD49
:1029900010B50A4601230F2100F0C8F810BD38B564
:1029A0000C46054601236A463D2100F0BFF8002889
:1029B00007D16846047001236A463D21284600F08D
:1029C0000BF938BD10B5FDF763FE0321C943FDF7D0
:1029D0006BFE10BD38B50C46054601236A4623211F
:1029E00000F0A4F800280ED169460878CF210840ED
:1029F000A107890E08436946087001236A4623210E
:102A0000284600F0E9F838BD38B50C4605460123E4
:102A10006A46332100F08AF800280ED1694608780A
:102A20006106C009C001490E0843694608700123C8
:102A30006A463321284600F0CFF838BD7CB50C46F5
:102A4000054601236A46202100F070F8002832D1A3
:102A5000012301AA2321284600F068F800282AD182
:102A6000F7200822002C04D0012C0AD0022C0DD013
:102A700013E069460B7803400B7008791043087126
:102A80000BE069460A7802400A7003E069460B7859
:102A900013430B700A7902400A7101236A46202110
:102AA000284600F099F8002805D1012301AA232126
:102AB000284600F091F87CBD10B50A46012322217A
:102AC00000F034F810BD10B50A460123222100F0B1
:102AD00083F810BD38B50C46054601236A461E2111
:102AE00000F024F800280DD169460878E10140067D
:102AF000400E08436946087001236A461E21284695
:102B000000F06AF838BD38B50C46054601236A4620
:102B10003C2100F00BF8002807D16846047001231F
:102B20006A463C21284600F057F838BD30B40446C8
:102B300064688068A44630BC604738B50C460546DA
:102B400001236A463B21FFF7F1FF00280ED16946B9
:102B500008786106C009C001490E0843694608703B
:102B600001236A463B21284600F036F838BD10B5EF
:102B70000A4601233821FFF7D9FF10BD10B50A46D8
:102B80000123382100F028F810BD38B50C46054661
:102B900001236A463A21FFF7C9FF00280ED1694692
:102BA00008786106C009C001490E084369460870EB
:102BB00001236A463A21284600F00EF838BD38B5A0
:102BC0000C4601236A460721FFF7B0FF69460978E2
:102BD0004907C90F217038BD30B4044624688068A5
:102BE000A44630BC604738B50C4601236A4627210D
:102BF000FFF79CFF694609780907C90F217038BDA6
:102C00001CB5824C0220A070FEF77AF9FFF774FC25
:102C1000FFF7FAF8FFF762F9FFF78AF90022114689
:102C20000120FEF7C7F90120FEF7B8F97848816B5B
:102C3000020411438163002211460120FEF7BAF914
:102C40000120FEF7ABF940200090724801906846E1
:102C5000FEF7C2F9FEF7F4F905270025FF26F53641
:102C6000A0780300FFF7E2FC0A0606071A3755783A
:102C70000606A106F4E7FFF79AFCFFF784FCFFF7CE
:102C800025FC0C20FFF72CFCFFF7AEF9207800287C
:102C900001D0032000E00420A070E1E7FFF724FD4D
:102CA000FFF771FCFD210320FFF794FC3046FDF790
:102CB000D7FDFFF768FC3046FDF7D2FDFD2103206C
:102CC000FFF788FC3046FDF7CBFDFFF75CFC257075
:102CD0006570A5603EE0FFF7D9FCFFF754FCFE21CC
:102CE0000320FFF777FC3046FDF7BAFDFFF74BFCFA
:102CF0003046FDF7B5FDFE210320FFF76BFC3046A3
:102D0000FDF7AEFDFFF73FFC257065700620A5605E
:102D1000C2E700F0A1F8FFF749FD0028A0D0FFF7B7
:102D2000DDFCFDF779FCFDF7D9FAFDF71DFA0A2164
:102D3000FDF71CFB491CE16020698142F5D0C8B257
:102D40002161FFF7CDFB0720A070FFF74DF9A078B8
:102D5000092885D0A77083E700F07EF80121084696
:102D6000FEF776F9FEF7E8FEFFF7C6FB607800286D
:102D700093D0A068FDF7B2FAFDF7F6F90A21FDF746
:102D8000F5FA491CE16020698142F5D0C8B22161A1
:102D9000FFF7A6FB0720A070FFF726F9A078092807
:102DA00001D00620A07065705AE7E078002804D0B2
:102DB000FFF7E9FBFFF76AFCE5707F210220FFF7D0
:102DC00009FC3046FDF74CFDFFF7DDFB3046FDF713
:102DD00047FD7F210220FFF7FDFB3046FDF740FD58
:102DE000FFF7D1FB00220C490C48FEF77BFDFEF7F4
:102DF000C3FE01210846FEF72BF9FEF79DFE0748AA
:102E0000FEF733FDFFF778FB2AE7000004000020FF
:102E10000010024001000100A861000094000020A1
:102E20003EB5802421437D24E4006D461CC50A463E
:102E300001233121FDF7E0FE00203EBD3EB5802498
:102E400021437D24E4006D461CC50A46012331213F
:102E5000FDF77CFF00203EBD10B5084C60780028CF
:102E60000AD00749A068884201D9FEF7A7F8A078E0
:102E7000052801D10020607010BD00000400002072
:102E80001027000070B501250400ED074C4020D448
:102E9000441A01D2001B0919C60D4B00F2B2FF2AD9
:102EA00029D01B0E2CD000020C02D31A2C43DC407C
:102EB0002843051910D2280A02D3401C6D0611D0F0
:102EC000761EF6058019FF2A00DA70BDC00DC00518
:102ED00070BD694000F04EF801200543C541521C09
:102EE000761CE8E764089C40C90161408900E7D18D
:102EF0000124A043E4E71B0E440200D0034870BD48
:102F0000002AFCD1C00FC00770BD00BF0000C07F09
:102F100001230A00DB0502430DD4DA4203D49A42AE
:102F200007D481427047D94214D4D84212D4814286
:102F3000704789427047DA4203D59A42F9D58842F0
:102F400070475B004A00DA4204D24200DA4201D202
:102F5000884270474840414010B5024A4840FDF75A
:102F6000C5FB10BD0900160470B501250400ED076E
:102F70004C4022D4441A02D26C40001B0919C60DE1
:102F80004B00F2B2FF2A4BD01B0E50D000020C02B5
:102F9000D31A2C43DC40A843051B05D5AD0019D33B
:102FA0006D08761E521E37D0F605280A01D2801908
:102FB00070BD70416D0603D070BD6940FFF768FFBA
:102FC0009C4009026140490001D0401E70BD0124AF
:102FD000A04370BD6D081DD001202B0C01D12D0424
:102FE00010302B0E01D12D0208302B0F01D12D01F5
:102FF000001DAB0F01D1AD00801CEB0F01D16D00A6
:10300000401C6D00361A121A680AF5054019012A8B
:1030100002DB70BD002070BDC036300AC00770BD35
:103020001B0E440201D1FF2B00D1024870BD002AC3
:10303000F0D070BD0000C07F000000000000000064
:103040000102030406070809030406080C101820EF
:10305000308182838485868788898B8C8D8E8F9141
:103060009293959697999A9C9D9FA0A2A3A5A7A895
:10307000AAACAEB0B2B3B5B7B9BCBEC0C2C5C7C9C1
:10308000CCCED1D4D7D9DCDFE2E6E9ECF0F3F7FA25
:10309000FE000000B43000080000002048000000DE
:1030A00004010008FC30000848000020D0070000A0
:1030B00020010008000000000000020100000000E4
:1030C0000000000000000000000000000000000000
:1030D00000000000000000000000000000803B44F1
:1030E00000000000000000000000000001000000DF
:0C30F000040000000000000000002000B0
:04000005080000C12E
:00000001FF
