:020000040800F2
:1000000048080020A10100085D210008291D000802
:1000100000000000000000000000000000000000E0
:10002000000000000000000000000000B1260008F1
:10003000000000000000000085210008D92600080B
:10004000B301000861210008C1210008B3010008C4
:10005000B3010008B301000853080008B301000809
:1000600000000000B3010008B3010008B30100085C
:10007000B3010008A91F000800000000B301000838
:100080000000000000000000000000000000000070
:10009000B301000800000000B3010008B30100082C
:1000A00000000000B3010008000000000000000094
:1000B000B3010008B30100080000000000000000C8
:1000C00000F002F800F040F80CA030C808382418FE
:1000D0002D18A246671EAB4654465D46AC4201D180
:1000E00000F032F87E460F3E0FCCB6460126334272
:1000F00000D0FB1AA246AB463343184754310000E8
:1001000074310000103A02D378C878C1FAD8520787
:1001100001D330C830C101D504680C6070470000BD
:100120000023002400250026103A01D378C1FBD813
:10013000520700D330C100D50B6070471FB500F0E7
:10014000E3F81FBD10B510BD00F022FB1146FFF70C
:10015000F5FF02F04BFE00F03AFB03B4FFF7F2FFAD
:1001600003BC00F06FFB000030B40C490C684A6817
:1001700023681068C0181060241D121D8C4207D21D
:100180008A4208D20C604A6030BC40004008704788
:100190000C00DC3CF6E70A00DC3AF3E7DC01002067
:1001A0000748804707480047FEE7FEE7FEE7FEE70F
:1001B000FEE7FEE704480549054A064B7047000084
:1001C00071270008C10000084802002048080020EC
:1001D0004804002048040020FEB5054610460C46A1
:1001E000184373D0AE468C460020AD1A01469C41A0
:1001F00067D36646002701243D46B61A9D4102D3C7
:1002000013463A462124654676462F04360C3E4373
:100210002D0CB61A9D4104D3150C1B042B4312045C
:100220001034654676462F06360A3E432D0AB61A26
:100230009D4104D3150E1B022B4312020834654660
:1002400076462F0736093E432D09B61A9D4104D341
:10025000150F1B012B431201241D65467646AF077F
:10026000B6083E43AD08B61A9D4104D3950F9B00D6
:100270002B439200A41C65467646EF0776083E4362
:100280006D08B61A9D411AD392185B41641C16E0A2
:100290000018764665464941B71A9D410191009084
:1002A00009D36046B11A98418E4684460098019958
:1002B0000025401C6941DD0752082A435B08641E83
:1002C000E6D57246634603B0F0BDFFE70020014665
:1002D000C046C0462A462346F5E700000B4A30B523
:1002E00011460B4C60310B46DC3B0CC1372106E05C
:1002F000020C8D0012185A51064A504300190A4642
:10030000491E002AF4DC30BD0120E7E77C01002013
:10031000E119D666CD0D010001E004C0091F0429D2
:10032000FBD28B0701D50280801CC90700D0027068
:10033000704700290BD0C30702D00270401C491E31
:10034000022904D3830702D50280801C891EE3E7BB
:100350000022EEE70022DFE7002203098B422CD3C4
:10036000030A8B4211D300239C464EE003460B4305
:100370003CD4002243088B4231D303098B421CD367
:10038000030A8B4201D394463FE0C3098B4201D359
:10039000CB01C01A524183098B4201D38B01C01A91
:1003A000524143098B4201D34B01C01A5241030908
:1003B0008B4201D30B01C01A5241C3088B4201D3B7
:1003C000CB00C01A524183088B4201D38B00C01A64
:1003D000524143088B4201D34B00C01A5241411A8B
:1003E00000D201465241104670475DE0CA0F00D06E
:1003F0004942031000D34042534000229C46030967
:100400008B422DD3030A8B4212D3FC22890112BAEC
:10041000030A8B420CD3890192118B4208D38901C4
:1004200092118B4204D389013AD0921100E08909DC
:10043000C3098B4201D3CB01C01A524183098B42BD
:1004400001D38B01C01A524143098B4201D34B01A6
:10045000C01A524103098B4201D30B01C01A524109
:10046000C3088B4201D3CB00C01A524183088B4290
:1004700001D38B00C01A5241D9D243088B4201D319
:100480004B00C01A5241411A00D201466346524104
:100490005B10104601D34042002B00D54942704703
:1004A00063465B1000D3404201B50020C046C04601
:1004B00002BD704770477047F0B5FF252D04C6098F
:1004C000C209FF2704462E400137CB093E4348406E
:1004D0002A402B400746002A6BD0002B69D0AA4245
:1004E00067D0AB4265D0002800DA32460125ED0521
:1004F00029432C4309022002090AD21A4B0C7F24FB
:10050000E31A434C000A7C44E35C7D242404121962
:1005100014145B00A218884201D3521C00E0400072
:1005200049420C465C4324115C43DB016415E3182B
:10053000040A5C43C502200D0C4644436419250A95
:100540005D432303EC0C0D46654300030019EB18D3
:100550004C42A34201D35B18401CD4052018002B49
:1005600007D05B00C91804D3401C002901D1400802
:1005700040003F2189048A4209D3002A08DC110681
:10058000090F04D0032149074018C00FC007F0BD70
:1005900001224100120689187F2252069142F6D2AA
:1005A00005214907C84201D59010F0BDFF20C005C4
:1005B000F0BD002F00DA32461648AA4207D2AB42FD
:1005C00005D21902090E17D0F80FC007F0BDFF259C
:1005D00063002D06AB42F9D84900A942F6D8AB42D8
:1005E00001D1A942F2D0A94201D1002101E061006C
:1005F0004908D0050843F0BD1102090EFBD0FF20C9
:100600000243D005F0BD0A460146104654E70000FB
:10061000032D00000000C07F0102C21504D0012399
:10062000DB071943002A0ADB9E239A1A02D40846E4
:10063000D0407047FF2241001206914201D90020AC
:100640007047C017C04370471F22030C02D10F220E
:1006500000041CD0030E01D10002083A030F01D19F
:100660000001121F830F01D18000921E002801DBC0
:100670004000521ED2055118021251181922904002
:1006800004D3491C002801D1490849000846704795
:10069000C10FC90700D04042012292071143D3E79E
:1006A00001218907D0E7000010B5FF22C30D1340D8
:1006B00009D05A4007D0914205DA5C42A14202DDDE
:1006C000C905081810BDC40FE407002B06D0002A86
:1006D00006D0002902DBFF20C0050443204610BDE0
:1006E0004102FCD0004810BD0000C07F10B5FF23C0
:1006F0001B0644009C421DD84C009C421AD803465D
:10070000124A0B4307D4401A02D3EFF3008010BD06
:10071000EFF3008010BD081A06D2EFF3008001212C
:100720009043C907084302E0EFF30080904380F351
:10073000008810BD0D231B041A4204D0114600206E
:1007400000F006F810BD00F01BF810BD000000908E
:10075000C80212D54803400F002804D0C803C04384
:10076000012188407047EFF3008000010009032158
:100770000907084380F30088704700207047000095
:1007800010B5024800F02BF810BD00000000C07F3B
:10079000754600F053F8AE46050069465346C0085A
:1007A000C000854618B020B5FFF704FD60BC0027E7
:1007B0004908B6460026C0C5C0C5C0C5C0C5C0C52D
:1007C000C0C5C0C5C0C5403D49008D46704710B585
:1007D0000446C046C0462046FFF7BFFC10BD10B51A
:1007E0000C461107090F092904D00A290AD0082943
:1007F0000CD104E011460820FFF7AAFF06E05106DD
:1008000006D501E0510601D50120C007214610BDE3
:10081000D10607D501010909CC084907000E0006D9
:10082000044309E0410F20024907000A0143200E5A
:1008300000061D22D14101430846E7E70048704702
:10084000E401002001491820ABBEFEE726000200AB
:10085000704710B5042000F03DF810BD72B6FEE7F9
:1008600070B5044600F01EF90546601C02D004482D
:100870000078241800F016F9401BA042FAD370BD8E
:100880003800002070B5042821D105263607042140
:10089000304600F0FBF801250D4C002806D16078A9
:1008A000002803D1257000F0FDF860600421304677
:1008B00000F0ECF800280AD06078002807D100F09A
:1008C000F1F86168401AA06000202070657070BD6A
:1008D0002400002010B504494A69024202D0486150
:1008E000FFF7D0FF10BD000000040140F8B5002361
:1008F00003240125B8E032462E469E40B4463240DD
:1009000079D00E79B607B60F012E01D0022E17D17D
:1009100086682746B6465E00B74000967646BE43D8
:10092000B646CF68009EB740764637438760466834
:100930006746BE430F79FF06FF0F9F40374347606E
:100940000E79F643B6070ED0C6682746B4465E0059
:10095000B646B7406646BE43B4468F687646B74053
:1009600066463743C7600E79B607B60F022E14D11C
:10097000DE08B60036180096366A5F07B446FE0EEB
:100980000F27B646B7406646BE43B4460F69764663
:10099000B74066463743009E376206682746B4462E
:1009A0005E00B646B7406646BE430F79B446BF0701
:1009B000BF0F7646B7406646374307604E68B603BA
:1009C000B60F50D02B4F7E6B2E437E639F082A4E6E
:1009D000BF00BE190096B6680F27B4469E07360FB3
:1009E000B646B7406646BE4305273F07B446B84201
:1009F00002D1002710E036E0204FB84201D1012794
:100A00000AE01F4FB84201D1022705E01D4FB8424E
:100A100001D1052700E006277646B74066463743F2
:100A2000009EB760184E36684F689643FF0300D5A6
:100A30001643154F3E607E684F689643BF0300D54E
:100A40001643114F7E60BE684F689643FF0200D583
:100A500016430D4FBE60FE684F689643BF0200D537
:100A60001643094AD6605B1C0A681646DA4000D075
:100A700041E7F8BD001002400000014000040050B2
:100A800000080050001C00500004014000690840AC
:100A900000D001207047002A01D081617047816237
:100AA000704700000148806870470000380000204F
:100AB00070B5024640325378202B1CD11378012B9D
:100AC00019D00123137024245470046825689D43B1
:100AD0002560046825681E03B54325600468256801
:100AE0000D432560006801681943016020205070A3
:100AF0000020107070BD022070BD70B502464032FB
:100B00005378202B1BD11378012B18D0012414709B
:100B10002423537003681D68A5431D6005682B6876
:100B20000F263602B34309021943296000680168A1
:100B300021430160202050700020107070BD022001
:100B400070BD000070B5040006D0254640356878B9
:100B50000026002802D005E0012070BD2E7020463E
:100B600000F09AF92420687020680168490849005B
:100B700001600F21606809068843216808612168C7
:100B80008A680120C00382438A60E1680129A16864
:100B900008D021229202114322689160E168022963
:100BA00002D005E00143F7E701212268C902516044
:100BB00021684A680F4B1A434A602168CA68824319
:100BC000CA60616920690843A16909020843216874
:100BD000C860216AE06908432168086020680168EC
:100BE0000122114301606664202068702663AE70A4
:100BF000002070BD00800002FFB505460446403568
:100C0000687883B0202875D10C98002814D00D98EE
:100C1000002811D0287801286CD001202870FFF717
:100C200041FF0746012200901923D103204601F01D
:100C300045F9002874D103E00120400260646FE0B0
:100C4000222068704020A870002666640C986062BC
:100C50000D98608566630E980090019704A90EC9EF
:100C6000204601F0B7F8002801D02E7058E0618DC1
:100C70003448FF2905D9FF22228501231B06009055
:100C800006E0618D21850090208D0123C2B25B06B4
:100C90002046049901F0FEF8009700220421204626
:100CA0000E9B01F00BF900283AD12068406A616A76
:100CB0000870606A401C6062208D401E81B22185F0
:100CC000608D401E6085608D00281FD000291DD1D9
:100CD00000970022802120460E9B01F0EFF80028AB
:100CE0001ED1608DFF2806D9FF22228501231B0615
:100CF000009607E024E0608D20850096208D01237A
:100D0000C2B25B062046049901F0C4F8608D002849
:100D1000C2D13A4620460E9901F0F7F8002802D0D9
:100D2000012007B0F0BD20682021C1612068426821
:100D3000054B1A4042606970AE702E700020F0E7DB
:100D40000220EEE70024008000E800FEFFB5054623
:100D500004464035687883B0202872D10C9800286A
:100D600014D00D98002811D02878012869D00120CE
:100D70002870FFF797FE0746012200901923D10340
:100D8000204601F09BF8002871D103E001204002C9
:100D900060646CE0212068704020A87000266664C2
:100DA0000C9860620D98608566630E9800900197BC
:100DB00004A90EC9204601F03DF8002801D02E708C
:100DC00055E0608DFF2805D9FF22228501231B06EF
:100DD000009606E0608D20850096208D0123C2B22A
:100DE0005B062046049901F055F83A4620460E99D4
:100DF00001F0B1F800283AD1606A21680078886271
:100E0000606A401C6062608D401E6085208D401EBF
:100E100080B22085618D00291FD000281DD1009748
:100E20000022802120460E9B01F048F800281ED1A8
:100E3000608DFF2806D9FF22228501231B0600961C
:100E400007E024E0608D20850096208D0123C2B24A
:100E50005B062046049901F01DF8608D0028C4D17E
:100E60003A4620460E9901F050F8002802D00120A1
:100E700007B0F0BD20682021C16120684268054BA1
:100E80001A4042606970AE702E700020F0E70220B8
:100E9000EEE7000000E800FE10B586B0044614211D
:100EA0006846FFF757FA1049206888421AD10F4C5C
:100EB000E16A01200143E162E16A0290014005918B
:100EC0000321490200911221019103210490039111
:100ED000052069460007FFF709FDA06B01214905C0
:100EE0000843A06306B010BD00540040001002404B
:100EF00002488168027889188160704738000020B4
:100F000010B50848002401684022114301602046C2
:100F100000F00AF8002801D0012401E000F004F9F3
:100F2000204610BD0020024070B504460D4D7D20C6
:100F30002978C000FFF710FA01460B480068FFF758
:100F40000BFA00F0D1FE002809D1042C07D20022B0
:100F50002146401E00F00CF900206C6070BD01209D
:100F600070BD00003800002044000020704770472A
:100F7000704770477047704710B5044600680168B5
:100F8000C943C90708D18168C943C90704D10121F0
:100F900041602046FFF7ECFF20680168C9438907DC
:100FA00008D48168C943890704D4022141602046DE
:100FB000FFF7DCFF20680168C943490708D481684E
:100FC000C943490704D404214160204600F0AAF82F
:100FD00020680168C943090708D48168C943090723
:100FE00004D4082141602046FFF7C3FF2068016850
:100FF000C943C90608D48168C943C90604D410216D
:1010000041602046FFF7B3FF20680168C9438906A5
:1010100008D48168C943890604D420214160204650
:10102000FFF7A9FF20680168C943490608D4816811
:10103000C943490604D4402141602046FFF79AFF86
:1010400010BD0000F8B5040005D025462035A87B6A
:10105000002802D006E00120F8BD00206873204679
:1010600000F048F80220A8732068C26884466368CC
:10107000012B04D00120A16AC005814201D11E20AC
:10108000824319486169814201D0184802401848DA
:10109000A668024018463043676A266A3E433043DA
:1010A000A66A30431043002B18D0012B03D0012235
:1010B000D205964203D12369E2681A4310430A4AD3
:1010C000914205D0A2691143E269024308461043E8
:1010D0006146C8600120A8730020F8BD2369E26959
:1010E0001A431043E3E70000FFFF00003F1FFFFF2C
:1010F000FEF119FF10B50068084988420CD1084874
:10110000816BC20411438163002211460D2000F05F
:101110002FF80D2000F020F810BD0000007C0040EA
:1011200000100240704700001CB50948416B0122C5
:1011300011434163816B020411438163402000909D
:1011400004480190684600F017F800F049F81CBD0B
:101150000010024001000200002805DBC106C90E94
:1011600001208840014908607047000000E100E06C
:1011700010B501F05FFB10BD174A1168E0239943D9
:1011800003681943116015494B6801221204934307
:101190004B600B6893430B60CB689343CB608B68C9
:1011A00093438B604368DB0302D50B6813430B60EA
:1011B00043689B0302D54B6813434B600379DB07FD
:1011C00002D08B6813438B600079800702D5C86812
:1011D0001043C860704700000070004000040140E8
:1011E00002480168102211430160704700700040FE
:1011F000F0B5154A1368154D54152D6A2340ED07B7
:10120000ED0F002B04D0002D02D01668A643166007
:101210001668B608B600064316600D48076904262E
:101220003743076101290DD040BF20BF20BF0169AE
:10123000B1430161002B04D0002D02D0106820437F
:101240001060F0BD30BFF2E70070004000000140C8
:1012500000ED00E07047000010B5054C6069C00368
:1012600004D5FFF7F7FF01200004606110BD000006
:1012700000040140F8B50446007800274E4D800672
:1012800071D54D4E403EB06BC00004D4B06BA90583
:101290000843B063012749480168C90511D40168B2
:1012A000821511430160FFF7FDFB009005E0FFF799
:1012B000F9FB0099401A642837D840480068C005F7
:1012C000F5D532680321090560680A400140914262
:1012D00008D08103890F032904D13168890301D51E
:1012E0000120F8BD2A69032109040A4022D00840E0
:1012F00090421FD0207880061CD528692A6988432F
:101300000121C9040A432A612A698A432A612861A2
:10131000C0050FD5FFF7C6FB009008E0FFF7C2FB42
:101320000099411A2648814201D90320F8BD286955
:101330008005F3D561688803800F032805D13268E2
:101340000005824301400A43326028690322616834
:101350001204114008432861002F04D0B16B012012
:1013600000078143B1632078800705D5E8680C2128
:101370008843A1680843E8602078400706D5E868FC
:10138000032189028843E1680843E8602078000768
:1013900006D5E86803210903884321690843E8600A
:1013A0002078000606D5E86803218904884361692E
:1013B0000843E8600020F8BD401002400070004083
:1013C00088130000F8B50E46050038D05E48006866
:1013D000C007C00FB04214D25B4C206840084000E8
:1013E00030432060FFF75EFB074605E0FFF75AFB3E
:1013F000C11B564881427AD82068C007C00FB0424E
:10140000F4D12878524C800705D5E068F021884354
:10141000A9680843E0602878C00752D068680228AD
:1014200006D0032807D0216801280AD0890504E0E6
:101430002168890301E021688901002903DB01207B
:10144000F8BD4907F9E7E168890889000143E160CF
:10145000FFF728FB0746686802280AD0032814D043
:1014600001281ED029E0FFF71DFBC11B3748814230
:101470003DD8E0680007800F0228F4D121E0FFF793
:1014800011FBC11B3148814231D8E0680007800F51
:101490000328F4D115E0FFF705FBC11B2B4881425F
:1014A00025D8E0680007800F0128F4D109E0FFF794
:1014B000F9FAC11B2548814219D8E0680007800F5E
:1014C000F5D121480168C907C90FB14217D9016890
:1014D0004908490031430160FFF7E4FA074608E094
:1014E00005E0FFF7DFFAC11B1848814201D903204C
:1014F000F8BD15480068C007C00FB042F1D1287888
:10150000400706D5E068072109028843E9680843D7
:10151000E0602878000707D5E0680721C902884302
:101520002969C9000843E06000F01AF8E168094A37
:101530000906090F515CC840074908600748006860
:10154000FFF7F2FCF8BD0000002002408813000005
:1015500000100240F4310008440000203C0000204C
:1015600070B51A4AD3681A490C2018408D00042817
:101570000CD04E00082810D00C2810D05068000461
:10158000410F0120C003491C884070BD1068C0068F
:1015900001D5084670BD284670BD304670BD980222
:1015A0000C4C000F205C1B029C0FD368641CDB03F7
:1015B00001D5314603E01268D20600D4294601F075
:1015C00013F922460023FEF707FE70BD001002400B
:1015D00000093D0004320008FEB505007ED0F74C3E
:1015E000E7680C20E66807400120000406402878E0
:1015F000C00747D0082F05D00C2F0AD101200004C6
:10160000864206D1206880033CD568680028E5D072
:1016100038E0012069680004814203D12168014358
:10162000216011E0052301221B04920499422168E4
:1016300002D111432160F1E781432160216801401B
:101640000091206890432060686800280DD0FFF763
:1016500029FA009005E0FFF725FA0099401A64285E
:101660007ED820688003F6D50CE0FFF71BFA0090C7
:1016700005E0FFF717FA0099401A6428F0D82068AF
:101680008003F6D4287880075DD5E868810604D504
:10169000226820210A43226088430923042F0DD0A9
:1016A0000C2F01D1002E09D000283CD0216899438D
:1016B00001432160FFF7F6F9064628E02168490753
:1016C00001D500288AD061681F22120291432A693D
:1016D0001202114361602168994300E091E10143E6
:1016E0002160FFF73DFFE16809060A0FB449895CF4
:1016F000C840B4490860B4480068FFF715FC0028EA
:1017000074D120E0FFF7CEF9801B0228A8D820680A
:101710004007F7D560681F2109028843296909023B
:10172000084360600FE02068400840002060FFF739
:10173000B9F9064604E0FFF7B5F9801B02288FD8F7
:1017400020684007F7D42878C00661D5002F0DD057
:10175000A86900284BD02068FF210131084300E030
:10176000C6E02060FFF79EF906462DE02068800560
:1017700002D5A8690028A5D06068072149038843DD
:10178000296A084360606068297F0002000A090630
:1017900008436060286A410B0120C003491C88404F
:1017A000E16809060A0F8649895CC84085490860D6
:1017B00085480068FFF7B8FB002817D128E0FFF73D
:1017C00071F9801B0228A1D820688005F7D56068D0
:1017D000072149038843296A084360606068297FBC
:1017E0000002000A09060843606011E0E1E0216898
:1017F000FF20013081432160FFF754F9064604E0E1
:10180000FFF750F9801B022872D820688005F7D4B2
:1018100028786E4E000724D568690028306910D0FA
:10182000012108433061FFF73DF9009005E0FFF723
:1018300039F90099401A02285AD830698007F6D53C
:101840000FE0400840003061FFF72CF9009005E000
:10185000FFF728F90099401A022849D83069800713
:10186000F6D42878400765D500200290A06BC00010
:1018700006D4A06B012109070843A0630120029050
:1018800053480168C90511D40168821511430160EC
:10189000FFF708F9009005E0FFF704F90099401AF6
:1018A000642825D84A480068C005F5D5FF20AA68F5
:1018B0000130824203D131690143316111E00121DC
:1018C0008902002A07D005231B029A4203D13269FC
:1018D0000A433261EFE732698243326130698843FB
:1018E0003061A86800280FD0FFF7DCF8009007E00F
:1018F0005EE0FFF7D7F80099411A3648814257D881
:1019000030698005F5D50DE0FFF7CCF8009006E0D2
:10191000FFF7C8F80099411A2E48814248D830692B
:101920008005F5D40298002804D0A06B0121090796
:101930008843A063686A002865D00C2F4CD001262C
:1019400036060228206805D0B0432060FFF7AAF8C9
:1019500005462FE0B0432060FFF7A4F8074604E0F7
:10196000FFF7A0F8C01B022822D820688001F7D416
:10197000E96AA86AE2680843296BFD231B049A43BD
:1019800011430843E060206830432060FFF78AF885
:10199000054604E0FFF786F8401B022808D82068B7
:1019A0008001F7D52FE0FFF77DF8401B022801D911
:1019B0000320FEBD20688001F5D424E00010024021
:1019C000F4310008440000203C0000204010024098
:1019D00000700040881300000128EAD0E06801216F
:1019E0000904AA6A014091420BD10F218904EA6AD5
:1019F0000140914205D1032189050840296B8842A5
:101A000001D00120FEBD0020FEBDF8B5054604460C
:101A100020352878012819D001202870022068700C
:101A20002168CA2048622168532048622068816882
:101A300001229202914381602068816812019143E2
:101A40008160FFF72FF8064600270FE00220F8BD5F
:101A5000FFF728F8811B7D20C000814206D921684C
:101A6000FF204862032068702F70F8BD2068C068AE
:101A70004007EDD52168FF204862012068702F7073
:101A80000020F8BDF7B5054604462035287882B019
:101A9000012814D001202870022068702168CA2013
:101AA000486221685320486220688068002640050B
:101AB000FF27002812DAFEF7F5FF00900AE0022067
:101AC00005B0F0BDFEF7EEFF0099411A7D20C00081
:101AD00081421CD82068C0684007F3D42068816820
:101AE00001229202914381602068C16880221140E6
:101AF000204A8918C160FEF7D5FF00900DE0FEF77F
:101B0000D1FF0099411A7D20C000814205D920688B
:101B10004762032068702E70D2E72068C0684007D3
:101B2000EDD521680398486120688168C908C9001B
:101B3000816020688168049A114381600E480268C0
:101B4000012109050A43026082680A438260206815
:101B5000816801229203114381602068816812111B
:101B60001143816020684762012068702E70002058
:101B7000A6E700007FFBFFFF000401407047000064
:101B800010B504460068C068400509D52046FFF737
:101B9000F5FF2068C16880221140054A8918C1609C
:101BA000012004490005486101202034607010BD07
:101BB0007FFBFFFF00040140F8B5040050D025462C
:101BC00020356878002803D12870204600F052F8AC
:101BD000022068702168CA20486221685320486248
:101BE000204600F0D0FAFF2604270028206802D003
:101BF00046626F7034E081681D4A1140816021683F
:101C000088686268A369104322691A431043886098
:101C10002168E06808612068016922891204114383
:101C200001612068C16880229143C1602068C16C55
:101C300089088900C164E169606901432068C26C58
:101C40001143C1642068806880060BD4204600F0F0
:101C500029F8002806D0206846626F70002028709E
:101C60000120F8BD20684662012068700020F8BDA0
:101C7000BFFF8FFF10B50068084988420DD10848A2
:101C800001690122920411430161002211460220E0
:101C9000FFF76EFA0220FFF75FFA10BD0028004040
:101CA0004010024070B504460068C168A02291430C
:101CB000C160FEF7F7FE7D260546F60006E0FEF75A
:101CC000F1FE401BB04201D9032070BD2068C068FE
:101CD0008006F4D5002070BD02480169022211433C
:101CE0000161704700E000E0094910B5401E8842DC
:101CF00001D9012010BD074C60610321081F00F0CD
:101D000099FD0020A06107202061002010BD000087
:101D1000FFFFFF0000E000E002480169022291435A
:101D20000161704700E000E0FEE701688A69D24384
:101D3000920701D400228A6200688169C943C907F9
:101D400003D081690122114381617047F7B50446D0
:101D500000680F468169C943C90636D441688901C4
:101D600004D44168012292031143416000262546B4
:101D7000403520688069C043800612D5781CF8D0B1
:101D8000FEF790FE0299401AB84201D8002FF0D118
:101D9000616C2020014361646870AE702E70012078
:101DA000FEBD21681020C86120682027C761204639
:101DB000FFF7BBFF20684168054A11404160606C35
:101DC0000421084360646F70E7E70020FEBD000057
:101DD00000E800FEF8B50446164615481D46DAB27E
:101DE0000090079F0023204600F054F83A46204612
:101DF000069900F0B0F8002818D12846F5B201285D
:101E000009D02168300A88623A462046069900F0D7
:101E1000A2F800280AD1206885620097002240219C
:101E20002046069B00F04AF8002800D00120F8BDAB
:101E300000200080F8B50446164615481D46DAB263
:101E4000C3020090079F204600F024F83A4620463F
:101E5000069900F080F8002818D12846F5B201282C
:101E600009D02168300A88623A462046069900F077
:101E700072F800280AD1206885620097002280212C
:101E80002046069B00F01AF8002800D00120F8BD7B
:101E900000200080F0B50668059C7568064F600D4F
:101EA000384385438805800D1104084318432043B7
:101EB00005437560F0BD0000FF63FF03F8B51D46E4
:101EC00017460E46044609E0681C07D0FEF7EAFDF7
:101ED0000699401AA8420BD8002D09D020688169C4
:101EE000304688430FD00020B842EDD00020F8BD26
:101EF000616C202001436164403460700020A07058
:101F000020700120F8BD0120EEE770B516460D46A1
:101F100004460FE0324629462046FFF717FF002807
:101F200001D0012070BDFEF7BDFD801BA84208D87E
:101F3000002D06D020688069C0438006EAD40020C6
:101F400070BD616C202001436164403460700020EA
:101F5000A0702070E5E770B516460D46044611E006
:101F6000324629462046FFF7F1FE002801D0012025
:101F700070BD681C06D0FEF795FD801BA84208D8EE
:101F8000002D06D020688069C0438007E8D4002077
:101F900070BD616C2020014361644034607000209A
:101FA000A0702070E3E7000010B50248FEF7E4FFE0
:101FB00010BD0000AC000020F0B587B014216846C9
:101FC000FEF7C8F92E48C16A04252943C162C16AD7
:101FD00029400591C16A01221143C162C16A1140C1
:101FE0000591C16A02263143C162C06A00223040B5
:101FF0000590052040210007FEF74DFD03208003DA
:102000000327002400906946019702941D48FEF7BB
:102010006DFC052001946946000700970294FEF7C5
:1020200065FC31200004019005206946009502946A
:102030000007FEF75BFCB820009005206946019779
:1020400002940007FEF752FC40200090012001900E
:1020500005200294694603940007FEF747FC694691
:102060000948019700960294FEF740FC00221146B1
:102070000620FFF77DF80620FFF76EF807B0F0BDE9
:1020800000100240000800500004005010B5134832
:1020900011490160142141600021816001614161A9
:1020A00081610122C161C2600162FEF74BFD00281F
:1020B00001D0FEF7D3FB00210848FEF7F9FC002809
:1020C00001D0FEF7CBFB00210448FEF716FD0028E7
:1020D00001D0FEF7C3FB10BD00540040600000209B
:1020E00010B50B48094901600722520282600021A5
:1020F00041600162074A416242618162FEF7A2FFCC
:10210000002801D0FEF7AAFB10BD0000007C0040B3
:10211000AC000020FFFF000010B50F480D49016022
:102120007F2282600021416001614161FF22816163
:10213000C260C161FFF740FD002801D0FEF78EFBB1
:10214000002211460448FFF79DFC002801D0FEF74D
:1021500085FB10BD00280040DC000020FEE70000E9
:1021600010B5FFF779F806490878072807D0022844
:1021700005D0032803D0042801D00920087010BD21
:1021800026000020704770B504460068C168490603
:1021900013D40021C943C160FEF784FC7D260546A7
:1021A000F60006E0FEF77EFC401BB04201D903209A
:1021B00070BD2068C0684006F4D5002070BD0000E6
:1021C00010B50248FFF7DCFC10BD0000DC00002069
:1021D000F8B5FE48017800297ED1012405462C700F
:1021E0006878A87000F0C5FA68787E213C26182728
:1021F0000025030000F010FB0D080B305357A8B961
:10220000E7FCFBFA0AF90A0000F0B3FA46E20026FE
:102210002046B040C043C1B2032000F0D1FA1920DB
:10222000FEF71EFB761CF6B2082EF1D3FF21032029
:1022300000F0C6FA00262046B040C043C1B20220DA
:1022400000F0BEFA1920FEF70BFB761CF6B2082E42
:10225000F1D3FF2102201FE007262046B040C043F3
:10226000C1B2022000F0ACFA1920FEF7F9FA761E8E
:10227000F3D5FF21022000F0A3FA07262046B04044
:10228000C043C1B2032000F09BFA1920FEF7E8FA20
:10229000761EF3D5FF21032000F092FAFEE100F054
:1022A00072FAFA208CE000262046B040C743F9B20B
:1022B000022000F085FAF9B2032000F081FA4B20E9
:1022C000FEF7CEFA761CF6B2082EEDD300F051FAE6
:1022D00000262046B04000E0E7E1C743F9B2022003
:1022E00000F06EFAF9B2032000F06AFA4B20FEF714
:1022F000B7FA761CF6B2082EEBD300F03AFA0726AE
:102300002046B040C743F9B2022000F059FAF9B2B2
:10231000032000F055FA1920FEF7A2FA761EEFD539
:1023200000F027FA07262046B040C743F9B2022042
:1023300000F046FAF9B2032000F042FA1920FEF745
:102340008FFA761EEFD55FE7FF260024F53600F002
:102350001AFA3046FEF784FA00F00BFA3046FEF720
:102360007FFA641C032CF2DB98E10C46022000F09B
:1023700027FA2146032000F023FAFA20FEF770FA2C
:102380003146022000F01CFA3146032000F018FA12
:10239000FA20FEF765FA3946022000F011FA3946B4
:1023A000032000F00DFAFA20FEF75AFA294602201F
:1023B00000F006FA2946032000F002FAFF20F5306B
:1023C000FEF74EFA6AE10C46022000F0F9F92146C8
:1023D000032000F0F5F9FA20FEF742FA3146022018
:1023E00000F0EEF93146032003E028E1B2E080E09E
:1023F0004AE000F0E5F9FA20FEF732FA3946022009
:1024000000F0DEF93946032000F0DAF9FA20FEF791
:1024100027FA2946022000F0D3F92946032000F0CC
:10242000CFF96B4C2046FEF71BFA8126314602207D
:1024300000F0C6F93146032000F0C2F9FA20FEF799
:102440000FFAC3263146022000F0BAF931460320C4
:1024500000F0B6F9FA20FEF703FAE726314602202B
:1024600000F0AEF93146032000F0AAF9FA20FEF799
:10247000F7F9FF263146022000F0A2F93146032089
:1024800000F09EF920469BE7F0260F2700243146F6
:10249000022000F095F93946032000F091F9FA2066
:1024A000FEF7DEF93946022000F08AF931460320B2
:1024B00000F086F9FA20FEF7D3F9FF21002602206A
:1024C00000F07EF93146032000F07AF9FA20FEF799
:1024D000C7F9FF273146022000F072F93946032080
:1024E00000F06EF9FA20FEF7BBF9641C032CCEDB7A
:1024F000D4E0002707262046B040721E21469140B6
:102500000843C043C1B2022000F05AF93220FEF75E
:10251000A7F9B61E012EEEDAFF21022000F050F9D5
:1025200007262046B040711E22468A401043C04311
:10253000C1B2032000F044F93220FEF791F9B61E33
:10254000012EEEDAFF21032000F03AF97F1C052F5F
:10255000D0DBA3E07F21032000F032F93220FEF728
:102560007FF97F21022000F02BF93220FEF778F965
:102570007E21022000F024F93220FEF771F97E213D
:10258000032000F01DF93220FEF76AF97C210320B8
:1025900000F016F93220FEF763F97C21022000F0EA
:1025A0000FF93220FEF75CF97821022000F008F9DB
:1025B0003220FEF755F97821032000F001F932208E
:1025C000FEF74EF97021032004E000000000002017
:1025D000EE02000000F0F4F83220FEF741F970211D
:1025E000022000F0EDF83220FEF73AF960210220D7
:1025F00000F0E6F83220FEF733F96021032000F006
:10260000DFF83220FEF72CF94021032000F0D8F843
:102610003220FEF725F94021022000F0D1F83220C7
:10262000FEF71EF90021022000F0CAF83220FEF762
:1026300017F90021032000F0C3F83220C0E600267D
:102640002046B040C043C1B2022000F0B9F8F01FEC
:1026500000D5404221468140C843C1B2032000F06A
:10266000AFF89620FEF7FCF8761C082EE8DB07266C
:102670002046B040C043C1B2022000F0A1F8F01FD4
:1026800000D5404221468140C843C1B2032000F03A
:1026900097F89620FEF7E4F8761EE9D5002000F0C2
:1026A00013F80248057000F064F8F8BD000000203F
:1026B00070470000034800210170417081700A21B9
:1026C000C17070470000002002494A788A70487043
:1026D000704700000000002010B5FEF709FC10BD97
:1026E00010B598B034216846FDF734FE14210DA8CA
:1026F000FDF730FE182112A8FDF72CFE1B480168DB
:102700000322D2029143C21489180160182000905C
:1027100001200590069000248003089007940994F6
:102720006846FEF759FF002801D072B6FEE70F2079
:102730000D900E940F941094002111940DA8FEF7A3
:1027400041FE002801D072B6FEE7A82012900120B9
:102750004004139040001790169412A8FEF78AFDCB
:10276000002801D072B6FEE718B010BD007000401E
:10277000704710B5FF21022000F022F8FF2103204E
:1027800000F01EF810BD10B50021022000F018F86E
:102790000021032000F014F810BD10B500F003F87C
:1027A00000F007F810BD10B50021062000F008F871
:1027B00010BD10B50021072000F002F810BD000088
:1027C00003B583B00023DB430122029304A90192E5
:1027D00013460091024640210248FEF7B7FA05B0C1
:1027E00000BD000060000020F8B5040C8BB2264646
:1027F00082B25E430D0C1046370C584336048019E4
:102800000021794116466E43370C36048019794110
:1028100026466E438919F8BD30B47446641E257887
:10282000641CAB4200D21D46635D5B00E31830BC04
:10283000184700008307FF22DB0E9A408907090E24
:102840009940002808DB830809489B001B1818687A
:1028500090430843186070470007000F083883084A
:1028600004489B001B18D86990430843D8617047FF
:1028700000E400E000ED00E010B50F480D490160F4
:102880000E4941600E4981600E4900F077F90D480C
:10289000C01EC078332800D0FEE70021064800F0B3
:1028A0003BF90021044800F00FF90121024800F033
:1028B00007FA10BD25300008480000200930000844
:1028C00060000020070000200148406970470000B8
:1028D0000400002010B52C482A4901602B494160B2
:1028E0002B4981602B4900F049F92A48C01EC07865
:1028F000332800D0FEE70121234800F00DF907211D
:10290000214800F022F900211F4800F059F9002168
:102910001D4800F089F912211B4800F02CFA2021F3
:10292000194800F000FA2021174800F0E2F93021A0
:10293000154800F02AF917491348891E00F0B2F92A
:1029400014488022801E01781143017001460E4810
:1029500000F0AFF900210C4800F04CF90D490A488D
:10296000491E00F0FAF90B492A22491E0878104343
:102970000870054800F0F8F90121034800F0A0F9BB
:1029800010BD000025300008480000200930000874
:102990006000002007000020F0B585B00020039003
:1029A00002A9364800F015FA6846344F007A0C3711
:1029B000002817D006213248FDF7CAFC30492F48BD
:1029C00000F062F82E4C0020205E00F0F1F8386034
:1029D0000220205E00F0ECF878600420205E00F019
:1029E000E7F8B86002A9254800F0DFF9244C00257B
:1029F000183C2678042E2DD33046FDF751FE0146B3
:102A000001906068FDF758FD606007460199A06875
:102A1000FDF752FDA06006460199E068FDF74CFD08
:102A2000E0604000400801907100780049084008CB
:102A300000F006FB019900F003FB1249FDF73CFD95
:102A40006061216900F042FB656101D201200390C1
:102A5000257010E03968606800F0F2FA606079680B
:102A6000A06800F0EDFAA060B968E06800F0E8FA4C
:102A7000761CE0602670039805B0F0BD4800002089
:102A80001C000020000040401CB50C4606236A468E
:102A9000282100F041F96946497821800A026946F7
:102AA0000978511821806946C97861800A0269460F
:102AB00089785118618069464979A1800A0269467E
:102AC00009795118A1801CBD38B50C460546012373
:102AD0006A461F2100F020F900281CD1002C05D0E7
:102AE0000121284600F018F8002814D1694608781A
:102AF000A1074006C90F400EC9010843BF21084085
:102B0000E107490E08436946087001236A461F2100
:102B1000284600F057F938BD38B50C460546012364
:102B20006A46232100F0F8F800280DD1694608789C
:102B3000E1014006400E08436946087001236A46D9
:102B40002321284600F03EF938BD38B50C4605462D
:102B500001236A46202100F0DFF800280DD16946E4
:102B6000087821010007000F084369460870012317
:102B70006A462021284600F025F938BD10B50A46DE
:102B800001230F2100F0C8F810BD38B50C460546EA
:102B900001236A463D2100F0BFF8002807D16846AE
:102BA000047001236A463D21284600F00BF938BD28
:102BB00010B5FDF76DFD0321C943FDF775FD10BD8F
:102BC00038B50C46054601236A46232100F0A4F8D7
:102BD00000280ED169460878CF210840A107890E48
:102BE00008436946087001236A462321284600F0FD
:102BF000E9F838BD38B50C46054601236A4633214D
:102C000000F08AF800280ED1694608786106C009EC
:102C1000C001490E08436946087001236A46332102
:102C2000284600F0CFF838BD7CB50C460546012398
:102C30006A46202100F070F8002832D1012301AA51
:102C40002321284600F068F800282AD1F72008221E
:102C5000002C04D0012C0AD0022C0DD013E06946C0
:102C60000B7803400B700879104308710BE069463C
:102C70000A7802400A7003E069460B7813430B7030
:102C80000A7902400A7101236A462021284600F091
:102C900099F8002805D1012301AA2321284600F034
:102CA00091F87CBD10B50A460123222100F034F8CA
:102CB00010BD10B50A460123222100F083F810BD93
:102CC00038B50C46054601236A461E2100F024F85B
:102CD00000280DD169460878E1014006400E0843FE
:102CE0006946087001236A461E21284600F06AF8EA
:102CF00038BD38B50C46054601236A463C2100F034
:102D00000BF8002807D16846047001236A463C216D
:102D1000284600F057F838BD30B40446646880682F
:102D2000A44630BC604738B50C46054601236A46C8
:102D30003B21FFF7F1FF00280ED1694608786106B4
:102D4000C009C001490E08436946087001236A465C
:102D50003B21284600F036F838BD10B50A4601235D
:102D60003821FFF7D9FF10BD10B50A4601233821DD
:102D700000F028F810BD38B50C46054601236A4618
:102D80003A21FFF7C9FF00280ED16946087861068D
:102D9000C009C001490E08436946087001236A460C
:102DA0003A21284600F00EF838BD38B50C4601230C
:102DB0006A460721FFF7B0FF694609784907C90F3E
:102DC000217038BD30B4044624688068A44630BC05
:102DD000604738B50C4601236A462721FFF79CFF60
:102DE000694609780907C90F217038BD1CB5814CA7
:102DF0000220A070FEF784F8FFF772FCFFF7DCF802
:102E0000FFF744F9FFF788F9FFF76AF90022114646
:102E10000120FEF7ADF90120FEF79EF97648816B9F
:102E2000020411438163002211460120FEF7A0F93C
:102E30000120FEF791F9402000907048019068460B
:102E4000FEF79AF9FEF7CCF905270025FF26F5369F
:102E5000A0780300FFF7E0FC0A0606071A3755764C
:102E600006069D06F4E7FFF798FCFFF782FCFFF7E4
:102E700021FC0C20FFF728FCFFF7AAF92078002896
:102E800001D0032000E00420A070E1E7FFF722FD5D
:102E9000FFF76FFCFD210320FFF792FC3046FDF7A2
:102EA000DFFCFFF766FC3046FDF7DAFCFD2103206E
:102EB000FFF786FC3046FDF7D3FCFFF75AFC257080
:102EC0006570A5603CE0FFF7D7FCFFF752FCFE21E0
:102ED0000320FFF775FC3046FDF7C2FCFFF749FC05
:102EE0003046FDF7BDFCFE210320FFF769FC3046AC
:102EF000FDF7B6FCFFF73DFC257065700620A56068
:102F0000C2E7FFF749FD0028A2D0FFF7DDFCFDF77F
:102F100083FBFDF7E3F9FDF727F90A21FDF726FA10
:102F2000491CE16020698142F5D0C8B22161FFF7F8
:102F3000CBFB0720A070FFF74BF9A078092887D0BA
:102F4000A77085E701210846FEF752F9FEF7C4FE97
:102F5000FFF7C6FB6078002884D0A068FDF7BEF9B3
:102F6000FDF702F90A21FDF701FA491CE160206929
:102F70008142F5D0C8B22161FFF7A6FB0720A070FF
:102F8000FFF726F9A078092801D00620A070657007
:102F90005EE7E078002804D0FFF7EBFBFFF76CFC5E
:102FA000E5707F210220FFF70BFC3046FDF758FC4F
:102FB000FFF7DFFB3046FDF753FC7F210220FFF7D0
:102FC000FFFB3046FDF74CFCFFF7D3FB00220C491A
:102FD0000C48FEF757FDFEF79FFE01210846FEF75D
:102FE00007F9FEF779FE0748FEF70FFDFFF778FBBC
:102FF0002EE7000024000020001002400100010024
:10300000A8610000DC0000203EB5802421437D241F
:10301000E4006D461CC50A4601233121FDF7ECFD95
:1030200000203EBD3EB5802421437D24E4006D4652
:103030001CC50A4601233121FDF788FE00203EBD54
:1030400070B501250400ED074C4020D4441A01D28C
:10305000001B0919C60D4B00F2B2FF2A29D01B0E26
:103060002CD000020C02D31A2C43DC402843051953
:1030700010D2280A02D3401C6D0611D0761EF60528
:103080008019FF2A00DA70BDC00DC00570BD69400F
:1030900000F04EF801200543C541521C761CE8E7BC
:1030A00064089C40C90161408900E7D10124A04324
:1030B000E4E71B0E440200D0034870BD002AFCD197
:1030C000C00FC00770BD00BF0000C07F01230A0011
:1030D000DB0502430DD4DA4203D49A4207D481427D
:1030E0007047D94214D4D84212D4814270478942E1
:1030F0007047DA4203D59A42F9D5884270475B009F
:103100004A00DA4204D24200DA4201D288427047D1
:103110004840414010B5024A4840FDF7E7FA10BD6B
:103120000900160470B501250400ED074C4022D4B7
:10313000441A02D26C40001B0919C60D4B00F2B2B2
:10314000FF2A4BD01B0E50D000020C02D31A2C4386
:10315000DC40A843051B05D5AD0019D36D08761ECC
:10316000521E37D0F605280A01D2801970BD704171
:103170006D0603D070BD6940FFF768FF9C400902EF
:103180006140490001D0401E70BD0124A04370BDC4
:103190006D081DD001202B0C01D12D0410302B0EF9
:1031A00001D12D0208302B0F01D12D01001DAB0FD5
:1031B00001D1AD00801CEB0F01D16D00401C6D00F2
:1031C000361A121A680AF5054019012A02DB70BD89
:1031D000002070BDC036300AC00770BD1B0E44020F
:1031E00001D1FF2B00D1024870BD002AF0D070BD84
:1031F0000000C07F00000000000000000102030486
:1032000006070809030406080C1018203081828381
:103210008485868788898B8C8D8E8F9192939596E5
:1032200097999A9C9D9FA0A2A3A5A7A8AAACAEB06F
:10323000B2B3B5B7B9BCBEC0C2C5C7C9CCCED1D474
:10324000D7D9DCDFE2E6E9ECF0F3F7FAFE000000A4
:10325000703200080000002048000000040100084F
:10326000B8320008480000200008000020010008D3
:10327000000000000000000000000000000000004E
:103280000000000000803B4400000000000000003F
:10329000000000000000020100000000000000002B
:1032A0000000000000000000010000000400000019
:0832B0000000000000002000F6
:04000005080000C12E
:00000001FF
