:020000040800F2
:1000000060040020D500000815120008450F000804
:1000100000000000000000000000000000000000E0
:10002000000000000000000000000000191200089D
:100030000000000000000000171200081B1200085A
:10004000E7000008E7000008E7000008E7000008F4
:10005000E7000008E7000008E7000008E7000008E4
:1000600000000000E7000008E7000008E7000008C3
:10007000E7000008E700000800000000E7000008B3
:100080000000000000000000000000000000000070
:10009000E700000800000000E7000008E700000893
:1000A00000000000E7000008000000000000000061
:1000B000E7000008E7000008000000000000000062
:1000C0000348854600F08EF80048004749130008B1
:1000D000600400200448804704480047FEE7FEE72C
:1000E000FEE7FEE7FEE7FEE7B1120008C1000008E8
:1000F00030B50B46014600202022012409E00D46C0
:10010000D5409D4205D31D469540491B2546954047
:1001100040191546521E002DF1DC30BDF0B51FB45C
:100120000646002082B005464024019100901BE065
:10013000019922460F46304600F042F8049A059B8A
:10014000801A994110D310461946224600F028F82B
:10015000361A8F410197224601200021009F00F0AE
:100160001FF838184D4100902046641E0028DFDC3F
:10017000019B00982946324607B0F0BDD2B201E09B
:100180000270401C491EFBD270470022F6E710B5F2
:1001900013460A4604461946FFF7F0FF204610BDF5
:1001A00010B5202A04DB0146203A9140002010BD02
:1001B000914020239C1A0346E3401943904010BD10
:1001C00010B5202A04DB0846203AD040002110BD9B
:1001D0000B46D340D0402024A21A91400843194630
:1001E00010BD0000064C0125064E05E0E36807CC73
:1001F0002B430C3C98471034B442F7D3FFF764FF0D
:100200005C1700087C17000872B6FEE770B504465C
:1002100000F0EAF80546601C02D004480078241873
:1002200000F0E2F8401BA042FAD370BD04000020A9
:10023000F8B5002303240125B8E032462E469E403F
:10024000B446324079D00E79B607B60F012E01D0F0
:10025000022E17D186682746B6465E00B740009644
:100260007646BE43B646CF68009EB74076463743D3
:10027000876046686746BE430F79FF06FF0F9F40C1
:10028000374347600E79F643B6070ED0C668274657
:10029000B4465E00B646B7406646BE43B4468F6875
:1002A0007646B74066463743C7600E79B607B60F45
:1002B000022E14D1DE08B60036180096366A5F07A3
:1002C000B446FE0E0F27B646B7406646BE43B44658
:1002D0000F697646B74066463743009E3762066828
:1002E0002746B4465E00B646B7406646BE430F7921
:1002F000B446BF07BF0F7646B74066463743076030
:100300004E68B603B60F50D02B4F7E6B2E437E63E4
:100310009F082A4EBF00BE190096B6680F27B44644
:100320009E07360FB646B7406646BE4305273F07D1
:10033000B446B84202D1002710E036E0204FB84260
:1003400001D101270AE01F4FB84201D1022705E081
:100350001D4FB84201D1052700E006277646B74079
:1003600066463743009EB760184E36684F6896431E
:10037000FF0300D51643154F3E607E684F689643D5
:10038000BF0300D51643114F7E60BE684F68964389
:10039000FF0200D516430D4FBE60FE684F689643BE
:1003A000BF0200D51643094AD6605B1C0A68164690
:1003B000DA4000D041E7F8BD0010024000000140E3
:1003C0000004005000080050001C005000040140D0
:1003D0000069084000D001207047002A01D08161E7
:1003E00070478162704700000148806870470000D4
:1003F0000400002070B5024640325378202B1CD1F7
:100400001378012B19D0012313702424547004682D
:1004100025689D432560046825681E03B543256053
:10042000046825680D432560006801681943016070
:10043000202050700020107070BD022070BD70B57B
:10044000024640325378202B1BD11378012B18D051
:10045000012414702423537003681D68A5431D6094
:1004600005682B680F263602B34309021943296039
:100470000068016821430160202050700020107046
:1004800070BD022070BD000070B5040006D0254686
:10049000403568780026002802D005E0012070BDB4
:1004A0002E70204600F0F0F8242068702068016863
:1004B0004908490001600F216068090688432168E6
:1004C000086121688A680120C00382438A60E1686C
:1004D0000129A16808D0212292021143226891606B
:1004E000E168022902D005E00143F7E70121226813
:1004F000C902516021684A680F4B1A434A6021685B
:10050000CA688243CA60616920690843A169090217
:1005100008432168C860216AE069084321680860CF
:100520002068016801221143016066642020687020
:100530002663AE70002070BD00800002FFB5054646
:1005400004464035687883B0202872D10C98002882
:1005500014D00D98002811D02878012869D00120E6
:100560002870FFF741FF0746012200901923D103AD
:10057000204600F081FD002871D103E001204002F7
:1005800060646CE0212068704020A87000266664DA
:100590000C9860620D98608566630E9800900197D4
:1005A00004A90EC9204600F023FD002801D02E70BA
:1005B00055E0608DFF2805D9FF22228501231B0607
:1005C000009606E0608D20850096208D0123C2B242
:1005D0005B062046049900F03BFD3A4620460E9902
:1005E00000F097FD00283AD1606A2168007888629F
:1005F000606A401C6062608D401E6085208D401ED8
:1006000080B22085618D00291FD000281DD1009760
:100610000022802120460E9B00F02EFD00281ED1D6
:10062000608DFF2806D9FF22228501231B06009634
:1006300007E024E0608D20850096208D0123C2B262
:100640005B062046049900F003FD608D0028C4D1AC
:100650003A4620460E9900F036FD002802D00120CF
:1006600007B0F0BD20682021C16120684268054BB9
:100670001A4042606970AE702E700020F0E70220D0
:10068000EEE7000000E800FE10B586B00446142135
:100690006846FFF77AFD1049206888421AD10F4C4E
:1006A000E16A01200143E162E16A029001400591A3
:1006B0000321490200911221019103210490039129
:1006C000052069460007FFF7B3FDA06B012149052E
:1006D0000843A06306B010BD005400400010024063
:1006E0000248816802788918816070470400002000
:1006F00010B50848002401684022114301602046DB
:1007000000F00AF8002801D0012401E000F026F8EA
:10071000204610BD0020024070B504460D4D7D20DE
:100720002978C000FFF7E4FC01460B480068FFF79A
:10073000DFFC00F0EFFB002809D1042C07D20022D7
:100740002146401E00F016F800206C6070BD0120AC
:1007500070BD000004000020100000200448416B20
:10076000012211434163816B02041143816370478D
:100770000010024010B500F0B5FD10BDF8B50446FC
:10078000007800274E4D800671D54D4E403EB06B2F
:10079000C00004D4B06BA9050843B06301274948E1
:1007A0000168C90511D40168821511430160FFF782
:1007B0001BFE009005E0FFF717FE0099401A642821
:1007C00037D840480068C005F5D5326803210905CF
:1007D00060680A400140914208D08103890F0329D3
:1007E00004D13168890301D50120F8BD2A690321AC
:1007F00009040A4022D0084090421FD02078800689
:100800001CD528692A6988430121C9040A432A6141
:100810002A698A432A612861C0050FD5FFF7E4FDE4
:10082000009008E0FFF7E0FD0099411A2648814258
:1008300001D90320F8BD28698005F3D561688803D4
:10084000800F032805D132680005824301400A4326
:10085000326028690322616812041140084328614C
:10086000002F04D0B16B012000078143B1632078D1
:10087000800705D5E8680C218843A1680843E86033
:100880002078400706D5E868032189028843E1689B
:100890000843E8602078000706D5E86803210903CB
:1008A000884321690843E8602078000606D5E86897
:1008B00003218904884361690843E8600020F8BD8A
:1008C000401002400070004088130000F8B50E464A
:1008D000050038D05E480068C007C00FB04214D28F
:1008E0005B4C20684008400030432060FFF77CFDEF
:1008F000074605E0FFF778FDC11B564881427AD8CC
:100900002068C007C00FB042F4D12878524C80074D
:1009100005D5E068F0218843A9680843E06028789D
:10092000C00752D06868022806D0032807D0216883
:1009300001280AD0890504E02168890301E02168C3
:100940008901002903DB0120F8BD4907F9E7E168C7
:10095000890889000143E160FFF746FD07466868A2
:1009600002280AD0032814D001281ED029E0FFF75E
:100970003BFDC11B374881423DD8E0680007800F2E
:100980000228F4D121E0FFF72FFDC11B314881423D
:1009900031D8E0680007800F0328F4D115E0FFF795
:1009A00023FDC11B2B48814225D8E0680007800F3A
:1009B0000128F4D109E0FFF717FDC11B254881424A
:1009C00019D8E0680007800FF5D121480168C907F0
:1009D000C90FB14217D90168490849003143016084
:1009E000FFF702FD074608E005E0FFF7FDFCC11B2D
:1009F0001848814201D90320F8BD15480068C00796
:100A0000C00FB042F1D12878400706D5E068072131
:100A100009028843E9680843E0602878000707D5A1
:100A2000E0680721C90288432969C9000843E060DA
:100A300000F01AF8E168094A0906090F515CC8403C
:100A40000749086007480068FFF766FEF8BD000028
:100A500000200240881300000010024040170008E8
:100A6000100000200800002070B51A4AD3681A4907
:100A70000C2018408D0004280CD04E00082810D0FF
:100A80000C2810D050680004410F0120C003491CFD
:100A9000884070BD1068C00601D5084670BD284664
:100AA00070BD304670BD98020C4C000F205C1B02DC
:100AB0009C0FD368641CDB0301D5314603E0126848
:100AC000D20600D4294600F0F4FB22460023FFF7AB
:100AD00025FB70BD0010024000093D0050170008C2
:100AE000FEB505007ED0F74CE7680C20E6680740AD
:100AF0000120000406402878C00747D0082F05D001
:100B00000C2F0AD101200004864206D12068800300
:100B10003CD568680028E5D038E001206968000409
:100B2000814203D121680143216011E005230122A4
:100B30001B0492049942216802D111432160F1E71C
:100B4000814321602168014000912068904320602A
:100B5000686800280DD0FFF747FC009005E0FFF71C
:100B600043FC0099401A64287ED820688003F6D59B
:100B70000CE0FFF739FC009005E0FFF735FC009929
:100B8000401A6428F0D820688003F6D428788007BB
:100B90005DD5E868810604D5226820210A432260D9
:100BA00088430923042F0DD00C2F01D1002E09D02A
:100BB00000283CD02168994301432160FFF714FCD1
:100BC000064628E02168490701D500288AD06168D7
:100BD0001F22120291432A691202114361602168A7
:100BE000994300E091E101432160FFF73DFFE16897
:100BF00009060A0FB449895CC840B4490860B44882
:100C00000068FFF789FD002874D120E0FFF7ECFBB6
:100C1000801B0228A8D820684007F7D560681F21EC
:100C20000902884329690902084360600FE02068CF
:100C3000400840002060FFF7D7FB064604E0FFF7BE
:100C4000D3FB801B02288FD820684007F7D4287870
:100C5000C00661D5002F0DD0A86900284BD02068B0
:100C6000FF210131084300E0C6E02060FFF7BCFB34
:100C700006462DE02068800502D5A8690028A5D089
:100C80006068072149038843296A084360606068F7
:100C9000297F0002000A090608436060286A410BA8
:100CA0000120C003491C8840E16809060A0F8649F3
:100CB000895CC8408549086085480068FFF72CFDBD
:100CC000002817D128E0FFF78FFB801B0228A1D84E
:100CD00020688005F7D56068072149038843296AA1
:100CE000084360606068297F0002000A0906084323
:100CF000606011E0E1E02168FF2001308143216064
:100D0000FFF772FB064604E0FFF76EFB801B02282C
:100D100072D820688005F7D428786E4E000724D555
:100D200068690028306910D0012108433061FFF75D
:100D30005BFB009005E0FFF757FB0099401A022883
:100D40005AD830698007F6D50FE04008400030617E
:100D5000FFF74AFB009005E0FFF746FB0099401AB9
:100D6000022849D830698007F6D42878400765D52D
:100D700000200290A06BC00006D4A06B01210907DF
:100D80000843A0630120029053480168C90511D4AB
:100D90000168821511430160FFF726FB009005E012
:100DA000FFF722FB0099401A642825D84A480068BA
:100DB000C005F5D5FF20AA680130824203D1316910
:100DC0000143316111E001218902002A07D0052386
:100DD0001B029A4203D132690A433261EFE732695A
:100DE00082433261306988433061A86800280FD09F
:100DF000FFF7FAFA009007E05EE0FFF7F5FA0099D6
:100E0000411A3648814257D830698005F5D50DE042
:100E1000FFF7EAFA009006E0FFF7E6FA0099411AB8
:100E20002E48814248D830698005F5D402980028C0
:100E300004D0A06B012109078843A063686A0028D9
:100E400065D00C2F4CD0012636060228206805D02C
:100E5000B0432060FFF7C8FA05462FE0B04320609A
:100E6000FFF7C2FA074604E0FFF7BEFAC01B0228EC
:100E700022D820688001F7D4E96AA86AE2680843AA
:100E8000296BFD231B049A4311430843E06020684B
:100E900030432060FFF7A8FA054604E0FFF7A4FA04
:100EA000401B022808D820688001F7D52FE0FFF703
:100EB0009BFA401B022801D90320FEBD2068800157
:100EC000F5D424E000100240401700081000002074
:100ED000080000204010024000700040881300000D
:100EE0000128EAD0E06801210904AA6A0140914280
:100EF0000BD10F218904EA6A0140914205D10321F7
:100F000089050840296B884201D00120FEBD0020E0
:100F1000FEBD0000094910B5401E884201D90120DC
:100F200010BD074C60610321081F00F0DBF90020B1
:100F3000A06107202061002010BD0000FFFFFF001E
:100F400000E000E0FEE701688A69D243920701D41D
:100F500000228A6200688169C943C90703D0816998
:100F60000122114381617047F7B5044600680F46BE
:100F70008169C943C90636D44168890104D44168EE
:100F80000122920311434160002625464035206826
:100F90008069C043800612D5781CF8D0FFF724FA88
:100FA0000299401AB84201D8002FF0D1616C20207C
:100FB000014361646870AE702E700120FEBD21682F
:100FC0001020C86120682027C7612046FFF7BBFFBB
:100FD00020684168054A11404160606C0421084363
:100FE00060646F70E7E70020FEBD000000E800FECF
:100FF000F8B50446164615481D46DAB2C3020090FD
:10100000079F204600F024F83A462046069900F053
:1010100080F8002818D12846F5B2012809D02168A7
:10102000300A88623A462046069900F072F8002895
:101030000AD1206885620097002280212046069B05
:1010400000F01AF8002800D00120F8BD0020008030
:10105000F0B50668059C7568064F600D38438543FA
:101060008805800D1104084318432043054375602B
:10107000F0BD0000FF63FF03F8B51D4617460E469E
:10108000044609E0681C07D0FFF7AEF90699401A3C
:10109000A8420BD8002D09D02068816930468843CA
:1010A0000FD00020B842EDD00020F8BD616C2020A8
:1010B00001436164403460700020A0702070012002
:1010C000F8BD0120EEE770B516460D4604460FE068
:1010D000324629462046FFF747FF002801D001206D
:1010E00070BDFFF781F9801BA84208D8002D06D0FB
:1010F00020688069C0438006EAD4002070BD616C1E
:10110000202001436164403460700020A070207092
:10111000E5E770B516460D46044611E0324629460D
:101120002046FFF721FF002801D0012070BD681C78
:1011300006D0FFF759F9801BA84208D8002D06D029
:1011400020688069C0438007E8D4002070BD616CCE
:10115000202001436164403460700020A070207042
:10116000E3E7000070B586B014216846FFF70DF87C
:101170001148C16A01252943C162C06A0526284079
:1011800036070590002220213046FFF726F904207B
:10119000002400900194694602943046FFF748F815
:1011A0002020009002946946019503943046FFF791
:1011B0003FF806B070BD00000010024010B51348A3
:1011C0001149016012494160002181600161416162
:1011D00081610122C161C2600162FFF755F90028F7
:1011E00001D0FFF711F800210848FFF703F90028A4
:1011F00001D0FFF709F800210448FFF720F9002883
:1012000001D0FFF701F810BD005400401400002089
:101210005B3D3000FEE77047704710B5FFF760FA9E
:1012200010BD000010B598B034216846FEF7ADFF40
:1012300014210DA8FEF7A9FF182112A8FEF7A5FF9B
:101240001A4801680322D2029143C214891801602E
:1012500001210220039110210090049109900024A3
:1012600080050C900A940B946846FFF739FC00281F
:1012700001D072B6FEE70F200D9003200E900F9460
:101280001094002111940DA8FFF720FB002801D035
:1012900072B6FEE708201290169412A8FFF76EFAB5
:1012A000002801D072B6FEE718B010BD00700040F3
:1012B0007047F8B5040C8BB2264682B25E430D0C23
:1012C0001046370C584336048019002179411646E0
:1012D0006E43370C36048019794126466E438919CE
:1012E000F8BD00008307FF22DB0E9A408907090E34
:1012F0009940002808DB830809489B001B181868E0
:1013000090430843186070470007000F08388308AF
:1013100004489B001B18D86990430843D861704764
:1013200000E400E000ED00E002E008C8121F08C180
:10133000002AFAD170477047002001E001C1121F56
:10134000002AFBD1704700000EB5FFF7D1F9FFF777
:1013500069FFFFF707FFFFF731FFF74C0020207010
:10136000451E0126334606224021F4480196029587
:101370000094FFF7E3F8012307224021EF4801968C
:1013800002950094FFF7DAF813E005200421000726
:10139000FFF71EF800280CD16078401C6070012017
:1013A000A0706078052801D900206070FA20FEF74F
:1013B0002DFFA0780028E8D0B8E16078002806D09A
:1013C0006078012815D06078022850D08DE0FF2089
:1013D000207000250126ED43334602224021D748E4
:1013E000019602950094FFF7A9F8019602950094E2
:1013F00075E000256F1E01263046A840C0432070CE
:10140000012303224021CD48029701960094FFF763
:1014100095F81920FEF7FAFE6D1CEDB2082DEBD3FE
:10142000FF202070012303224021C4480297019627
:101430000094FFF783F800253046A840C043207091
:10144000012302224021BD48029701960094FFF734
:1014500075F81920FEF7DAFE6D1CEDB2082DEBD3FE
:10146000FF2020706846D0C00123022239E0002707
:101470000725FF4301263046A840C04320700123C2
:1014800002224021AD48029701960094FFF756F8DA
:101490001920FEF7BBFE6D1EEDD5FF202070012345
:1014A00002224021A548029701960094FFF746F8D2
:1014B00007253046A840C043207001230322402165
:1014C0009E48029701960094FFF738F81920FEF71E
:1014D0009DFE6D1EEDD5FF2020706846D0C0012313
:1014E000032240219548FFF729F86078032815D199
:1014F00000202070451E01263346022240218F48DD
:10150000019602950094FFF719F801230322402168
:101510008A48019602950094FFF710F86078042835
:101520007ED10027461F01252846B840C0432070C1
:101530000123022240218148029601950094FEF782
:10154000FDFF0123032240217C480296019500946F
:10155000FEF7F4FF4B20FEF759FE7F1CFFB2082F69
:10156000E2D3FF202070012302224021734802961B
:1015700001950094FEF7E2FF0123032240216F480A
:10158000029601950094FEF7D9FF00272846B8403F
:10159000C043207001230222402168480296019531
:1015A0000094FEF7CBFF01230322402163480296FB
:1015B00001950094FEF7C2FF4B20FEF727FE7F1C2B
:1015C000FFB2082FE2D3FF20207001230222402126
:1015D0005A48029601950094FEF7B0FF01230322BA
:1015E00040215648029601950094FEF7A7FF072771
:1015F0002846B840C04320700123022240214F48B2
:10160000029601950094FEF799FF012303224021E1
:101610004A48029601950094FEF790FF192000E0D9
:1016200047E0FEF7F3FD7F1EE2D5FF202070012387
:10163000022240214148029601950094FEF77EFF68
:101640000123032240213D48029601950094FEF7B4
:1016500075FF07272846B840C043207001230222A7
:1016600040213648029601950094FEF767FF01235A
:10167000032240213148029601950094FEF75EFF57
:101680001920FEF7C3FD7F1EE4D5FF202070012343
:10169000022240212948029601950094FEF74EFF50
:1016A0000123032240212548029601950094FEF76C
:1016B00045FF6078052837D10027851F01260020C7
:1016C00020700123022240211C48019602950094BB
:1016D000FEF734FF012303224021184801960295AA
:1016E0000094FEF72BFFFF20F530FEF78FFDFF2063
:1016F0002070012302224021104801960295009497
:10170000FEF71CFF0123032240210C48019602959D
:101710000094FEF713FFFF20F530FEF777FD7F1CE6
:10172000032FCCDB002060700020A070A078002880
:1017300000D13EE641E60000000000201400002039
:101740000000000000000000010203040607080971
:10175000030406080C101820300000007C17000855
:101760000000002014000000281300089017000853
:10177000140000204C040000381300080000000092
:101780000100000004000000000000000000200034
:04000005080000C12E
:00000001FF
