:020000040800F2
:1000000020080020A1010008E9200008C51C000804
:1000100000000000000000000000000000000000E0
:10002000000000000000000000000000D9250008CA
:100030000000000000000000EB200008012600087E
:10004000B3010008B3010008B3010008B3010008C0
:10005000B3010008B3010008430A0008B301000817
:1000600000000000B3010008B3010008B30100085C
:10007000B3010008B301000800000000B30100084C
:100080000000000000000000000000000000000070
:10009000B301000800000000B3010008B30100082C
:1000A00000000000B3010008000000000000000094
:1000B000B3010008B30100080000000000000000C8
:1000C00000F002F800F040F80CA030C808382418FE
:1000D0002D18A246671EAB4654465D46AC4201D180
:1000E00000F032F87E460F3E0FCCB6460126334272
:1000F00000D0FB1AA246AB4633431847CC31000070
:10010000EC310000103A02D378C878C1FAD852070F
:1001100001D330C830C101D504680C6070470000BD
:100120000023002400250026103A01D378C1FBD813
:10013000520700D330C100D50B6070471FB500F0E7
:10014000E3F81FBD10B510BD00F01EFC1146FFF70F
:10015000F5FF02F033FD00F036FC03B4FFF7F2FFC9
:1001600003BC00F067FC000030B40C490C684A681E
:1001700023681068C0181060241D121D8C4207D21D
:100180008A4208D20C604A6030BC40004008704788
:100190000C00DC3CF6E70A00DC3AF3E7B40100208F
:1001A0000748804707480047FEE7FEE7FEE7FEE70F
:1001B000FEE7FEE704480549054A064B7047000084
:1001C00031270008C100000820020020200800207C
:1001D0002004002020040020FEB5054610460C46F1
:1001E000184373D0AE468C460020AD1A01469C41A0
:1001F00067D36646002701243D46B61A9D4102D3C7
:1002000013463A462124654676462F04360C3E4373
:100210002D0CB61A9D4104D3150C1B042B4312045C
:100220001034654676462F06360A3E432D0AB61A26
:100230009D4104D3150E1B022B4312020834654660
:1002400076462F0736093E432D09B61A9D4104D341
:10025000150F1B012B431201241D65467646AF077F
:10026000B6083E43AD08B61A9D4104D3950F9B00D6
:100270002B439200A41C65467646EF0776083E4362
:100280006D08B61A9D411AD392185B41641C16E0A2
:100290000018764665464941B71A9D410191009084
:1002A00009D36046B11A98418E4684460098019958
:1002B0000025401C6941DD0752082A435B08641E83
:1002C000E6D57246634603B0F0BDFFE70020014665
:1002D000C046C0462A462346F5E700000B4A30B523
:1002E00011460B4C60310B46DC3B0CC1372106E05C
:1002F000020C8D0012185A51064A504300190A4642
:10030000491E002AF4DC30BD0120E7E7540100203B
:10031000E119D666CD0D010001E004C0091F0429D2
:10032000FBD28B0701D50280801CC90700D0027068
:10033000704700290BD0C30702D00270401C491E31
:10034000022904D3830702D50280801C891EE3E7BB
:100350000022EEE70022DFE7002203098B422CD3C4
:10036000030A8B4211D300239C464EE003460B4305
:100370003CD4002243088B4231D303098B421CD367
:10038000030A8B4201D394463FE0C3098B4201D359
:10039000CB01C01A524183098B4201D38B01C01A91
:1003A000524143098B4201D34B01C01A5241030908
:1003B0008B4201D30B01C01A5241C3088B4201D3B7
:1003C000CB00C01A524183088B4201D38B00C01A64
:1003D000524143088B4201D34B00C01A5241411A8B
:1003E00000D201465241104670475DE0CA0F00D06E
:1003F0004942031000D34042534000229C46030967
:100400008B422DD3030A8B4212D3FC22890112BAEC
:10041000030A8B420CD3890192118B4208D38901C4
:1004200092118B4204D389013AD0921100E08909DC
:10043000C3098B4201D3CB01C01A524183098B42BD
:1004400001D38B01C01A524143098B4201D34B01A6
:10045000C01A524103098B4201D30B01C01A524109
:10046000C3088B4201D3CB00C01A524183088B4290
:1004700001D38B00C01A5241D9D243088B4201D319
:100480004B00C01A5241411A00D201466346524104
:100490005B10104601D34042002B00D54942704703
:1004A00063465B1000D3404201B50020C046C04601
:1004B00002BD7047704770470246C80FC0078143AE
:1004C0004B0030B54B405B009B0D20D01923DB0661
:1004D000C91801231B05994220DB0324A407042526
:1004E0001346AB400BD3002B04D1EB0613409B000B
:1004F000E34204D401246407002312195941FF2365
:100500001B0599420BD2C9000143500F09E0CB02F1
:1005100004D501430803024305D0054830BDFF213F
:10052000C905084330BD084607210905884330BD89
:100530000000C07F0121C9050123411842001B06AC
:10054000D3185B0E0AD0C1100722D20689184007C3
:100550005242D14201D5520089187047090208D58C
:100560000146002A03D0C10FC9070020704710467A
:100570007047420202D00020024970470721090556
:100580000143F4E70000F87FF0B5FF252D04C6090C
:10059000C209FF2704462E400137CB093E4348409D
:1005A0002A402B400746002A6BD0002B69D0AA4274
:1005B00067D0AB4265D0002800DA32460125ED0550
:1005C00029432C4309022002090AD21A4B0C7F242A
:1005D000E31A434C000A7C44E35C7D242404121992
:1005E00014145B00A218884201D3521C00E04000A2
:1005F00049420C465C4324115C43DB016415E3185B
:10060000040A5C43C502200D0C4644436419250AC4
:100610005D432303EC0C0D46654300030019EB1802
:100620004C42A34201D35B18401CD4052018002B78
:1006300007D05B00C91804D3401C002901D1400831
:1006400040003F2189048A4209D3002A08DC1106B0
:10065000090F04D0032149074018C00FC007F0BD9F
:1006600001224100120689187F2252069142F6D2D9
:1006700005214907C84201D59010F0BDFF20C005F3
:10068000F0BD002F00DA32461648AA4207D2AB422C
:1006900005D21902090E17D0F80FC007F0BDFF25CB
:1006A00063002D06AB42F9D84900A942F6D8AB4207
:1006B00001D1A942F2D0A94201D1002101E061009B
:1006C0004908D0050843F0BD1102090EFBD0FF20F8
:1006D0000243D005F0BD0A460146104654E700002B
:1006E000AB2C00000000C07F0102C21504D0012322
:1006F000DB071943002A0ADB9E239A1A02D4084614
:10070000D0407047FF2241001206914201D90020DB
:100710007047C017C04370471F22030C02D10F223D
:1007200000041CD0030E01D10002083A030F01D1CE
:100730000001121F830F01D18000921E002801DBEF
:100740004000521ED2055118021251181922904031
:1007500004D3491C002801D14908490008467047C4
:10076000C10FC90700D04042012292071143D3E7CD
:1007700001218907D0E7000010B5FF22C30D134007
:1007800009D05A4007D0914205DA5C42A14202DD0D
:10079000C905081810BDC40FE407002B06D0002AB5
:1007A00006D0002902DBFF20C0050443204610BD0F
:1007B0004102FCD0004810BD0000C07F10B500F021
:1007C000BBF8006810BD10B5044600F0B5F8046031
:1007D00010BD0000F0B53D4B02460C461C40002009
:1007E000002C63D03A4D8B4366D000296BDB0B0D98
:1007F0001D05A94301252D0529430124FD33E340AF
:1008000001D392184941FF3381339C468B02940DEA
:100810000121234389074C42920200271B198C10A7
:100820005D1A04D42D1B02D42B4665004919921879
:100830005B416408F4D15C1A08D40125ED07EE177A
:100840005519744102D42A462346491C94185B4129
:10085000012292071D46E61B8D4106D4B61A85413A
:1008600003D42B46550034467F1924195B415208A6
:10087000802AEFD1234300D0022338460A22D040F9
:1008800001D3012213438A0510436246890A1205E7
:100890008918002B09D00122D34002D30022401C2A
:1008A0005141002B01D140084000F0BD0B03134320
:1008B00007D0C90FC907F0BD0803104303D10029B1
:1008C00001DB1046F0BD00202946F0BD0000F07F9E
:1008D0000000F87F10B5FF231B0644009C421DD882
:1008E0004C009C421AD80346124A0B4307D4401AC4
:1008F00002D3EFF3008010BDEFF3008010BD081AA3
:1009000006D2EFF3008001219043C907084302E0BB
:10091000EFF30080904380F3008810BD0D231B048B
:100920001A4204D01146002000F00AF810BD00F071
:100930001FF810BD0000009000487047BC01002067
:10094000C80212D54803400F002804D0C803C04392
:10095000012188407047EFF3008000010009032166
:100960000907084380F300887047002070470000A3
:1009700010B5024800F02FF810BD00000000C07F45
:1009800000487047BC0100207546FFF7F9FFAE46EE
:10099000050069465346C008C000854618B020B51A
:1009A000FFF708FC60BC00274908B6460026C0C512
:1009B000C0C5C0C5C0C5C0C5C0C5C0C5C0C5403D17
:1009C00049008D46704710B50446C046C0462046D3
:1009D000FFF7C3FB10BD10B50C461107090F09291D
:1009E00004D00A290AD008290CD104E011460820B5
:1009F000FFF7A6FF06E0510606D501E0510601D536
:100A00000120C007214610BDD10607D50101090903
:100A1000CC084907000E0006044309E0410F2002FC
:100A20004907000A0143200E00061D22D14101435F
:100A30000846E7E701491820ABBEFEE726000200A2
:100A4000704710B5042000F043F810BD72B6FEE701
:100A500070B5044600F024F90546601C02D0044835
:100A60000078241800F01CF9401BA042FAD370BD96
:100A70003800002070B5042826D105263607042149
:100A8000304600F001F90125104C002803D12570F3
:100A900000F006F9A0600421304600F0F5F80028C7
:100AA00012D000F0FDF8A168401A0021A06021706A
:100AB000FFF714FCFFF758FB0B21FFF757FCE0682A
:100AC0008842F7D0E160657070BD0000040000202E
:100AD00010B504494A69024202D04861FFF7CAFFD3
:100AE00010BD000000040140F8B5002303240125D7
:100AF000B8E032462E469E40B446324079D00E7958
:100B0000B607B60F012E01D0022E17D186682746F0
:100B1000B6465E00B74000967646BE43B646CF68FE
:100B2000009EB74076463743876046686746BE43B7
:100B30000F79FF06FF0F9F40374347600E79F6435A
:100B4000B6070ED0C6682746B4465E00B646B74024
:100B50006646BE43B4468F687646B740664637431E
:100B6000C7600E79B607B60F022E14D1DE08B600A4
:100B700036180096366A5F07B446FE0E0F27B64653
:100B8000B7406646BE43B4460F697646B7406646F0
:100B90003743009E376206682746B4465E00B64675
:100BA000B7406646BE430F79B446BF07BF0F7646CF
:100BB000B7406646374307604E68B603B60F50D05D
:100BC0002B4F7E6B2E437E639F082A4EBF00BE19BB
:100BD0000096B6680F27B4469E07360FB646B74054
:100BE0006646BE4305273F07B446B84202D10027F8
:100BF00010E036E0204FB84201D101270AE01F4F34
:100C0000B84201D1022705E01D4FB84201D10527A6
:100C100000E006277646B74066463743009EB76039
:100C2000184E36684F689643FF0300D51643154F9C
:100C30003E607E684F689643BF0300D51643114F50
:100C40007E60BE684F689643FF0200D516430D4F85
:100C5000BE60FE684F689643BF0200D51643094A3E
:100C6000D6605B1C0A681646DA4000D041E7F8BD42
:100C70000010024000000140000400500008005035
:100C8000001C0050000401400069084000D0012011
:100C90007047002A01D0816170478162704700006F
:100CA00001488068704700003800002070B5024697
:100CB00040325378202B1CD11378012B19D00123FB
:100CC000137024245470046825689D4325600468CB
:100CD00025681E03B5432560046825680D4325601B
:100CE00000680168194301602020507000201070D6
:100CF00070BD022070BD70B5024640325378202B83
:100D00001BD11378012B18D00124147024235370A5
:100D100003681D68A5431D6005682B680F26360211
:100D2000B343090219432960006801682143016047
:100D3000202050700020107070BD022070BD000097
:100D400070B5040006D02546403568780026002896
:100D500002D005E0012070BD2E70204600F09AF907
:100D600024206870206801684908490001600F214B
:100D70006068090688432168086121688A68012043
:100D8000C00382438A60E1680129A16808D021225A
:100D90009202114322689160E168022902D005E0C5
:100DA0000143F7E701212268C902516021684A68BE
:100DB0000F4B1A434A602168CA688243CA6061695E
:100DC00020690843A169090208432168C860216AB3
:100DD000E069084321680860206801680122114326
:100DE00001606664202068702663AE70002070BDCC
:100DF00000800002FFB5054604464035687883B0A0
:100E0000202875D10C98002814D00D98002811D0F6
:100E1000287801286CD001202870FFF741FF074691
:100E2000012200901923D103204601F015F8002873
:100E300074D103E00120400260646FE022206870FA
:100E40004020A870002666640C9860620D9860854A
:100E500066630E980090019704A90EC9204600F021
:100E600087FF002801D02E7058E0618D3448FF299B
:100E700005D9FF22228501231B06009006E0618D23
:100E800021850090208D0123C2B25B062046049983
:100E900000F0CEFF00970022042120460E9B00F0B8
:100EA000DBFF00283AD12068406A616A0870606AF6
:100EB000401C6062208D401E81B22185608D401EE5
:100EC0006085608D00281FD000291DD10097002269
:100ED000802120460E9B00F0BFFF00281ED1608DB0
:100EE000FF2806D9FF22228501231B06009607E072
:100EF00024E0608D20850096208D0123C2B25B0620
:100F00002046049900F094FF608D0028C2D13A4633
:100F100020460E9900F0C7FF002802D0012007B03C
:100F2000F0BD20682021C16120684268054B1A404D
:100F300042606970AE702E700020F0E70220EEE78C
:100F40000024008000E800FEFFB505460446403559
:100F5000687883B0202872D10C98002814D00D989E
:100F6000002811D02878012869D001202870FFF7C7
:100F700097FE0746012200901923D103204600F076
:100F80006BFF002871D103E00120400260646CE037
:100F9000212068704020A870002666640C9860626A
:100FA0000D98608566630E980090019704A90EC99C
:100FB000204600F00DFF002801D02E7055E0608D16
:100FC000FF2805D9FF22228501231B06009606E093
:100FD000608D20850096208D0123C2B25B062046DD
:100FE000049900F025FF3A4620460E9900F081FF53
:100FF00000283AD1606A216800788862606A401CE3
:101000006062608D401E6085208D401E80B220850C
:10101000618D00291FD000281DD10097002280215A
:1010200020460E9B00F018FF00281ED1608DFF287F
:1010300006D9FF22228501231B06009607E024E043
:10104000608D20850096208D0123C2B25B0620466C
:10105000049900F0EDFE608D0028C4D13A46204688
:101060000E9900F020FF002802D0012007B0F0BD4B
:1010700020682021C16120684268054B1A40426007
:101080006970AE702E700020F0E70220EEE70000DD
:1010900000E800FE10B586B0044614216846FFF74C
:1010A00059F91049206888421AD10F4CE16A012091
:1010B0000143E162E16A0290014005910321490286
:1010C00000911221019103210490039105206946AA
:1010D0000007FFF709FDA06B012149050843A06344
:1010E00006B010BD00540040001002400248816864
:1010F00002788918816070473800002010B50848D0
:1011000000240168402211430160204600F00AF8E3
:10111000002801D0012401E000F026F8204610BD8F
:101120000020024070B504460D4D7D202978C00096
:10113000FFF712F901460B480068FFF70DF900F0C0
:10114000A9FD002809D1042C07D200222146401E07
:1011500000F022F800206C6070BD012070BD00001E
:1011600038000020440000200448416B0122114354
:101170004163816B02041143816370470010024098
:10118000002805DBC106C90E01208840014908601E
:101190007047000000E100E010B501F02BFB10BD2E
:1011A000F8B50446007800274E4D800671D54D4EA7
:1011B000403EB06BC00004D4B06BA9050843B063D7
:1011C000012749480168C90511D4016882151143F6
:1011D0000160FFF765FD009005E0FFF761FD0099F4
:1011E000401A642837D840480068C005F5D53268F1
:1011F0000321090560680A400140914208D081033B
:10120000890F032904D13168890301D50120F8BD74
:101210002A69032109040A4022D0084090421FD0C5
:10122000207880061CD528692A6988430121C904D1
:101230000A432A612A698A432A612861C0050FD5B9
:10124000FFF72EFD009008E0FFF72AFD0099411AF4
:101250002648814201D90320F8BD28698005F3D5CD
:1012600061688803800F032805D132680005824336
:1012700001400A4332602869032261681204114068
:1012800008432861002F04D0B16B0120000781437F
:10129000B1632078800705D5E8680C218843A168F0
:1012A0000843E8602078400706D5E86803218902F2
:1012B0008843E1680843E8602078000706D5E868BD
:1012C00003210903884321690843E8602078000668
:1012D00006D5E86803218904884361690843E8600A
:1012E0000020F8BD4010024000700040881300004C
:1012F000F8B50E46050038D05E480068C007C00F3C
:10130000B04214D25B4C206840084000304320605B
:10131000FFF7C6FC074605E0FFF7C2FCC11B5648B5
:1013200081427AD82068C007C00FB042F4D1287833
:10133000524C800705D5E068F0218843A96808432E
:10134000E0602878C00752D06868022806D00328D9
:1013500007D0216801280AD0890504E021688903A3
:1013600001E021688901002903DB0120F8BD49075C
:10137000F9E7E168890889000143E160FFF790FC23
:101380000746686802280AD0032814D001281ED016
:1013900029E0FFF785FCC11B374881423DD8E06852
:1013A0000007800F0228F4D121E0FFF779FCC11B70
:1013B0003148814231D8E0680007800F0328F4D11A
:1013C00015E0FFF76DFCC11B2B48814225D8E06872
:1013D0000007800F0128F4D109E0FFF761FCC11B71
:1013E0002548814219D8E0680007800FF5D12148CF
:1013F0000168C907C90FB14217D9016849084900F6
:1014000031430160FFF74CFC074608E005E0FFF7B9
:1014100047FCC11B1848814201D90320F8BD15487B
:101420000068C007C00FB042F1D12878400706D548
:10143000E068072109028843E9680843E0602878EA
:10144000000707D5E0680721C90288432969C90058
:101450000843E06000F01AF8E168094A0906090F3C
:10146000515CC8400749086007480068FFF75AFE0A
:10147000F8BD000000200240881300000010024068
:101480006C320008440000203C00002070B51A4A6D
:10149000D3681A490C2018408D0004280CD04E0047
:1014A000082810D00C2810D050680004410F0120EB
:1014B000C003491C884070BD1068C00601D50846AD
:1014C00070BD284670BD304670BD98020C4C000FB0
:1014D000205C1B029C0FD368641CDB0301D53146E2
:1014E00003E01268D20600D4294601F05DF92246D5
:1014F0000023FEF771FE70BD0010024000093D00A0
:101500007C320008FEB505007ED0F74CE7680C2061
:10151000E66807400120000406402878C00747D04D
:10152000082F05D00C2F0AD101200004864206D1D5
:10153000206880033CD568680028E5D038E00120A9
:1015400069680004814203D121680143216011E0F0
:10155000052301221B0492049942216802D1114300
:101560002160F1E7814321602168014000912068FA
:1015700090432060686800280DD0FFF791FB009031
:1015800005E0FFF78DFB0099401A64287ED820689B
:101590008003F6D50CE0FFF783FB009005E0FFF732
:1015A0007FFB0099401A6428F0D820688003F6D4A5
:1015B000287880075DD5E868810604D52268202157
:1015C0000A43226088430923042F0DD00C2F01D138
:1015D000002E09D000283CD02168994301432160A6
:1015E000FFF75EFB064628E02168490701D5002881
:1015F0008AD061681F22120291432A6912021143A4
:1016000061602168994300E091E101432160FFF7A7
:101610003DFFE16809060A0FB449895CC840B44936
:101620000860B4480068FFF77DFD002874D120E011
:10163000FFF736FB801B0228A8D820684007F7D5A3
:1016400060681F2109028843296909020843606014
:101650000FE02068400840002060FFF721FB0646AD
:1016600004E0FFF71DFB801B02288FD8206840078D
:10167000F7D42878C00661D5002F0DD0A8690028BE
:101680004BD02068FF210131084300E0C6E0206014
:10169000FFF706FB06462DE02068800502D5A86905
:1016A0000028A5D06068072149038843296A0843B8
:1016B00060606068297F0002000A090608436060D4
:1016C000286A410B0120C003491C8840E1680906D3
:1016D0000A0F8649895CC8408549086085480068CA
:1016E000FFF720FD002817D128E0FFF7D9FA801B6B
:1016F0000228A1D820688005F7D560680721490332
:101700008843296A084360606068297F0002000AF4
:1017100009060843606011E0E1E02168FF20013024
:1017200081432160FFF7BCFA064604E0FFF7B8FAF0
:10173000801B022872D820688005F7D428786E4E66
:10174000000724D568690028306910D001210843BA
:101750003061FFF7A5FA009005E0FFF7A1FA0099C4
:10176000401A02285AD830698007F6D50FE04008A1
:1017700040003061FFF794FA009005E0FFF790FA1F
:101780000099401A022849D830698007F6D4287891
:10179000400765D500200290A06BC00006D4A06B66
:1017A000012109070843A063012002905348016802
:1017B000C90511D40168821511430160FFF770FA61
:1017C000009005E0FFF76CFA0099401A642825D8CC
:1017D0004A480068C005F5D5FF20AA68013082425A
:1017E00003D131690143316111E001218902002AED
:1017F00007D005231B029A4203D132690A433261A2
:10180000EFE7326982433261306988433061A8680A
:1018100000280FD0FFF744FA009007E05EE0FFF7E2
:101820003FFA0099411A3648814257D830698005FD
:10183000F5D50DE0FFF734FA009006E0FFF730FA37
:101840000099411A2E48814248D830698005F5D464
:101850000298002804D0A06B012109078843A063E7
:10186000686A002865D00C2F4CD001263606022865
:10187000206805D0B0432060FFF712FA05462FE03C
:10188000B0432060FFF70CFA074604E0FFF708FAC0
:10189000C01B022822D820688001F7D4E96AA86A10
:1018A000E2680843296BFD231B049A431143084354
:1018B000E060206830432060FFF7F2F9054604E05D
:1018C000FFF7EEF9401B022808D820688001F7D501
:1018D0002FE0FFF7E5F9401B022801D90320FEBDE8
:1018E00020688001F5D424E0001002406C3200082A
:1018F000440000203C0000204010024000700040E6
:10190000881300000128EAD0E06801210904AA6ACE
:10191000014091420BD10F218904EA6A01409142B2
:1019200005D1032189050840296B884201D0012097
:10193000FEBD0020FEBD10B500680B464068C0210A
:10194000C94301400002000ECC04D870E40E5C7064
:101950008C06A40E0904490F9C701970002A0AD144
:1019600000F0C4FBD870587800F0C0FB587098782D
:1019700000F0BCFB9870002010BD000030B50B4695
:101980000168896A5960016809694904490C9960CC
:10199000006804680F482146014088024D04800E0B
:1019A00018706D0E49065D70490E99706102490EFE
:1019B00040242140D970002A0AD100F097FB18700A
:1019C000587800F093FB5870987800F08FFB98706F
:1019D000002030BD7F7F7F00F8B5040050D0254641
:1019E00020356878002803D12870204600F052F88E
:1019F000022068702168CA2048622168532048622A
:101A0000204600F087FBFF2604270028206802D02C
:101A100046626F7034E081681D4A11408160216820
:101A200088686268A369104322691A43104388607A
:101A30002168E06808612068016922891204114365
:101A400001612068C16880229143C1602068C16C37
:101A500089088900C164E169606901432068C26C3A
:101A60001143C1642068806880060BD4204600F0D2
:101A7000F7F8002806D0206846626F7000202870B2
:101A80000120F8BD20684662012068700020F8BD82
:101A9000BFFF8FFF00680549884205D104480169EE
:101AA00001229204114301617047000000280040A8
:101AB00040100240F8B505460446203528780B460C
:101AC00001280FD00120287002206870002A0BD056
:101AD000D8789E78000406435878097800024903B4
:101AE000084317E00220F8BD5878C10603D5EF215E
:101AF00008400A305870D87800F000FB0604587887
:101B000000F0FCFA00020643987800F0F7FA06436A
:101B10001878400306432168CA2048622168532090
:101B20004862204600F0F6FA0027002811D111483B
:101B30000640206846602068C16880229143C160E9
:101B40002068806880060CD4204600F089F80028C0
:101B500007D02168FF204862042068702F700120A0
:101B6000F8BD2168FF204862012068702F700020B6
:101B7000F8BD00003FFFFF00F8B5064604462036DA
:101B800030780D46012822D001203070022070707C
:101B9000206800278068002A1BD0400600D4EF7020
:101BA0002978A878090408436978EA7809021204B8
:101BB0001143084300902168CA20486221685320DD
:101BC0004862204600F0A6FA002837D116E002202D
:101BD000F8BD400600D4EF70287800F08FFA0304B7
:101BE000687800F08BFA00020343A87800F086FAC8
:101BF0000343E878000403430093DCE717490098A7
:101C0000084021680860206881680122920491439D
:101C100081602969E868084321688A681043886000
:101C20002068C16880229143C16020688068800676
:101C30000CD4204600F014F8002807D02168FF20BB
:101C400048620420707037700120F8BD2168FF20C1
:101C500048620120707037700020F8BD7F7F7F00E0
:101C600070B504460068C168A0229143C160FFF7C7
:101C700017F87D260546F60006E0FFF711F8401B31
:101C8000B04201D9032070BD2068C0688006F4D539
:101C9000002070BD094910B5401E884201D90120BD
:101CA00010BD074C60610321081F00F0A3FD002058
:101CB000A06107202061002010BD0000FFFFFF0091
:101CC00000E000E0FEE701688A69D243920701D490
:101CD00000228A6200688169C943C90703D081690B
:101CE0000122114381617047F7B5044600680F4631
:101CF0008169C943C90636D44168890104D4416861
:101D00000122920311434160002625464035206898
:101D10008069C043800612D5781CF8D0FEF7C0FF5A
:101D20000299401AB84201D8002FF0D1616C2020EE
:101D3000014361646870AE702E700120FEBD2168A1
:101D40001020C86120682027C7612046FFF7BBFF2D
:101D500020684168054A11404160606C04210843D5
:101D600060646F70E7E70020FEBD000000E800FE41
:101D7000F8B50446164615481D46DAB20090079F8E
:101D80000023204600F054F83A462046069900F019
:101D9000B0F8002818D12846F5B2012809D02168EA
:101DA000300A88623A462046069900F0A2F80028D8
:101DB0000AD1206885620097002240212046069BB8
:101DC00000F04AF8002800D00120F8BD0020008073
:101DD000F8B50446164615481D46DAB2C30200900F
:101DE000079F204600F024F83A462046069900F066
:101DF00080F8002818D12846F5B2012809D02168BA
:101E0000300A88623A462046069900F072F80028A7
:101E10000AD1206885620097002280212046069B17
:101E200000F01AF8002800D00120F8BD0020008042
:101E3000F0B50668059C7568064F600D384385430C
:101E40008805800D1104084318432043054375603D
:101E5000F0BD0000FF63FF03F8B51D4617460E46B0
:101E6000044609E0681C07D0FEF71AFF0699401ADD
:101E7000A8420BD8002D09D02068816930468843DC
:101E80000FD00020B842EDD00020F8BD616C2020BA
:101E900001436164403460700020A0702070012014
:101EA000F8BD0120EEE770B516460D4604460FE07A
:101EB000324629462046FFF717FF002801D00120AF
:101EC00070BDFEF7EDFE801BA84208D8002D06D09D
:101ED00020688069C0438006EAD4002070BD616C30
:101EE000202001436164403460700020A0702070A5
:101EF000E5E770B516460D46044611E03246294620
:101F00002046FFF7F1FE002801D0012070BD681CBB
:101F100006D0FEF7C5FE801BA84208D8002D06D0CB
:101F200020688069C0438007E8D4002070BD616CE0
:101F3000202001436164403460700020A070207054
:101F4000E3E70000F0B587B014216846FEF702FA17
:101F50002E48C16A04252943C162C16A29400591FE
:101F6000C16A01221143C162C16A11400591C16A6F
:101F700002263143C162C06A00223040059005202C
:101F800040210007FEF785FE03208003032700247D
:101F900000906946019702941D48FEF7A5FD0520B3
:101FA00001946946000700970294FEF79DFD3120D9
:101FB0000004019005206946009502940007FEF791
:101FC00093FDB82000900520694601970294000710
:101FD000FEF78AFD40200090012001900520029428
:101FE000694603940007FEF77FFD6946094801979B
:101FF00000960294FEF778FD002211460620FFF7B6
:10200000CBF80620FFF7BCF807B0F0BD0010024087
:10201000000800500004005010B513481149016039
:102020000021416081600161416181610122C161E2
:10203000C2600162FEF784FE002801D0FEF706FDB3
:1020400000210948FEF732FE002801D0FEF7FEFC11
:1020500000210548FEF74FFE002801D0FEF7F6FCF0
:1020600010BD0000005400406800002010B586B08C
:1020700014216846FEF76EF90024194919480594A1
:1020800012C07F2101608460C4600461FF2144614B
:1020900041600838FFF7A0FC002801D0FEF7D6FC0D
:1020A00068460470447084700394002269460D48A9
:1020B0000494FFF761FD002801D0FEF7C7FC012062
:1020C0006946087548758875CC75002205A90548CC
:1020D000FFF7F0FC002801D0FEF7B8FC06B010BDF9
:1020E00000280040B4000020FEE7704701090A22E2
:1020F00000075143000F4018C0B27047002201464C
:1021000002E00A39C9B2521C0A29FAD21007000E9D
:102110000843704770B504460068C168490613D487
:102120000021C943C160FEF7BBFD7D260546F600D0
:1021300006E0FEF7B5FD401BB04201D9032070BD9B
:102140002068C0684006F4D5002070BDF8B5FE4890
:10215000017800297ED1012405462C706878A8708A
:1021600000F0E7FA6878FF257E213C270026F53548
:10217000030000F031FB0D080B305357A8B7E2FE07
:10218000FDFC0AFB0A0000F0D4FA9DE10025204680
:10219000A840C043C1B2032000F0F2FA1920FEF7B4
:1021A00057FC6D1CEDB2082DF1D3FF21032000F088
:1021B000E7FA00252046A840C043C1B2022000F043
:1021C000DFFA1920FEF744FC6D1CEDB2082DF1D3A7
:1021D000FF2102201FE007252046A840C043C1B2CE
:1021E000022000F0CDFA1920FEF732FC6D1EF3D567
:1021F000FF21022000F0C4FA07252046A840C04372
:10220000C1B2032000F0BCFA1920FEF721FC6D1EBC
:10221000F3D5FF21032000F0B3FA55E100F093FA63
:10222000FA2087E000252046A840C743F9B20220E3
:1022300000F0A6FAF9B2032000F0A2FA4B20FEF754
:1022400007FC6D1CEDB2082DEDD300F072FA0025ED
:10225000204600E03FE1A840C743F9B2022000F069
:102260008FFAF9B2032000F08BFA4B20FEF7F0FB57
:102270006D1CEDB2082DEBD300F05BFA072520466C
:10228000A840C743F9B2022000F07AFAF9B203205D
:1022900000F076FA1920FEF7DBFB6D1EEFD500F09B
:1022A00048FA07252046A840C743F9B2022000F0AB
:1022B00067FAF9B2032000F063FA1920FEF7C8FBB1
:1022C0006D1EEFD55FE7002400F03DFA2846FEF7CB
:1022D000BFFB00F02EFA2846FEF7BAFB641C032C65
:1022E000F2DBF1E00C46022000F04AFA214603201E
:1022F00000F046FAFA20FEF7ABFB3946022000F068
:102300003FFA3946032000F03BFAFA20FEF7A0FB23
:1023100018242146022000F033FA2146032000F061
:102320002FFAFA20FEF794FB3146022000F028FA3B
:10233000314613E1FEF78CFBC6E00C46022000F0AC
:102340001FFA2146032000F01BFAFA20FEF780FB5B
:102350003946022000F014FA3946032000F010FA42
:10236000FA20FEF775FB1824214603E0FBE0B3E0FA
:102370007AE044E0022000F003FA2146032000F056
:10238000FFF9FA20FEF764FB3146022000F0F8F96D
:102390003146032000F0F4F96C4C2046FEF758FB60
:1023A00081252946022000F0EBF92946032000F0A0
:1023B000E7F9FA20FEF74CFBC3252946022000F07E
:1023C000DFF92946032000F0DBF9FA20FEF740FB95
:1023D000E7252946022000F0D3F92946032000F022
:1023E000CFF9FA20FEF734FBFF252946022000F042
:1023F000C7F92946032000F0C3F920469AE7F025E3
:102400000F2700242946022000F0BAF9394603209C
:1024100000F0B6F9FA20FEF71BFB3946022000F067
:10242000AFF92946032000F0ABF9FA20FEF710FBC4
:10243000FF210025022000F0A3F92946032000F027
:102440009FF9FA20FEF704FBFF272946022000F03F
:1024500097F93946032000F093F9FA20FEF7F8FACD
:10246000641C032CCEDB2FE0002707252046A84064
:102470006A1E214691400843C043C1B2022000F0C9
:102480007FF93220FEF7E4FAAD1E012DEEDAFF21CE
:10249000022000F075F907252046A840691E224653
:1024A0008A401043C043C1B2032000F069F93220D2
:1024B000FEF7CEFAAD1E012DEEDAFF21032000F06B
:1024C0005FF97F1C052FD0DB002000F091F81E483B
:1024D000067000F02EF9F8BD00F035F97D20C0003F
:1024E000FEF7B6FA0F20F027002400900220009992
:1024F00000F046F93946032000F042F92846FEF77D
:10250000A7FA00F020F92846FEF7A2FA641C032C73
:10251000ECDBFE214F24022000F032F9214603209B
:1025200000F02EF97D252D012846FEF791FAFF21B6
:102530006F24022000F024F92146032000F020F946
:102540002846FEF785FA03E000000020EE020000B6
:10255000FE21EF24022000F013F92146032000F0B1
:102560000FF92846E6E600252046A840C043C1B240
:10257000022000F005F9E81F00D5404221468140C5
:10258000C843C1B2032000F0FBF89620FEF760FAC2
:102590006D1C082DE8DB07252046A840C043C1B2CA
:1025A000022000F0EDF8E81F00D5404221468140AE
:1025B000C843C1B2032000F0E3F89620FEF748FAC2
:1025C0006D1EE9D500F0B5F89620FEF741FA00F04F
:1025D000BAF87D20C000ADE6704700000348002136
:1025E0000170417081700A21C170704700000020A5
:1025F00002494A788A704870704700000000002045
:1026000010B5FEF773FD10BD10B598B034216846C3
:10261000FDF7A0FE14210DA8FDF79CFE182112A8BD
:10262000FDF798FE1A4801680322D2029143C214B2
:102630008918016018200090012005900690002460
:1026400080030890079409946846FEF75BFF002812
:1026500001D072B6FEE70F200D900E940F941094E7
:10266000002111940DA8FEF743FE002801D072B698
:10267000FEE728201290012040041390169412A81F
:10268000FEF78EFD002801D072B6FEE718B010BD2F
:102690000070004070B5204DE8680C211F4C0840C8
:1026A00018D004281FD0082824D0E868E9688002E0
:1026B0001B4A000F105C0902EA68890F01231B0402
:1026C000491C1A4204D12A68D20615D5154A14E0CD
:1026D000154A12E0686801210004400FC903401C3C
:1026E000814021600DE02868C00601D50D4807E053
:1026F0000E4805E00C4803E00C4A5043FDF72CFE61
:102700002060E86806490006000F1039085C21685F
:10271000C140216070BD0000001002404400002054
:102720007C32000800093D0000127A000024F40009
:10273000704710B5FF21022000F022F8FF2103208E
:1027400000F01EF810BD10B50021022000F018F8AE
:102750000021032000F014F810BD10B500F003F8BC
:1027600000F007F810BD10B50021062000F008F8B1
:1027700010BD10B50021072000F002F810BD0000C8
:1027800003B583B00023DB430122029304A9019225
:1027900013460091024640210248FEF7D5FB05B0E2
:1027A00000BD000068000020F8B5040C8BB226467E
:1027B00082B25E430D0C1046370C58433604801924
:1027C0000021794116466E43370C36048019794151
:1027D00026466E438919F8BD30B47446641E2578C8
:1027E000641CAB4200D21D46635D5B00E31830BC45
:1027F000184700008307FF22DB0E9A408907090E65
:102800009940002808DB830809489B001B181868BA
:1028100090430843186070470007000F083883088A
:1028200004489B001B18D86990430843D86170473F
:1028300000E400E000ED00E01CB50C4606236A460B
:10284000282100F03AF96946497821800A02694650
:102850000978511821806946C97861800A02694661
:1028600089785118618069464979A1800A026946D0
:1028700009795118A1801CBD38B50C4605460123C5
:102880006A461F2100F019F900281CD1002C05D040
:102890000121284600F018F8002814D1694608786C
:1028A000A1074006C90F400EC9010843BF210840D7
:1028B000E107490E08436946087001236A461F2153
:1028C000284600F067F938BD38B50C4605460123A7
:1028D0006A46232100F0F1F800280DD169460878F6
:1028E000E1014006400E08436946087001236A462C
:1028F0002321284600F04EF938BD38B50C46054670
:1029000001236A46202100F0D8F800280DD169463D
:10291000087821010007000F084369460870012369
:102920006A462021284600F035F938BD10B50A4620
:1029300001230F2100F0C1F810BD38B50C46054643
:1029400001236A463D2100F0B8F8002807D1684607
:10295000047001236A463D21284600F01BF938BD6A
:1029600010B5FDF7FDFE0321C943FDF705FF10BDBE
:1029700010B5FDF7F5FE0521C943FDF7FDFE012168
:10298000C943FDF7F9FE024900F03EFB10BD00000F
:102990000000C84138B50C46054601236A4623218C
:1029A00000F08BF800280ED169460878CF21084046
:1029B000A107890E08436946087001236A4623214E
:1029C000284600F0E7F838BD38B50C460546012327
:1029D0006A46332100F071F800280ED16946087864
:1029E0006106C009C001490E084369460870012309
:1029F0006A463321284600F0CDF838BD7CB50C4638
:102A0000054601236A46202100F057F8002832D1FC
:102A1000012301AA2321284600F04FF800282AD1DB
:102A2000F7200822002C04D0012C0AD0022C0DD053
:102A300013E069460B7803400B7008791043087166
:102A40000BE069460A7802400A7003E069460B7899
:102A500013430B700A7902400A7101236A46202150
:102A6000284600F097F8002805D1012301AA232168
:102A7000284600F08FF87CBD10B50A4601232221BC
:102A800000F01BF810BD10B50A460123222100F00A
:102A900081F810BD38B50C46054601236A463C2135
:102AA00000F00BF8002807D16846047001236A463D
:102AB0003C21284600F06EF838BD30B40446646806
:102AC0008068A44630BC604738B50C4605460123F3
:102AD0006A463B21FFF7F1FF00280ED169460878CE
:102AE0006106C009C001490E084369460870012308
:102AF0006A463B21284600F04DF838BD10B50A461D
:102B000001233821FFF7D9FF10BD10B50A46012374
:102B1000382100F03FF810BD10B50A4601233921D5
:102B2000FFF7CBFF10BD38B50C46054601236A46BA
:102B30003A21FFF7C2FF00280ED1694608786106E6
:102B4000C009C001490E08436946087001236A465E
:102B50003A21284600F01EF838BD38B50C4601234E
:102B60006A460721FFF7A9FF694609784907C90F97
:102B7000217038BD38B50C4602236A460C21FFF798
:102B80009CFF6946497821800A02694609785118F4
:102B9000218038BD30B4044624688068A44630BC27
:102BA000604738B50C4601236A462721FFF785FFA9
:102BB000694609780907C90F217038BDEA4C88B009
:102BC00002252571FEF79AFAFFF71EFDFFF7BAF905
:102BD000FFF722FAFFF74AFA2571FFF75BFDFFF7CF
:102BE000BCFDFFF7A6FDFFF7F9FC0C20FFF700FD89
:102BF000FFF7ACFA042020716078002700287DD010
:102C00006770DA48A16881427BD9032020710022D5
:102C1000D749D848FEF7B2FE214600222031D548D8
:102C2000FEF789FE01250026FFF783FDFE212CE03B
:102C30006078002860D06770FF21A068F531884275
:102C400027D26D1CEDB2002E0AD0012E0BD0022E21
:102C50000CD0032E0DD0042E0FD0052E10D012E074
:102C6000202D08D00FE00D2D05D00CE0642D02D0F2
:102C700009E0082D07D1012505E0182D02D002E05A
:102C80003D2D00D10025FF20411B0220FFF778FDDC
:102C900032E07D21090188422ED9002E0AD0012E72
:102CA0000CD0022E0ED0032E11D0042E12D0052EE1
:102CB00036D012E0AC482030857006E0AA482030BB
:102CC000457002E0A8482030C570012505E0A648FF
:102CD000203000E0A64805700025FFF734FDFF20F6
:102CE000F530FDF7B5FEFFF724FDFF20411B022064
:102CF000FFF746FD761CF6B2207900E001E00328DC
:102D000096D09D4802909D4803909D489649049016
:102D1000491D02A8FFF70AFE607933281AD0FEE7A2
:102D20009348002245708770014647609148FEF73E
:102D300023FF8D49002220318E48FEF7BBFE05207F
:102D40002071FFF700FDFF20F530FDF781FEFFF752
:102D5000F0FCD6E7012102A8FFF7B6FD012102A889
:102D6000FFF7CBFD002102A8FFF714FE032102A804
:102D7000FFF782FD002102A8FFF740FE552102A8BF
:102D8000FFF7D1FE202102A8FFF79EFE202102A816
:102D9000FFF780FE252102A8FFF7CFFD694602A8B4
:102DA000FFF76AFE69460878802108436946087083
:102DB00002A8FFF768FE002102A8FFF705FE01A99F
:102DC00002A8FFF79BFE69460879F52108402021FB
:102DD00008436946087101A902A8FFF796FE07217A
:102DE00002A8FFF78AFD002261496248FEF7C6FD8E
:102DF0005D49002220315F48FEF79DFD6078002884
:102E000000D0677005A902A8FFF7CBFE6846007DD9
:102E100000281CD0544806212C30FDF799FA52495D
:102E200002A82C31FFF708FD4F4E00202C36305EF3
:102E3000FFF796FD4E4D143528600220305EFFF7F7
:102E40008FFD68600420305EFFF78AFDA86005A949
:102E500002A8FFF782FE6846007D00280AD042489B
:102E6000C780811D02A8FFF785FE0620205EFFF7C0
:102E70007FFD6062A578322D43D32846FDF778FCAC
:102E8000014607902069FDF77FFB20610646079900
:102E90006069FDF779FB606105460799A069FDF758
:102EA00073FB0146A06100F0F5F82946079008463B
:102EB00000F0F0F805463146084600F0EBF82946E8
:102EC00000F0A2F8079900F09FF8FDF733FB00F03F
:102ED00077F8FDF7F1FAA062E16900F033F90DD25D
:102EE0000120E070A06AFDF7FFFBFDF7F7F9FDF7A1
:102EF0003BF90B21FDF73AFAE16000E0E770A770BB
:102F000012E01B4E20691436316800F07DF8206114
:102F10007168606900F078F86061B168A06900F0DC
:102F200073F86D1CA061A57006A902A8FFF7F4FD57
:102F30006846007E800600D455E70D4811491430DC
:102F400080688842F8DDA06AFDF7CEFBFDF7C6F980
:102F5000FDF70AF90B21FDF709FAC8B2E160FFF7A6
:102F600047FBFFF7F3F83EE704000020E20400000F
:102F700048000020B4000020A52F0008892F000879
:102F800068000020000061443EB5802421437D2478
:102F9000E4006D461CC50A4601233121FDF72AFFD6
:102FA00000203EBD3EB5802421437D24E4006D46D3
:102FB0001CC50A4601233121FDF7C6FF00203EBD96
:102FC000F8B506460C46FDF705FC051E0F4600D079
:102FD0000120014349000B484908411AC90F0DD08F
:102FE000002E01D0012100E000210C4361004908BE
:102FF000401AC00F02D10120FDF7E5FB28463946F3
:10300000F8BD00000000F07F70B501250400ED0759
:103010004C4020D4441A01D2001B0919C60D4B00A4
:10302000F2B2FF2A29D01B0E2CD000020C02D31AB8
:103030002C43DC402843051910D2280A02D3401C37
:103040006D0611D0761EF6058019FF2A00DA70BDD4
:10305000C00DC00570BD694000F0A6F80120054311
:10306000C541521C761CE8E764089C40C9016140D8
:103070008900E7D10124A043E4E71B0E440200D0FD
:10308000034870BD002AFCD1C00FC00770BD00BF4F
:103090000000C07F70B5420064414B005C41120EDD
:1030A00039D01B0E38D0FF2A3CD0FF2B3AD040023B
:1030B0004902400A490A060045184E43000A090A17
:1030C000D2184843ED017F3A0104731A4019190CD4
:1030D0004318990F04D001215B0849075B1A521C61
:1030E000D80904D3401CF50301D19D0607D0FF2A5F
:1030F00008D2D50506D0E4072043401970BD01254C
:10310000A843F4E7002A01DCE00770BD2402FF2099
:103110002043C00570BD1B0EFF2A03D0FF2B01D03A
:10312000E00770BDFF2645003606B54206D84D00C3
:10313000B54203D8D218FF2A00D0E7E7004870BD97
:103140000000C07F01230A00DB0502430DD4DA42F0
:1031500003D49A4207D481427047D94214D4D8424A
:1031600012D48142704789427047DA4203D59A42AD
:10317000F9D5884270475B004A00DA4204D2420027
:10318000DA4201D2884270474840414010B5024AB5
:103190004840FDF79FFB10BD0900160470B50125DE
:1031A0000400ED074C4022D4441A02D26C40001BAC
:1031B0000919C60D4B00F2B2FF2A4BD01B0E50D09E
:1031C00000020C02D31A2C43DC40A843051B05D592
:1031D000AD0019D36D08761E521E37D0F605280AA9
:1031E00001D2801970BD70416D0603D070BD694079
:1031F000FFF710FF9C4009026140490001D0401ECA
:1032000070BD0124A04370BD6D081DD001202B0CA2
:1032100001D12D0410302B0E01D12D0208302B0FBF
:1032200001D12D01001DAB0F01D1AD00801CEB0FB2
:1032300001D16D00401C6D00361A121A680AF5059E
:103240004019012A02DB70BD002070BDC036300A73
:10325000C00770BD1B0E440201D1FF2B00D10248F4
:1032600070BD002AF0D070BD0000C07F00000000DB
:103270000000000001020304060708090304060811
:103280000C101820308182838485868788898B8CF6
:103290008D8E8F919293959697999A9C9D9FA0A2BF
:1032A000A3A5A7A8AAACAEB0B2B3B5B7B9BCBEC00F
:1032B000C2C5C7C9CCCED1D4D7D9DCDFE2E6E9ECB0
:1032C000F0F3F7FAFE000000E832000800000020EA
:1032D00048000000040100083033000848000020C6
:1032E000D8070000200100080000000000000000D6
:1032F00000000000000000000000000000000000CE
:1033000000000000000000000080BB44000000003E
:1033100000000000000000000000000000000000AD
:103320000100000004000000000000000000200078
:04000005080000C12E
:00000001FF
