:020000040800F2
:10000000C80600206501000819150008F111000854
:1000100000000000000000000000000000000000E0
:10002000000000000000000000000000351700087C
:1000300000000000000000001B1500085D1700080C
:1000400077010008770100087701000877010008B0
:1000500077010008770100087701000877010008A0
:100060000000000077010008770100087701000810
:100070007701000877010008000000007701000800
:100080000000000000000000000000000000000070
:1000900077010008000000007701000877010008E0
:1000A00000000000770100080000000000000000D0
:1000B0007701000877010008000000000000000040
:1000C00000F002F800F03EF80CA030C80838241800
:1000D0002D18A246671EAB4654465D46AC4201D180
:1000E00000F030F87E460F3E0FCCB6460126334274
:1000F00000D0FB1AA246AB463343184798180000BD
:10010000B8180000103A02D378C878C1FAD852075C
:1001100001D330C830C101D504680C6070470000BD
:100120000023002400250026103A01D378C1FBD813
:10013000520700D330C100D50B6070471FB51FBDFB
:1001400010B510BD00F07BF91146FFF7F7FF01F085
:10015000E1FB00F093F903B4FFF7F2FF03BC00F0FA
:1001600099F900000748804707480047FEE7FEE787
:10017000FEE7FEE7FEE7FEE704480549054A064BB1
:10018000704700000D180008C1000008C8000020DA
:10019000C8060020C8020020C8020020FEB505469F
:1001A00010460C46184373D0AE468C460020AD1A5C
:1001B00001469C4167D36646002701243D46B61A96
:1001C0009D4102D313463A462124654676462F04C4
:1001D000360C3E432D0CB61A9D4104D3150C1B045E
:1001E0002B4312041034654676462F06360A3E43EA
:1001F0002D0AB61A9D4104D3150E1B022B43120281
:100200000834654676462F0736093E432D09B61A4F
:100210009D4104D3150F1B012B431201241D65467C
:100220007646AF07B6083E43AD08B61A9D4104D3E3
:10023000950F9B002B439200A41C65467646EF0762
:1002400076083E436D08B61A9D411AD392185B4159
:10025000641C16E00018764665464941B71A9D4170
:100260000191009009D36046B11A98418E468446A8
:10027000009801990025401C6941DD0752082A4376
:100280005B08641EE6D57246634603B0F0BDFFE727
:1002900000200146C046C0462A462346F5E701E055
:1002A00004C0091F0429FBD28B0701D50280801CE2
:1002B000C90700D00270704700290BD0C30702D0D5
:1002C0000270401C491E022904D3830702D5028014
:1002D000801C891EE3E70022EEE70022DFE7002210
:1002E00003098B422CD3030A8B4211D300239C4673
:1002F0004EE003460B433CD4002243088B4231D3EB
:1003000003098B421CD3030A8B4201D394463FE07E
:10031000C3098B4201D3CB01C01A524183098B42DE
:1003200001D38B01C01A524143098B4201D34B01C7
:10033000C01A524103098B4201D30B01C01A52412A
:10034000C3088B4201D3CB00C01A524183088B42B1
:1003500001D38B00C01A524143088B4201D34B009A
:10036000C01A5241411A00D201465241104670470C
:100370005DE0CA0F00D04942031000D34042534011
:1003800000229C4603098B422DD3030A8B4212D3D1
:10039000FC22890112BA030A8B420CD38901921103
:1003A0008B4208D3890192118B4204D389013AD040
:1003B000921100E08909C3098B4201D3CB01C01A15
:1003C000524183098B4201D38B01C01A5241430928
:1003D0008B4201D34B01C01A524103098B4201D316
:1003E0000B01C01A5241C3088B4201D3CB00C01A83
:1003F000524183088B4201D38B00C01A5241D9D29B
:1004000043088B4201D34B00C01A5241411A00D21B
:100410000146634652415B10104601D34042002B17
:1004200000D54942704763465B1000D3404201B596
:100430000020C046C04602BD7047704770477546F1
:1004400000F024F8AE46050069465346C008C000D7
:10045000854618B020B5FFF78FFE60BC002749081D
:10046000B6460026C0C5C0C5C0C5C0C5C0C5C0C54C
:10047000C0C5C0C5403D49008D46704710B5044613
:10048000C046C0462046FFF766FE10BD00487047D4
:100490006400002001491820ABBEFEE726000200E0
:1004A000704772B6FEE7000070B5044600F0F2F83F
:1004B0000546601C02D004480078241800F0EAF8D1
:1004C000401BA042FAD370BD08000020F8B50023FD
:1004D00003240125B8E032462E469E40B446324001
:1004E00079D00E79B607B60F012E01D0022E17D1A2
:1004F00086682746B6465E00B74000967646BE43FD
:10050000B646CF68009EB740764637438760466858
:100510006746BE430F79FF06FF0F9F403743476092
:100520000E79F643B6070ED0C6682746B4465E007D
:10053000B646B7406646BE43B4468F687646B74077
:1005400066463743C7600E79B607B60F022E14D140
:10055000DE08B60036180096366A5F07B446FE0E0F
:100560000F27B646B7406646BE43B4460F69764687
:10057000B74066463743009E376206682746B44652
:100580005E00B646B7406646BE430F79B446BF0725
:10059000BF0F7646B7406646374307604E68B603DE
:1005A000B60F50D02B4F7E6B2E437E639F082A4E92
:1005B000BF00BE190096B6680F27B4469E07360FD7
:1005C000B646B7406646BE4305273F07B446B84225
:1005D00002D1002710E036E0204FB84201D10127B8
:1005E0000AE01F4FB84201D1022705E01D4FB84273
:1005F00001D1052700E006277646B7406646374317
:10060000009EB760184E36684F689643FF0300D5CA
:100610001643154F3E607E684F689643BF0300D572
:100620001643114F7E60BE684F689643FF0200D5A7
:1006300016430D4FBE60FE684F689643BF0200D55B
:100640001643094AD6605B1C0A681646DA4000D099
:1006500041E7F8BD001002400000014000040050D6
:1006600000080050001C00500004014000690840D0
:1006700000D001207047426913460B401B04914390
:100680000B4383617047002A01D08161704781620A
:100690007047000001488068704700000800002093
:1006A00070B5024640325378202B1CD11378012BB1
:1006B00019D00123137024245470046825689D43C5
:1006C0002560046825681E03B54325600468256815
:1006D0000D432560006801681943016020205070B7
:1006E0000020107070BD022070BD70B5024640320F
:1006F0005378202B1BD11378012B18D001241470B0
:100700002423537003681D68A5431D6005682B688A
:100710000F263602B34309021943296000680168B5
:1007200021430160202050700020107070BD022015
:1007300070BD000070B5040006D0254640356878CD
:100740000026002802D005E0012070BD2E70204652
:1007500000F0F0F82420687020680168490849001A
:1007600001600F21606809068843216808612168DB
:100770008A680120C00382438A60E1680129A16878
:1007800008D021229202114322689160E168022977
:1007900002D005E00143F7E701212268C902516058
:1007A00021684A680F4B1A434A602168CA6882432D
:1007B000CA60616920690843A16909020843216888
:1007C000C860216AE0690843216808602068016800
:1007D0000122114301606664202068702663AE70B8
:1007E000002070BD00800002FFB50546044640357C
:1007F000687883B0202872D10C98002814D00D9806
:10080000002811D02878012869D001202870FFF72E
:1008100041FF0746012200901923D103204600F032
:1008200081FD002871D103E00120400260646CE08A
:10083000212068704020A870002666640C986062D1
:100840000D98608566630E980090019704A90EC903
:10085000204600F023FD002801D02E7055E0608D69
:10086000FF2805D9FF22228501231B06009606E0FA
:10087000608D20850096208D0123C2B25B06204644
:10088000049900F03BFD3A4620460E9900F097FD92
:1008900000283AD1606A216800788862606A401C4A
:1008A0006062608D401E6085208D401E80B2208574
:1008B000618D00291FD000281DD1009700228021C2
:1008C00020460E9B00F02EFD00281ED1608DFF28D3
:1008D00006D9FF22228501231B06009607E024E0AB
:1008E000608D20850096208D0123C2B25B062046D4
:1008F000049900F003FD608D0028C4D13A462046DB
:100900000E9900F036FD002802D0012007B0F0BD9E
:1009100020682021C16120684268054B1A4042606E
:100920006970AE702E700020F0E70220EEE7000044
:1009300000E800FE10B586B0044614216846FFF7B3
:10094000CCFC1049206888421AD10F4CE16A012082
:100950000143E162E16A02900140059103214902ED
:100960000091122101910321049003910520694611
:100970000007FFF7ABFDA06B012149050843A06309
:1009800006B010BD005400400010024002488168CB
:1009900002788918816070470800002010B5084867
:1009A00000240168402211430160204600F00AF84B
:1009B000002801D0012401E000F026F8204610BDF7
:1009C0000020024070B504460D4D7D202978C000FE
:1009D000FFF785FC01460B480068FFF780FC00F03C
:1009E000EFFB002809D1042C07D200222146401E2B
:1009F00000F016F800206C6070BD012070BD000092
:100A000008000020140000200448416B012211431B
:100A10004163816B020411438163704700100240FF
:100A200010B500F055FF10BDF8B50446007800275A
:100A30004E4D800671D54D4E403EB06BC00004D483
:100A4000B06BA9050843B063012749480168C9058F
:100A500011D40168821511430160FFF71BFE00905D
:100A600005E0FFF717FE0099401A642837D8404880
:100A70000068C005F5D532680321090560680A40A1
:100A80000140914208D08103890F032904D13168C4
:100A9000890301D50120F8BD2A69032109040A4010
:100AA00022D0084090421FD0207880061CD52869AB
:100AB0002A6988430121C9040A432A612A698A43B1
:100AC0002A612861C0050FD5FFF7E4FD009008E01A
:100AD000FFF7E0FD0099411A2648814201D9032021
:100AE000F8BD28698005F3D561688803800F032865
:100AF00005D132680005824301400A43326028690B
:100B0000032261681204114008432861002F04D0B9
:100B1000B16B012000078143B1632078800705D5C0
:100B2000E8680C218843A1680843E8602078400702
:100B300006D5E868032189028843E1680843E86034
:100B40002078000706D5E868032109038843216956
:100B50000843E8602078000606D5E8680321890488
:100B6000884361690843E8600020F8BD40100240F6
:100B70000070004088130000F8B50E46050038D01C
:100B80005E480068C007C00FB04214D25B4C2068BA
:100B90004008400030432060FFF77CFD074605E039
:100BA000FFF778FDC11B564881427AD82068C007FC
:100BB000C00FB042F4D12878524C800705D5E068C8
:100BC000F0218843A9680843E0602878C00752D024
:100BD0006868022806D0032807D0216801280AD0B7
:100BE000890504E02168890301E021688901002961
:100BF00003DB0120F8BD4907F9E7E16889088900AE
:100C00000143E160FFF746FD0746686802280AD005
:100C1000032814D001281ED029E0FFF73BFDC11B9B
:100C2000374881423DD8E0680007800F0228F4D1A0
:100C300021E0FFF72FFDC11B3148814231D8E06828
:100C40000007800F0328F4D115E0FFF723FDC11B37
:100C50002B48814225D8E0680007800F0128F4D195
:100C600009E0FFF717FDC11B2548814219D8E0684C
:100C70000007800FF5D121480168C907C90FB142AB
:100C800017D901684908490031430160FFF702FDA7
:100C9000074608E005E0FFF7FDFCC11B184881424C
:100CA00001D90320F8BD15480068C007C00FB04245
:100CB000F1D12878400706D5E0680721090288436A
:100CC000E9680843E0602878000707D5E068072155
:100CD000C90288432969C9000843E06000F01AF896
:100CE000E168094A0906090F515CC84007490860D4
:100CF00007480068FFF766FEF8BD000000200240CC
:100D00008813000000100240781900081400002029
:100D10000C00002070B51A4AD3681A490C201840FC
:100D20008D0004280CD04E00082810D00C2810D0BC
:100D300050680004410F0120C003491C884070BD69
:100D40001068C00601D5084670BD284670BD304603
:100D500070BD98020C4C000F205C1B029C0FD368E6
:100D6000641CDB0301D5314603E01268D20600D4CF
:100D7000294600F087FD22460023FFF70FFA70BDD9
:100D80000010024000093D0088190008FEB505006A
:100D90007ED0F74CE7680C20E6680740012000048D
:100DA00006402878C00747D0082F05D00C2F0AD15D
:100DB00001200004864206D1206880033CD5686883
:100DC0000028E5D038E0012069680004814203D1A1
:100DD00021680143216011E0052301221B049204D4
:100DE0009942216802D111432160F1E781432160DA
:100DF00021680140009120689043206068680028C5
:100E00000DD0FFF747FC009005E0FFF743FC009989
:100E1000401A64287ED820688003F6D50CE0FFF7DE
:100E200039FC009005E0FFF735FC0099401A642872
:100E3000F0D820688003F6D4287880075DD5E8686C
:100E4000810604D5226820210A43226088430923B1
:100E5000042F0DD00C2F01D1002E09D000283CD03A
:100E60002168994301432160FFF714FC064628E0FE
:100E70002168490701D500288AD061681F22120223
:100E800091432A691202114361602168994300E08D
:100E900091E101432160FFF73DFFE16809060A0F78
:100EA000B449895CC840B4490860B4480068FFF799
:100EB00089FD002874D120E0FFF7ECFB801B02289D
:100EC000A8D820684007F7D560681F210902884329
:100ED00029690902084360600FE02068400840006B
:100EE0002060FFF7D7FB064604E0FFF7D3FB801B2B
:100EF00002288FD820684007F7D42878C00661D52B
:100F0000002F0DD0A86900284BD02068FF210131A7
:100F1000084300E0C6E02060FFF7BCFB06462DE07A
:100F20002068800502D5A8690028A5D0606807213F
:100F300049038843296A084360606068297F00028A
:100F4000000A090608436060286A410B0120C003BB
:100F5000491C8840E16809060A0F8649895CC84037
:100F60008549086085480068FFF72CFD002817D1E7
:100F700028E0FFF78FFB801B0228A1D8206880059E
:100F8000F7D56068072149038843296A08436060F0
:100F90006068297F0002000A09060843606011E0CA
:100FA000E1E02168FF20013081432160FFF772FBFF
:100FB000064604E0FFF76EFB801B022872D820680B
:100FC0008005F7D428786E4E000724D5686900287C
:100FD000306910D0012108433061FFF75BFB0090BE
:100FE00005E0FFF757FB0099401A02285AD83069EC
:100FF0008007F6D50FE0400840003061FFF74AFB5C
:10100000009005E0FFF746FB0099401A022849D8F6
:1010100030698007F6D42878400765D50020029013
:10102000A06BC00006D4A06B012109070843A06390
:101030000120029053480168C90511D40168821546
:1010400011430160FFF726FB009005E0FFF722FB4C
:101050000099401A642825D84A480068C005F5D58B
:10106000FF20AA680130824203D131690143316116
:1010700011E001218902002A07D005231B029A42B0
:1010800003D132690A433261EFE732698243326148
:10109000306988433061A86800280FD0FFF7FAFA5A
:1010A000009007E05EE0FFF7F5FA0099411A364834
:1010B000814257D830698005F5D50DE0FFF7EAFA8F
:1010C000009006E0FFF7E6FA0099411A2E488142A7
:1010D00048D830698005F5D40298002804D0A06B68
:1010E000012109078843A063686A002865D00C2F96
:1010F0004CD0012636060228206805D0B043206077
:10110000FFF7C8FA05462FE0B0432060FFF7C2FAA8
:10111000074604E0FFF7BEFAC01B022822D8206869
:101120008001F7D4E96AA86AE2680843296BFD23C5
:101130001B049A4311430843E06020683043206059
:10114000FFF7A8FA054604E0FFF7A4FA401B0228BF
:1011500008D820688001F7D52FE0FFF79BFA401BE5
:10116000022801D90320FEBD20688001F5D424E0C7
:101170000010024078190008140000200C00002024
:101180004010024000700040881300000128EAD09F
:10119000E06801210904AA6A014091420BD10F21A4
:1011A0008904EA6A0140914205D10321890508407A
:1011B000296B884201D00120FEBD0020FEBD000049
:1011C000094910B5401E884201D9012010BD074CC5
:1011D00060610321081F00F07BFB0020A061072055
:1011E0002061002010BD0000FFFFFF0000E000E0D4
:1011F000FEE701688A69D243920701D400228A621D
:1012000000688169C943C90703D08169012211437C
:1012100081617047F7B5044600680F468169C9438C
:10122000C90636D44168890104D441680122920379
:101230001143416000262546403520688069C0433F
:10124000800612D5781CF8D0FFF724FA0299401ACC
:10125000B84201D8002FF0D1616C202001436164B5
:101260006870AE702E700120FEBD21681020C8612C
:1012700020682027C7612046FFF7BBFF2068416830
:10128000054A11404160606C0421084360646F703E
:10129000E7E70020FEBD000000E800FEF8B50446C8
:1012A000164615481D46DAB2C3020090079F204635
:1012B00000F024F83A462046069900F080F800280D
:1012C00018D12846F5B2012809D02168300A886271
:1012D0003A462046069900F072F800280AD12068A4
:1012E00085620097002280212046069B00F01AF8B4
:1012F000002800D00120F8BD00200080F0B506686D
:10130000059C7568064F600D384385438805800D40
:10131000110408431843204305437560F0BD0000E5
:10132000FF63FF03F8B51D4617460E46044609E065
:10133000681C07D0FFF7AEF90699401AA8420BD8EF
:10134000002D09D020688169304688430FD00020E5
:10135000B842EDD00020F8BD616C202001436164EB
:10136000403460700020A07020700120F8BD012082
:10137000EEE770B516460D4604460FE032462946A4
:101380002046FFF747FF002801D0012070BDFFF77E
:1013900081F9801BA84208D8002D06D020688069FA
:1013A000C0438006EAD4002070BD616C2020014358
:1013B0006164403460700020A0702070E5E770B573
:1013C00016460D46044611E0324629462046FFF7F0
:1013D00021FF002801D0012070BD681C06D0FFF756
:1013E00059F9801BA84208D8002D06D020688069D2
:1013F000C0438007E8D4002070BD616C2020014309
:101400006164403460700020A0702070E3E7000049
:10141000F0B587B014216846FEF75FFF2548C26A21
:1014200004210A43C262C26A0A400592C16A0126C7
:101430003143C162C16A31400591C16A0225294325
:10144000C162C06A00222840059005206021000783
:10145000FFF719F903208003032700240090694651
:10146000019702941448FFF731F8072000900520F7
:101470000194694602940007FFF728F8982000902D
:1014800005206946019702940007FFF71FF86020C6
:101490000090052002946946019603940007FFF727
:1014A00015F869460548019700950294FFF70EF874
:1014B00007B0F0BD001002400008005000040050CA
:1014C00010B5144812490160E121C90041600021B2
:1014D00081600161416181610122C161C26001627B
:1014E000FFF728F9002801D0FEF7DBFF00210948AB
:1014F000FFF7D6F8002801D0FEF7D3FF00210548FA
:10150000FFF7F3F8002801D0FEF7CBFF10BD000075
:101510000054004018000020FEE77047F8B5844EE4
:10152000307800287ED1012434707078B07000F0DB
:101530006EF97078030000F0BDF90D080B305357B9
:10154000A8F3F3F3F3F3F3B9F30000F060F9E7E085
:1015500000252046A840C043C1B2032000F07EF918
:101560001920FEF7A1FF6D1CEDB2082DF1D3FF216C
:10157000032000F073F900252046A840C043C1B203
:10158000022000F06BF91920FEF78EFF6D1CEDB202
:10159000082DF1D3FF2102201FE007252046A84097
:1015A000C043C1B2022000F059F91920FEF77CFFB8
:1015B0006D1EF3D5FF21022000F050F907252046CB
:1015C000A840C043C1B2032000F048F91920FEF73B
:1015D0006BFF6D1EF3D5FF21032000F03FF99FE064
:1015E00000F01FF9FA2099E000252046A840C743E3
:1015F000F9B2022000F032F9F9B2032000F02EF91E
:101600004B20FEF751FF6D1CEDB2082DEDD300F01D
:10161000FEF800252046A840C743F9B2022000F09A
:101620001DF900E083E0F9B2032000F017F94B2028
:10163000FEF73AFF6D1CEDB2082DEBD300F0E7F892
:1016400007252046A840C743F9B2022000F006F95A
:10165000F9B2032000F002F91920FEF725FF6D1EF4
:10166000EFD500F0D4F807252046A840C743F9B2CB
:10167000022000F0F3F8F9B2032000F0EFF819208F
:10168000FEF712FF6D1EEFD55FE7FF250024F5354D
:1016900000F0C7F82846FEF707FF00F0B8F8284624
:1016A000FEF702FF641C032CF2DB39E00025204624
:1016B000A840C043C1B2022000F0D0F8E81F00D516
:1016C000404221468140C843C1B2032000F0C6F821
:1016D0009620FEF7E9FE6D1C082DE8DB0725204665
:1016E000A840C043C1B2022000F0B8F8E81F00D5FE
:1016F000404221468140C843C1B2032000F0AEF809
:101700009620FEF7D1FE6D1EE9D500F080F89620F8
:10171000FEF7CAFE00F085F87D20C000FEF7C4FE8B
:10172000002000F013F80020307000F070F8F8BDD1
:101730000000002070470000034800210170417044
:1017400081700A21C17070470000002002494A7868
:101750008A704870704700000000002010B5084CE7
:101760002088401C20802088FA2806D305202021CC
:101770000007FEF780FF00202080FFF707F910BD6B
:101780000400002010B598B034216846FEF7A5FD8E
:1017900014210DA8FEF7A1FD182112A8FEF79DFD4A
:1017A000194801680322D2029143C21489180160CA
:1017B000102000900120069005200024400308908E
:1017C000079409946846FFF7E1FA002801D072B641
:1017D000FEE70F200D900E940F94109400211194A9
:1017E0000DA8FFF7C9F9002801D072B6FEE708205E
:1017F0001290169412A8FFF717F9002801D072B6BC
:10180000FEE718B010BD000000700040704710B532
:10181000FF21022000F022F8FF21032000F01EF833
:1018200010BD10B50021022000F018F8002103209F
:1018300000F014F810BD10B500F003F800F007F840
:1018400010BD10B50021062000F008F810BD10B53D
:101850000021072000F002F810BD000003B583B09E
:101860000023DB430122029304A901921346009155
:10187000024640210248FEF7B7FF05B000BD000058
:1018800018000020F8B5040C8BB2264682B25E43E5
:101890000D0C1046370C584336048019002179414D
:1018A00016466E43370C36048019794126466E433E
:1018B0008919F8BD30B47446641E2578641CAB42A7
:1018C00000D21D46635D5B00E31830BC1847000082
:1018D0008307FF22DB0E9A408907090E99400028F2
:1018E00008DB830809489B001B18186890430843CD
:1018F000186070470007000F0838830804489B00F1
:101900001B18D86990430843D861704700E400E091
:1019100000ED00E0FFF742F8FFF734FFFFF778FD36
:10192000FFF7CEFDFFF787FFFFF771FFFFF704FF1B
:101930000C20FFF70BFFFFF7F1FD0524240704211E
:101940002046FEF793FE0028F9D11920FEF7ACFDE2
:1019500004212046FEF78AFE0028F0D1FFF757FF4A
:10196000FA20FEF7A1FD0220FFF7F0FEFFF7D6FDFB
:10197000FA20FEF799FDE2E70000000000000000F9
:101980000102030406070809030406080C101820C6
:1019900030000000B419000800000020180000000A
:1019A00004010008CC19000818000020B00600004F
:1019B00020010008000000000000000001000000FD
:0C19C000040000000000000000002000F7
:04000005080000C12E
:00000001FF
