:020000040800F2
:10000000000700206501000869190008BD150008F7
:1000100000000000000000000000000000000000E0
:10002000000000000000000000000000591E000851
:1000300000000000000000006B190008811E00088D
:1000400077010008770100087701000877010008B0
:1000500077010008770100087701000877010008A0
:100060000000000077010008770100087701000810
:100070007701000877010008000000007701000800
:100080000000000000000000000000000000000070
:1000900077010008000000007701000877010008E0
:1000A00000000000770100080000000000000000D0
:1000B0007701000877010008000000000000000040
:1000C00000F002F800F03EF80CA030C80838241800
:1000D0002D18A246671EAB4654465D46AC4201D180
:1000E00000F030F87E460F3E0FCCB6460126334274
:1000F00000D0FB1AA246AB463343184788200000C5
:10010000A8200000103A02D378C878C1FAD8520764
:1001100001D330C830C101D504680C6070470000BD
:100120000023002400250026103A01D378C1FBD813
:10013000520700D330C100D50B6070471FB51FBDFB
:1001400010B510BD00F07BF91146FFF7F7FF01F085
:10015000B3FF00F093F903B4FFF7F2FF03BC00F024
:1001600099F900000748804707480047FEE7FEE787
:10017000FEE7FEE7FEE7FEE704480549054A064BB1
:1001800070470000B11F0008C100000800010020F6
:10019000000700200003002000030020FEB50546F4
:1001A00010460C46184373D0AE468C460020AD1A5C
:1001B00001469C4167D36646002701243D46B61A96
:1001C0009D4102D313463A462124654676462F04C4
:1001D000360C3E432D0CB61A9D4104D3150C1B045E
:1001E0002B4312041034654676462F06360A3E43EA
:1001F0002D0AB61A9D4104D3150E1B022B43120281
:100200000834654676462F0736093E432D09B61A4F
:100210009D4104D3150F1B012B431201241D65467C
:100220007646AF07B6083E43AD08B61A9D4104D3E3
:10023000950F9B002B439200A41C65467646EF0762
:1002400076083E436D08B61A9D411AD392185B4159
:10025000641C16E00018764665464941B71A9D4170
:100260000191009009D36046B11A98418E468446A8
:10027000009801990025401C6941DD0752082A4376
:100280005B08641EE6D57246634603B0F0BDFFE727
:1002900000200146C046C0462A462346F5E701E055
:1002A00004C0091F0429FBD28B0701D50280801CE2
:1002B000C90700D00270704700290BD0C30702D0D5
:1002C0000270401C491E022904D3830702D5028014
:1002D000801C891EE3E70022EEE70022DFE7002210
:1002E00003098B422CD3030A8B4211D300239C4673
:1002F0004EE003460B433CD4002243088B4231D3EB
:1003000003098B421CD3030A8B4201D394463FE07E
:10031000C3098B4201D3CB01C01A524183098B42DE
:1003200001D38B01C01A524143098B4201D34B01C7
:10033000C01A524103098B4201D30B01C01A52412A
:10034000C3088B4201D3CB00C01A524183088B42B1
:1003500001D38B00C01A524143088B4201D34B009A
:10036000C01A5241411A00D201465241104670470C
:100370005DE0CA0F00D04942031000D34042534011
:1003800000229C4603098B422DD3030A8B4212D3D1
:10039000FC22890112BA030A8B420CD38901921103
:1003A0008B4208D3890192118B4204D389013AD040
:1003B000921100E08909C3098B4201D3CB01C01A15
:1003C000524183098B4201D38B01C01A5241430928
:1003D0008B4201D34B01C01A524103098B4201D316
:1003E0000B01C01A5241C3088B4201D3CB00C01A83
:1003F000524183088B4201D38B00C01A5241D9D29B
:1004000043088B4201D34B00C01A5241411A00D21B
:100410000146634652415B10104601D34042002B17
:1004200000D54942704763465B1000D3404201B596
:100430000020C046C04602BD7047704770477546F1
:1004400000F024F8AE46050069465346C008C000D7
:10045000854618B020B5FFF78FFE60BC002749081D
:10046000B6460026C0C5C0C5C0C5C0C5C0C5C0C54C
:10047000C0C5C0C5403D49008D46704710B5044613
:10048000C046C0462046FFF766FE10BD00487047D4
:10049000A000002001491820ABBEFEE726000200A4
:1004A000704772B6FEE700000148C0787047000050
:1004B0000000002070B5044600F0EAF80546601C14
:1004C00002D004480078241800F0E2F8401BA04253
:1004D000FAD370BD0C000020F8B5002303240125D9
:1004E000B8E032462E469E40B446324079D00E796E
:1004F000B607B60F012E01D0022E17D18668274607
:10050000B6465E00B74000967646BE43B646CF6814
:10051000009EB74076463743876046686746BE43CD
:100520000F79FF06FF0F9F40374347600E79F64370
:10053000B6070ED0C6682746B4465E00B646B7403A
:100540006646BE43B4468F687646B7406646374334
:10055000C7600E79B607B60F022E14D1DE08B600BA
:1005600036180096366A5F07B446FE0E0F27B64669
:10057000B7406646BE43B4460F697646B740664606
:100580003743009E376206682746B4465E00B6468B
:10059000B7406646BE430F79B446BF07BF0F7646E5
:1005A000B7406646374307604E68B603B60F50D073
:1005B0002B4F7E6B2E437E639F082A4EBF00BE19D1
:1005C0000096B6680F27B4469E07360FB646B7406A
:1005D0006646BE4305273F07B446B84202D100270E
:1005E00010E036E0204FB84201D101270AE01F4F4A
:1005F000B84201D1022705E01D4FB84201D10527BD
:1006000000E006277646B74066463743009EB7604F
:10061000184E36684F689643FF0300D51643154FB2
:100620003E607E684F689643BF0300D51643114F66
:100630007E60BE684F689643FF0200D516430D4F9B
:10064000BE60FE684F689643BF0200D51643094A54
:10065000D6605B1C0A681646DA4000D041E7F8BD58
:10066000001002400000014000040050000800504B
:10067000001C0050000401400069084000D0012027
:100680007047002A01D08161704781627047000085
:1006900001488068704700000C00002070B50246D9
:1006A00040325378202B1CD11378012B19D0012311
:1006B000137024245470046825689D4325600468E1
:1006C00025681E03B5432560046825680D43256031
:1006D00000680168194301602020507000201070EC
:1006E00070BD022070BD70B5024640325378202B99
:1006F0001BD11378012B18D00124147024235370BC
:1007000003681D68A5431D6005682B680F26360227
:10071000B34309021943296000680168214301605D
:10072000202050700020107070BD022070BD0000AD
:1007300070B5040006D025464035687800260028AC
:1007400002D005E0012070BD2E70204600F0F0F8C8
:1007500024206870206801684908490001600F2161
:100760006068090688432168086121688A68012059
:10077000C00382438A60E1680129A16808D0212270
:100780009202114322689160E168022902D005E0DB
:100790000143F7E701212268C902516021684A68D4
:1007A0000F4B1A434A602168CA688243CA60616974
:1007B00020690843A169090208432168C860216AC9
:1007C000E06908432168086020680168012211433C
:1007D00001606664202068702663AE70002070BDE2
:1007E00000800002FFB5054604464035687883B0B6
:1007F000202872D10C98002814D00D98002811D010
:100800002878012869D001202870FFF741FF0746AA
:10081000012200901923D103204600F069FF00282F
:1008200071D103E00120400260646CE02120687017
:100830004020A870002666640C9860620D98608560
:1008400066630E980090019704A90EC9204600F037
:100850000BFF002801D02E7055E0608DFF2805D9D0
:10086000FF22228501231B06009606E0608D20856D
:100870000096208D0123C2B25B062046049900F049
:1008800023FF3A4620460E9900F07FFF00283AD118
:10089000606A216800788862606A401C6062608DCE
:1008A000401E6085208D401E80B22085618D00290C
:1008B0001FD000281DD100970022802120460E9BCA
:1008C00000F016FF00281ED1608DFF2806D9FF22F8
:1008D000228501231B06009607E024E0608D208519
:1008E0000096208D0123C2B25B062046049900F0D9
:1008F000EBFE608D0028C4D13A4620460E9900F0E8
:100900001EFF002802D0012007B0F0BD2068202182
:10091000C16120684268054B1A4042606970AE7040
:100920002E700020F0E70220EEE7000000E800FE55
:1009300010B586B0044614216846FFF7CEFC104976
:10094000206888421AD10F4CE16A01200143E1621C
:10095000E16A0290014005910321490200911221B0
:100960000191032104900391052069460007FFF7D8
:10097000B3FDA06B012149050843A06306B010BD7B
:100980000054004000100240024881680278891833
:10099000816070470C00002010B5084800240168F1
:1009A000402211430160204600F00AF8002801D0DF
:1009B000012401E000F026F8204610BD002002408E
:1009C00070B504460D4D7D202978C000FFF787FCE7
:1009D00001460B480068FFF782FC00F0CFFD0028BD
:1009E00009D1042C07D200222146401E00F016F83F
:1009F00000206C6070BD012070BD00000C00002064
:100A0000180000200448416B012211434163816BAF
:100A100002041143816370470010024010B501F0D9
:100A200029FB10BDF0B5154A1368154D54152D6AF4
:100A30002340ED07ED0F002B04D0002D02D01668E7
:100A4000A64316601668B608B600064316600D4841
:100A5000076904263743076101290DD040BF20BF35
:100A600020BF0169B1430161002B04D0002D02D0E9
:100A7000106820431060F0BD30BFF2E70070004006
:100A80000000014000ED00E0F8B5044600780027C2
:100A90004E4D800671D54D4E403EB06BC00004D423
:100AA000B06BA9050843B063012749480168C9052F
:100AB00011D40168821511430160FFF7E9FD009030
:100AC00005E0FFF7E5FD0099401A642837D8404853
:100AD0000068C005F5D532680321090560680A4041
:100AE0000140914208D08103890F032904D1316864
:100AF000890301D50120F8BD2A69032109040A40B0
:100B000022D0084090421FD0207880061CD528694A
:100B10002A6988430121C9040A432A612A698A4350
:100B20002A612861C0050FD5FFF7B2FD009008E0EB
:100B3000FFF7AEFD0099411A2648814201D90320F2
:100B4000F8BD28698005F3D561688803800F032804
:100B500005D132680005824301400A4332602869AA
:100B6000032261681204114008432861002F04D059
:100B7000B16B012000078143B1632078800705D560
:100B8000E8680C218843A1680843E86020784007A2
:100B900006D5E868032189028843E1680843E860D4
:100BA0002078000706D5E8680321090388432169F6
:100BB0000843E8602078000606D5E8680321890428
:100BC000884361690843E8600020F8BD4010024096
:100BD0000070004088130000F8B50E46050038D0BC
:100BE0005E480068C007C00FB04214D25B4C20685A
:100BF0004008400030432060FFF74AFD074605E00B
:100C0000FFF746FDC11B564881427AD82068C007CD
:100C1000C00FB042F4D12878524C800705D5E06867
:100C2000F0218843A9680843E0602878C00752D0C3
:100C30006868022806D0032807D0216801280AD056
:100C4000890504E02168890301E021688901002900
:100C500003DB0120F8BD4907F9E7E168890889004D
:100C60000143E160FFF714FD0746686802280AD0D7
:100C7000032814D001281ED029E0FFF709FDC11B6D
:100C8000374881423DD8E0680007800F0228F4D140
:100C900021E0FFF7FDFCC11B3148814231D8E068FB
:100CA0000007800F0328F4D115E0FFF7F1FCC11B0A
:100CB0002B48814225D8E0680007800F0128F4D135
:100CC00009E0FFF7E5FCC11B2548814219D8E0681F
:100CD0000007800FF5D121480168C907C90FB1424B
:100CE00017D901684908490031430160FFF7D0FC7A
:100CF000074608E005E0FFF7CBFCC11B184881421E
:100D000001D90320F8BD15480068C007C00FB042E4
:100D1000F1D12878400706D5E06807210902884309
:100D2000E9680843E0602878000707D5E0680721F4
:100D3000C90288432969C9000843E06000F01AF835
:100D4000E168094A0906090F515CC8400749086073
:100D500007480068FFF734FEF8BD0000002002409D
:100D600088130000001002406821000818000020CD
:100D70001000002070B51A4AD3681A490C20184098
:100D80008D0004280CD04E00082810D00C2810D05C
:100D900050680004410F0120C003491C884070BD09
:100DA0001068C00601D5084670BD284670BD3046A3
:100DB00070BD98020C4C000F205C1B029C0FD36886
:100DC000641CDB0301D5314603E01268D20600D46F
:100DD000294601F029F922460023FFF7DFF970BD0B
:100DE0000010024000093D0078210008FEB5050012
:100DF0007ED0F74CE7680C20E6680740012000042D
:100E000006402878C00747D0082F05D00C2F0AD1FC
:100E100001200004864206D1206880033CD5686822
:100E20000028E5D038E0012069680004814203D140
:100E300021680143216011E0052301221B04920473
:100E40009942216802D111432160F1E78143216079
:100E50002168014000912068904320606868002864
:100E60000DD0FFF715FC009005E0FFF711FC00998D
:100E7000401A64287ED820688003F6D50CE0FFF77E
:100E800007FC009005E0FFF703FC0099401A642876
:100E9000F0D820688003F6D4287880075DD5E8680C
:100EA000810604D5226820210A4322608843092351
:100EB000042F0DD00C2F01D1002E09D000283CD0DA
:100EC0002168994301432160FFF7E2FB064628E0D1
:100ED0002168490701D500288AD061681F221202C3
:100EE00091432A691202114361602168994300E02D
:100EF00091E101432160FFF73DFFE16809060A0F18
:100F0000B449895CC840B4490860B4480068FFF738
:100F100057FD002874D120E0FFF7BAFB801B0228A0
:100F2000A8D820684007F7D560681F2109028843C8
:100F300029690902084360600FE02068400840000A
:100F40002060FFF7A5FB064604E0FFF7A1FB801B2E
:100F500002288FD820684007F7D42878C00661D5CA
:100F6000002F0DD0A86900284BD02068FF21013147
:100F7000084300E0C6E02060FFF78AFB06462DE04C
:100F80002068800502D5A8690028A5D060680721DF
:100F900049038843296A084360606068297F00022A
:100FA000000A090608436060286A410B0120C0035B
:100FB000491C8840E16809060A0F8649895CC840D7
:100FC0008549086085480068FFF7FAFC002817D1BA
:100FD00028E0FFF75DFB801B0228A1D82068800570
:100FE000F7D56068072149038843296A0843606090
:100FF0006068297F0002000A09060843606011E06A
:10100000E1E02168FF20013081432160FFF740FBD0
:10101000064604E0FFF73CFB801B022872D82068DC
:101020008005F7D428786E4E000724D5686900281B
:10103000306910D0012108433061FFF729FB00908F
:1010400005E0FFF725FB0099401A02285AD83069BD
:101050008007F6D50FE0400840003061FFF718FB2D
:10106000009005E0FFF714FB0099401A022849D8C8
:1010700030698007F6D42878400765D500200290B3
:10108000A06BC00006D4A06B012109070843A06330
:101090000120029053480168C90511D401688215E6
:1010A00011430160FFF7F4FA009005E0FFF7F0FA52
:1010B0000099401A642825D84A480068C005F5D52B
:1010C000FF20AA680130824203D1316901433161B6
:1010D00011E001218902002A07D005231B029A4250
:1010E00003D132690A433261EFE7326982433261E8
:1010F000306988433061A86800280FD0FFF7C8FA2C
:10110000009007E05EE0FFF7C3FA0099411A364805
:10111000814257D830698005F5D50DE0FFF7B8FA60
:10112000009006E0FFF7B4FA0099411A2E48814278
:1011300048D830698005F5D40298002804D0A06B07
:10114000012109078843A063686A002865D00C2F35
:101150004CD0012636060228206805D0B043206016
:10116000FFF796FA05462FE0B0432060FFF790FAAC
:10117000074604E0FFF78CFAC01B022822D820683B
:101180008001F7D4E96AA86AE2680843296BFD2365
:101190001B049A4311430843E060206830432060F9
:1011A000FFF776FA054604E0FFF772FA401B0228C3
:1011B00008D820688001F7D52FE0FFF769FA401BB7
:1011C000022801D90320FEBD20688001F5D424E067
:1011D00000100240682100081800002010000020C4
:1011E0004010024000700040881300000128EAD03F
:1011F000E06801210904AA6A014091420BD10F2144
:101200008904EA6A0140914205D103218905084019
:10121000296B884201D00120FEBD0020FEBD10B523
:1012200000680B464068C021C94301400002000E1F
:10123000CC04D870E40E5C708C06A40E0904490F2F
:101240009C701970002A0AD100F090FBD870587871
:1012500000F08CFB5870987800F088FB98700020A4
:1012600010BD000030B50B460168896A59600168FD
:1012700009694904490C9960006804680F482146CF
:10128000014088024D04800E18706D0E49065D7095
:10129000490E99706102490E40242140D970002AFC
:1012A0000AD100F063FB1870587800F05FFB5870AB
:1012B000987800F05BFB9870002030BD7F7F7F0046
:1012C000F8B5040050D0254620356878002803D1B1
:1012D0002870204600F052F8022068702168CA2069
:1012E0004862216853204862204600F053FBFF26E5
:1012F00004270028206802D046626F7034E08168BD
:101300001D4A11408160216888686268A3691043A2
:1013100022691A43104388602168E06808612068E8
:10132000016922891204114301612068C168802289
:101330009143C1602068C16C89088900C164E1697A
:10134000606901432068C26C1143C16420688068F1
:1013500080060BD4204600F0F7F8002806D020685D
:1013600046626F70002028700120F8BD2068466238
:10137000012068700020F8BDBFFF8FFF006805499D
:10138000884205D104480169012292041143016198
:10139000704700000028004040100240F8B50546A4
:1013A0000446203528780B4601280FD001202870EC
:1013B00002206870002A0BD0D8789E78000406437B
:1013C0005878097800024903084317E00220F8BD65
:1013D0005878C10603D5EF2108400A305870D878F4
:1013E00000F0CCFA0604587800F0C8FA0002064370
:1013F000987800F0C3FA0643187840030643216842
:10140000CA204862216853204862204600F0C2FA90
:101410000027002811D11148064020684660206846
:10142000C16880229143C1602068806880060CD426
:10143000204600F089F8002807D02168FF20486284
:10144000042068702F700120F8BD2168FF204862D9
:10145000012068702F700020F8BD00003FFFFF00E2
:10146000F8B506460446203630780D46012822D0CD
:101470000120307002207070206800278068002AE8
:101480001BD0400600D4EF702978A87809040843DF
:101490006978EA7809021204114308430090216830
:1014A000CA204862216853204862204600F072FA40
:1014B000002837D116E00220F8BD400600D4EF70B6
:1014C000287800F05BFA0304687800F057FA00020D
:1014D0000343A87800F052FA0343E878000403437A
:1014E0000093DCE7174900980840216808602068ED
:1014F000816801229204914381602969E868084368
:1015000021688A68104388602068C16880229143FE
:10151000C1602068806880060CD4204600F014F872
:10152000002807D02168FF204862042070703770BF
:101530000120F8BD2168FF204862012070703770DB
:101540000020F8BD7F7F7F0070B504460068C16849
:10155000A0229143C160FFF79BF87D260546F60067
:1015600006E0FFF795F8401BB04201D9032070BD9B
:101570002068C0688006F4D5002070BD094910B508
:10158000401E884201D9012010BD074C6061032133
:10159000081F00F06FFD0020A061072020610020DF
:1015A00010BD0000FFFFFF0000E000E002480169FD
:1015B000022291430161704700E000E0FEE701680C
:1015C0008A69D243920701D400228A620068816945
:1015D000C943C90703D08169012211438161704762
:1015E000F7B5044600680F468169C943C90636D479
:1015F0004168890104D4416801229203114341608A
:1016000000262546403520688069C043800612D5F3
:10161000781CF8D0FFF73CF80299401AB84201D87C
:10162000002FF0D1616C2020014361646870AE70BE
:101630002E700120FEBD21681020C861206820277F
:10164000C7612046FFF7BBFF20684168054A11408B
:101650004160606C0421084360646F70E7E700201C
:10166000FEBD000000E800FEF8B504461646154829
:101670001D46DAB2C3020090079F204600F024F80E
:101680003A462046069900F080F8002818D12846EE
:10169000F5B2012809D02168300A88623A4620460E
:1016A000069900F072F800280AD120688562009738
:1016B000002280212046069B00F01AF8002800D066
:1016C0000120F8BD00200080F0B50668059C756813
:1016D000064F600D384385438805800D110408438B
:1016E0001843204305437560F0BD0000FF63FF030E
:1016F000F8B51D4617460E46044609E0681C07D09B
:10170000FEF7C6FF0699401AA8420BD8002D09D053
:1017100020688169304688430FD00020B842EDD060
:101720000020F8BD616C202001436164403460708A
:101730000020A07020700120F8BD0120EEE770B5F8
:1017400016460D4604460FE0324629462046FFF76E
:1017500047FF002801D0012070BDFEF799FF801BD4
:10176000A84208D8002D06D020688069C0438006B2
:10177000EAD4002070BD616C2020014361644034D4
:1017800060700020A0702070E5E770B516460D4629
:10179000044611E0324629462046FFF721FF002883
:1017A00001D0012070BD681C06D0FEF771FF801BC0
:1017B000A84208D8002D06D020688069C043800761
:1017C000E8D4002070BD616C202001436164403486
:1017D00060700020A0702070E3E70000F0B587B0D3
:1017E00014216846FEF779FD2548C26A04210A43A0
:1017F000C262C26A0A400592C16A01263143C162CF
:10180000C16A31400591C16A02252943C162C06A9B
:10181000002228400590052040210007FEF731FFF7
:101820000320800303270024009069460197029457
:101830001448FEF751FE07200090052001946946E8
:1018400002940007FEF748FEB82000900520694684
:10185000019702940007FEF73FFE4020009005200C
:1018600002946946019603940007FEF735FE694627
:101870000548019700950294FEF72EFE07B0F0BDD3
:1018800000100240000800500004005010B513483A
:101890001149016000214160816001614161816104
:1018A0000122C161C2600162FEF742FF002801D03F
:1018B000FEF7F7FD00210948FEF7F0FE002801D0F1
:1018C000FEF7EFFD00210548FEF70DFF002801D0CF
:1018D000FEF7E7FD10BD000000540040300000207E
:1018E00010B586B014216846FEF7F7FC00241C49A9
:1018F0001C48059412C07F2101608460C4600461AB
:10190000FF21446141600838FFF7DAFC002801D06C
:10191000FEF7C7FD1121684601700B2141708470EC
:101920000394002269460F480494FFF799FD0028AC
:1019300001D0FEF7B6FD012168460175032141750E
:10194000042181751621C175002205A90548FFF7FC
:1019500025FD002801D0FEF7A4FD06B010BD000053
:10196000002800407C000020FEE7704701090A22A1
:1019700000075143000F4018C0B2704700220146D3
:1019800002E00A39C9B2521C0A29FAD21007000E25
:101990000843704770B504460068C168490613D40F
:1019A0000021C943C160FEF773FE7D260546F6009F
:1019B00006E0FEF76DFE401BB04201D9032070BD6A
:1019C0002068C0684006F4D5002070BDF8B5FE4818
:1019D000017800297ED1012405462C706878A87012
:1019E00000F0E7FA6878FF257E213C270026F535D0
:1019F000030000F031FB0D080B305357A8B7E2FE8F
:101A0000FDFC0AFB0A0000F0D4FA9DE10025204607
:101A1000A840C043C1B2032000F0F2FA1920FEF73B
:101A200049FD6D1CEDB2082DF1D3FF21032000F01C
:101A3000E7FA00252046A840C043C1B2022000F0CA
:101A4000DFFA1920FEF736FD6D1CEDB2082DF1D33B
:101A5000FF2102201FE007252046A840C043C1B255
:101A6000022000F0CDFA1920FEF724FD6D1EF3D5FB
:101A7000FF21022000F0C4FA07252046A840C043F9
:101A8000C1B2032000F0BCFA1920FEF713FD6D1E51
:101A9000F3D5FF21032000F0B3FA55E100F093FAEB
:101AA000FA2087E000252046A840C743F9B202206B
:101AB00000F0A6FAF9B2032000F0A2FA4B20FEF7DC
:101AC000F9FC6D1CEDB2082DEDD300F072FA002583
:101AD000204600E03FE1A840C743F9B2022000F0F1
:101AE0008FFAF9B2032000F08BFA4B20FEF7E2FCEC
:101AF0006D1CEDB2082DEBD300F05BFA07252046F4
:101B0000A840C743F9B2022000F07AFAF9B20320E4
:101B100000F076FA1920FEF7CDFC6D1EEFD500F02F
:101B200048FA07252046A840C743F9B2022000F032
:101B300067FAF9B2032000F063FA1920FEF7BAFC45
:101B40006D1EEFD55FE7002400F03DFA2846FEF752
:101B5000B1FC00F02EFA2846FEF7ACFC641C032C06
:101B6000F2DBF1E00C46022000F04AFA21460320A5
:101B700000F046FAFA20FEF79DFC3946022000F0FC
:101B80003FFA3946032000F03BFAFA20FEF792FCB8
:101B900018242146022000F033FA2146032000F0E9
:101BA0002FFAFA20FEF786FC3146022000F028FAD0
:101BB000314613E1FEF77EFCC6E00C46022000F041
:101BC0001FFA2146032000F01BFAFA20FEF772FCF0
:101BD0003946022000F014FA3946032000F010FACA
:101BE000FA20FEF767FC1824214603E0FBE0B3E08F
:101BF0007AE044E0022000F003FA2146032000F0DE
:101C0000FFF9FA20FEF756FC3146022000F0F8F901
:101C10003146032000F0F4F96C4C2046FEF74AFCF4
:101C200081252946022000F0EBF92946032000F027
:101C3000E7F9FA20FEF73EFCC3252946022000F012
:101C4000DFF92946032000F0DBF9FA20FEF732FC29
:101C5000E7252946022000F0D3F92946032000F0A9
:101C6000CFF9FA20FEF726FCFF252946022000F0D6
:101C7000C7F92946032000F0C3F920469AE7F0256A
:101C80000F2700242946022000F0BAF93946032024
:101C900000F0B6F9FA20FEF70DFC3946022000F0FC
:101CA000AFF92946032000F0ABF9FA20FEF702FC59
:101CB000FF210025022000F0A3F92946032000F0AF
:101CC0009FF9FA20FEF7F6FBFF272946022000F0D5
:101CD00097F93946032000F093F9FA20FEF7EAFB62
:101CE000641C032CCEDB2FE0002707252046A840EC
:101CF0006A1E214691400843C043C1B2022000F051
:101D00007FF93220FEF7D6FBAD1E012DEEDAFF2162
:101D1000022000F075F907252046A840691E2246DA
:101D20008A401043C043C1B2032000F069F9322059
:101D3000FEF7C0FBAD1E012DEEDAFF21032000F0FF
:101D40005FF97F1C052FD0DB002000F091F81E48C2
:101D5000067000F02EF9F8BD00F035F97D20C000C6
:101D6000FEF7A8FB0F20F027002400900220009926
:101D700000F046F93946032000F042F92846FEF704
:101D800099FB00F020F92846FEF794FB641C032C15
:101D9000ECDBFE214F24022000F032F92146032023
:101DA00000F02EF97D252D012846FEF783FBFF214B
:101DB0006F24022000F024F92146032000F020F9CE
:101DC0002846FEF777FB03E000000020EE0200004B
:101DD000FE21EF24022000F013F92146032000F039
:101DE0000FF92846E6E600252046A840C043C1B2C8
:101DF000022000F005F9E81F00D54042214681404D
:101E0000C843C1B2032000F0FBF89620FEF752FB56
:101E10006D1C082DE8DB07252046A840C043C1B251
:101E2000022000F0EDF8E81F00D540422146814035
:101E3000C843C1B2032000F0E3F89620FEF73AFB56
:101E40006D1EE9D500F0B5F89620FEF733FB00F0E3
:101E5000BAF87D20C000ADE67047000003480021BD
:101E60000170417081700A21C1707047000000202C
:101E700002494A788A7048707047000000000020CC
:101E800010B5FEF781FD10BD10B598B0342168463D
:101E9000FEF723FA14210DA8FEF71FFA182112A845
:101EA000FEF71BFA1A4801680322D2029143C214BA
:101EB00089180160182000900120059006900024E8
:101EC00080030890079409946846FEF78FFF002866
:101ED00001D072B6FEE70F200D900E940F9410946F
:101EE000002111940DA8FEF777FE002801D072B6EC
:101EF000FEE728201290012040041390169412A8A7
:101F0000FEF7C2FD002801D072B6FEE718B010BD82
:101F10000070004070B5204DE8680C211F4C08404F
:101F200018D004281FD0082824D0E868E968800267
:101F30001B4A000F105C0902EA68890F01231B0489
:101F4000491C1A4204D12A68D20615D5154A14E054
:101F5000154A12E0686801210004400FC903401CC3
:101F6000814021600DE02868C00601D50D4807E0DA
:101F70000E4805E00C4803E00C4A5043FEF7AFF969
:101F80002060E86806490006000F1039085C2168E7
:101F9000C140216070BD0000001002401800002008
:101FA0007821000800093D0000127A000024F400A6
:101FB000704710B5FF21022000F022F8FF21032016
:101FC00000F01EF810BD10B50021022000F018F836
:101FD0000021032000F014F810BD10B500F003F844
:101FE00000F007F810BD10B50021062000F008F839
:101FF00010BD10B50021072000F002F810BD000050
:1020000003B583B00023DB430122029304A90192AC
:1020100013460091024640210248FEF7E3FB05B05B
:1020200000BD000030000020F8B5040C8BB226463D
:1020300082B25E430D0C1046370C584336048019AB
:102040000021794116466E43370C360480197941D8
:1020500026466E438919F8BD30B47446641E25784F
:10206000641CAB4200D21D46635D5B00E31830BCCC
:10207000184700008307FF22DB0E9A408907090EEC
:102080009940002808DB830809489B001B18186842
:1020900090430843186070470007000F0838830812
:1020A00004489B001B18D86990430843D8617047C7
:1020B00000E400E000ED00E0FEF76EFCFFF7E4FE58
:1020C000FFF78CFBFFF7E2FBFFF70AFCFFF722FFAD
:1020D000FFF783FFFFF76DFFFFF7C0FE0C20FFF750
:1020E000C7FEFFF773FCFFF761FA01210846FEF710
:1020F00099FC0525194C2D0704212846FEF7BCFA4A
:102100000028F9D11920FEF7D5F904212846FEF759
:10211000B3FA0028F0D1002211491248FFF7A2F8C3
:102120000E490022491C0F48FFF779F80C480A2194
:102130008078FEF7D4F82170002901D10A202070A0
:10214000FEF7B2F92178884202DAFEF7ADF9207085
:102150002078FFF78DFEFFF739FCCDE70400002063
:102160001C0000207C000020000000000000000097
:102170000102030406070809030406080C101820CE
:1021800030000000A4210008000000201C00000016
:1021900004010008C02100081C000020E406000023
:1021A0002001000800000000000000000000000006
:1021B00001000000040000000000000000002000FA
:04000005080000C12E
:00000001FF
