:020000040800F2
:10000000E0070020A1010008111D0008691900087F
:1000100000000000000000000000000000000000E0
:100020000000000000000000000000001F21000888
:100030000000000000000000131D0008452100081A
:10004000B3010008B3010008B3010008B3010008C0
:10005000B3010008B3010008430A0008B301000817
:1000600000000000B3010008B3010008B30100085C
:10007000B3010008B301000800000000B30100084C
:100080000000000000000000000000000000000070
:10009000B301000800000000B3010008B30100082C
:1000A00000000000B3010008000000000000000094
:1000B000B3010008B30100080000000000000000C8
:1000C00000F002F800F040F80CA030C808382418FE
:1000D0002D18A246671EAB4654465D46AC4201D180
:1000E00000F032F87E460F3E0FCCB6460126334272
:1000F00000D0FB1AA246AB46334318474C2B0000F6
:100100006C2B0000103A02D378C878C1FAD8520795
:1001100001D330C830C101D504680C6070470000BD
:100120000023002400250026103A01D378C1FBD813
:10013000520700D330C100D50B6070471FB500F0E7
:10014000E3F81FBD10B510BD00F01EFC1146FFF70F
:10015000F5FF02F0AFFA00F036FC03B4FFF7F2FF50
:1001600003BC00F067FC000030B40C490C684A681E
:1001700023681068C0181060241D121D8C4207D21D
:100180008A4208D20C604A6030BC40004008704788
:100190000C00DC3CF6E70A00DC3AF3E774010020CF
:1001A0000748804707480047FEE7FEE7FEE7FEE70F
:1001B000FEE7FEE704480549054A064B7047000084
:1001C0006D220008C1000008E0010020E0070020C7
:1001D000E0030020E0030020FEB5054610460C4673
:1001E000184373D0AE468C460020AD1A01469C41A0
:1001F00067D36646002701243D46B61A9D4102D3C7
:1002000013463A462124654676462F04360C3E4373
:100210002D0CB61A9D4104D3150C1B042B4312045C
:100220001034654676462F06360A3E432D0AB61A26
:100230009D4104D3150E1B022B4312020834654660
:1002400076462F0736093E432D09B61A9D4104D341
:10025000150F1B012B431201241D65467646AF077F
:10026000B6083E43AD08B61A9D4104D3950F9B00D6
:100270002B439200A41C65467646EF0776083E4362
:100280006D08B61A9D411AD392185B41641C16E0A2
:100290000018764665464941B71A9D410191009084
:1002A00009D36046B11A98418E4684460098019958
:1002B0000025401C6941DD0752082A435B08641E83
:1002C000E6D57246634603B0F0BDFFE70020014665
:1002D000C046C0462A462346F5E700000B4A30B523
:1002E00011460B4C60310B46DC3B0CC1372106E05C
:1002F000020C8D0012185A51064A504300190A4642
:10030000491E002AF4DC30BD0120E7E7140100207B
:10031000E119D666CD0D010001E004C0091F0429D2
:10032000FBD28B0701D50280801CC90700D0027068
:10033000704700290BD0C30702D00270401C491E31
:10034000022904D3830702D50280801C891EE3E7BB
:100350000022EEE70022DFE7002203098B422CD3C4
:10036000030A8B4211D300239C464EE003460B4305
:100370003CD4002243088B4231D303098B421CD367
:10038000030A8B4201D394463FE0C3098B4201D359
:10039000CB01C01A524183098B4201D38B01C01A91
:1003A000524143098B4201D34B01C01A5241030908
:1003B0008B4201D30B01C01A5241C3088B4201D3B7
:1003C000CB00C01A524183088B4201D38B00C01A64
:1003D000524143088B4201D34B00C01A5241411A8B
:1003E00000D201465241104670475DE0CA0F00D06E
:1003F0004942031000D34042534000229C46030967
:100400008B422DD3030A8B4212D3FC22890112BAEC
:10041000030A8B420CD3890192118B4208D38901C4
:1004200092118B4204D389013AD0921100E08909DC
:10043000C3098B4201D3CB01C01A524183098B42BD
:1004400001D38B01C01A524143098B4201D34B01A6
:10045000C01A524103098B4201D30B01C01A524109
:10046000C3088B4201D3CB00C01A524183088B4290
:1004700001D38B00C01A5241D9D243088B4201D319
:100480004B00C01A5241411A00D201466346524104
:100490005B10104601D34042002B00D54942704703
:1004A00063465B1000D3404201B50020C046C04601
:1004B00002BD7047704770470246C80FC0078143AE
:1004C0004B0030B54B405B009B0D20D01923DB0661
:1004D000C91801231B05994220DB0324A407042526
:1004E0001346AB400BD3002B04D1EB0613409B000B
:1004F000E34204D401246407002312195941FF2365
:100500001B0599420BD2C9000143500F09E0CB02F1
:1005100004D501430803024305D0054830BDFF213F
:10052000C905084330BD084607210905884330BD89
:100530000000C07F0121C9050123411842001B06AC
:10054000D3185B0E0AD0C1100722D20689184007C3
:100550005242D14201D5520089187047090208D58C
:100560000146002A03D0C10FC9070020704710467A
:100570007047420202D00020024970470721090556
:100580000143F4E70000F87FF0B5FF252D04C6090C
:10059000C209FF2704462E400137CB093E4348409D
:1005A0002A402B400746002A6BD0002B69D0AA4274
:1005B00067D0AB4265D0002800DA32460125ED0550
:1005C00029432C4309022002090AD21A4B0C7F242A
:1005D000E31A434C000A7C44E35C7D242404121992
:1005E00014145B00A218884201D3521C00E04000A2
:1005F00049420C465C4324115C43DB016415E3185B
:10060000040A5C43C502200D0C4644436419250AC4
:100610005D432303EC0C0D46654300030019EB1802
:100620004C42A34201D35B18401CD4052018002B78
:1006300007D05B00C91804D3401C002901D1400831
:1006400040003F2189048A4209D3002A08DC1106B0
:10065000090F04D0032149074018C00FC007F0BD9F
:1006600001224100120689187F2252069142F6D2D9
:1006700005214907C84201D59010F0BDFF20C005F3
:10068000F0BD002F00DA32461648AA4207D2AB422C
:1006900005D21902090E17D0F80FC007F0BDFF25CB
:1006A00063002D06AB42F9D84900A942F6D8AB4207
:1006B00001D1A942F2D0A94201D1002101E061009B
:1006C0004908D0050843F0BD1102090EFBD0FF20F8
:1006D0000243D005F0BD0A460146104654E700002B
:1006E0002B2600000000C07F0102C21504D00123A8
:1006F000DB071943002A0ADB9E239A1A02D4084614
:10070000D0407047FF2241001206914201D90020DB
:100710007047C017C04370471F22030C02D10F223D
:1007200000041CD0030E01D10002083A030F01D1CE
:100730000001121F830F01D18000921E002801DBEF
:100740004000521ED2055118021251181922904031
:1007500004D3491C002801D14908490008467047C4
:10076000C10FC90700D04042012292071143D3E7CD
:1007700001218907D0E7000010B5FF22C30D134007
:1007800009D05A4007D0914205DA5C42A14202DD0D
:10079000C905081810BDC40FE407002B06D0002AB5
:1007A00006D0002902DBFF20C0050443204610BD0F
:1007B0004102FCD0004810BD0000C07F10B500F021
:1007C000BBF8006810BD10B5044600F0B5F8046031
:1007D00010BD0000F0B53D4B02460C461C40002009
:1007E000002C63D03A4D8B4366D000296BDB0B0D98
:1007F0001D05A94301252D0529430124FD33E340AF
:1008000001D392184941FF3381339C468B02940DEA
:100810000121234389074C42920200271B198C10A7
:100820005D1A04D42D1B02D42B4665004919921879
:100830005B416408F4D15C1A08D40125ED07EE177A
:100840005519744102D42A462346491C94185B4129
:10085000012292071D46E61B8D4106D4B61A85413A
:1008600003D42B46550034467F1924195B415208A6
:10087000802AEFD1234300D0022338460A22D040F9
:1008800001D3012213438A0510436246890A1205E7
:100890008918002B09D00122D34002D30022401C2A
:1008A0005141002B01D140084000F0BD0B03134320
:1008B00007D0C90FC907F0BD0803104303D10029B1
:1008C00001DB1046F0BD00202946F0BD0000F07F9E
:1008D0000000F87F10B5FF231B0644009C421DD882
:1008E0004C009C421AD80346124A0B4307D4401AC4
:1008F00002D3EFF3008010BDEFF3008010BD081AA3
:1009000006D2EFF3008001219043C907084302E0BB
:10091000EFF30080904380F3008810BD0D231B048B
:100920001A4204D01146002000F00AF810BD00F071
:100930001FF810BD00000090004870477C010020A7
:10094000C80212D54803400F002804D0C803C04392
:10095000012188407047EFF3008000010009032166
:100960000907084380F300887047002070470000A3
:1009700010B5024800F02FF810BD00000000C07F45
:10098000004870477C0100207546FFF7F9FFAE462E
:10099000050069465346C008C000854618B020B51A
:1009A000FFF708FC60BC00274908B6460026C0C512
:1009B000C0C5C0C5C0C5C0C5C0C5C0C5C0C5403D17
:1009C00049008D46704710B50446C046C0462046D3
:1009D000FFF7C3FB10BD10B50C461107090F09291D
:1009E00004D00A290AD008290CD104E011460820B5
:1009F000FFF7A6FF06E0510606D501E0510601D536
:100A00000120C007214610BDD10607D50101090903
:100A1000CC084907000E0006044309E0410F2002FC
:100A20004907000A0143200E00061D22D14101435F
:100A30000846E7E701491820ABBEFEE726000200A2
:100A4000704710B5042000F043F810BD72B6FEE701
:100A500070B5044600F024F90546601C02D0044835
:100A60000078241800F01CF9401BA042FAD370BD96
:100A70003000002070B5042826D105263607042151
:100A8000304600F001F90125104C002803D12570F3
:100A900000F006F9A0600421304600F0F5F80028C7
:100AA00012D000F0FDF8A168401A0021A06021706A
:100AB000FFF714FCFFF758FB0B21FFF757FCE0682A
:100AC0008842F7D0E160657070BD0000040000202E
:100AD00010B504494A69024202D04861FFF7CAFFD3
:100AE00010BD000000040140F8B5002303240125D7
:100AF000B8E032462E469E40B446324079D00E7958
:100B0000B607B60F012E01D0022E17D186682746F0
:100B1000B6465E00B74000967646BE43B646CF68FE
:100B2000009EB74076463743876046686746BE43B7
:100B30000F79FF06FF0F9F40374347600E79F6435A
:100B4000B6070ED0C6682746B4465E00B646B74024
:100B50006646BE43B4468F687646B740664637431E
:100B6000C7600E79B607B60F022E14D1DE08B600A4
:100B700036180096366A5F07B446FE0E0F27B64653
:100B8000B7406646BE43B4460F697646B7406646F0
:100B90003743009E376206682746B4465E00B64675
:100BA000B7406646BE430F79B446BF07BF0F7646CF
:100BB000B7406646374307604E68B603B60F50D05D
:100BC0002B4F7E6B2E437E639F082A4EBF00BE19BB
:100BD0000096B6680F27B4469E07360FB646B74054
:100BE0006646BE4305273F07B446B84202D10027F8
:100BF00010E036E0204FB84201D101270AE01F4F34
:100C0000B84201D1022705E01D4FB84201D10527A6
:100C100000E006277646B74066463743009EB76039
:100C2000184E36684F689643FF0300D51643154F9C
:100C30003E607E684F689643BF0300D51643114F50
:100C40007E60BE684F689643FF0200D516430D4F85
:100C5000BE60FE684F689643BF0200D51643094A3E
:100C6000D6605B1C0A681646DA4000D041E7F8BD42
:100C70000010024000000140000400500008005035
:100C8000001C0050000401400069084000D0012011
:100C90007047002A01D0816170478162704700006F
:100CA00001488068704700003000002070B502469F
:100CB00040325378202B1CD11378012B19D00123FB
:100CC000137024245470046825689D4325600468CB
:100CD00025681E03B5432560046825680D4325601B
:100CE00000680168194301602020507000201070D6
:100CF00070BD022070BD70B5024640325378202B83
:100D00001BD11378012B18D00124147024235370A5
:100D100003681D68A5431D6005682B680F26360211
:100D2000B343090219432960006801682143016047
:100D3000202050700020107070BD022070BD000097
:100D400070B5040006D02546403568780026002896
:100D500002D005E0012070BD2E70204600F09AF907
:100D600024206870206801684908490001600F214B
:100D70006068090688432168086121688A68012043
:100D8000C00382438A60E1680129A16808D021225A
:100D90009202114322689160E168022902D005E0C5
:100DA0000143F7E701212268C902516021684A68BE
:100DB0000F4B1A434A602168CA688243CA6061695E
:100DC00020690843A169090208432168C860216AB3
:100DD000E069084321680860206801680122114326
:100DE00001606664202068702663AE70002070BDCC
:100DF00000800002FFB5054604464035687883B0A0
:100E0000202875D10C98002814D00D98002811D0F6
:100E1000287801286CD001202870FFF741FF074691
:100E2000012200901923D103204600F067FE00281C
:100E300074D103E00120400260646FE022206870FA
:100E40004020A870002666640C9860620D9860854A
:100E500066630E980090019704A90EC9204600F021
:100E6000D9FD002801D02E7058E0618D3448FF294B
:100E700005D9FF22228501231B06009006E0618D23
:100E800021850090208D0123C2B25B062046049983
:100E900000F020FE00970022042120460E9B00F067
:100EA0002DFE00283AD12068406A616A0870606AA5
:100EB000401C6062208D401E81B22185608D401EE5
:100EC0006085608D00281FD000291DD10097002269
:100ED000802120460E9B00F011FE00281ED1608D5F
:100EE000FF2806D9FF22228501231B06009607E072
:100EF00024E0608D20850096208D0123C2B25B0620
:100F00002046049900F0E6FD608D0028C2D13A46E3
:100F100020460E9900F019FE002802D0012007B0EB
:100F2000F0BD20682021C16120684268054B1A404D
:100F300042606970AE702E700020F0E70220EEE78C
:100F40000024008000E800FEFFB505460446403559
:100F5000687883B0202872D10C98002814D00D989E
:100F6000002811D02878012869D001202870FFF7C7
:100F700097FE0746012200901923D103204600F076
:100F8000BDFD002871D103E00120400260646CE0E7
:100F9000212068704020A870002666640C9860626A
:100FA0000D98608566630E980090019704A90EC99C
:100FB000204600F05FFD002801D02E7055E0608DC6
:100FC000FF2805D9FF22228501231B06009606E093
:100FD000608D20850096208D0123C2B25B062046DD
:100FE000049900F077FD3A4620460E9900F0D3FDB3
:100FF00000283AD1606A216800788862606A401CE3
:101000006062608D401E6085208D401E80B220850C
:10101000618D00291FD000281DD10097002280215A
:1010200020460E9B00F06AFD00281ED1608DFF282F
:1010300006D9FF22228501231B06009607E024E043
:10104000608D20850096208D0123C2B25B0620466C
:10105000049900F03FFD608D0028C4D13A46204637
:101060000E9900F072FD002802D0012007B0F0BDFB
:1010700020682021C16120684268054B1A40426007
:101080006970AE702E700020F0E70220EEE70000DD
:1010900000E800FE10B586B0044614216846FFF74C
:1010A00059F91049206888421AD10F4CE16A012091
:1010B0000143E162E16A0290014005910321490286
:1010C00000911221019103210490039105206946AA
:1010D0000007FFF709FDA06B012149050843A06344
:1010E00006B010BD00540040001002400248816864
:1010F00002788918816070473000002010B50848D8
:1011000000240168402211430160204600F00AF8E3
:10111000002801D0012401E000F026F8204610BD8F
:101120000020024070B504460D4D7D202978C00096
:10113000FFF712F901460B480068FFF70DF900F0C0
:10114000FBFB002809D1042C07D200222146401EB7
:1011500000F022F800206C6070BD012070BD00001E
:10116000300000203C0000200448416B0122114364
:101170004163816B02041143816370470010024098
:10118000002805DBC106C90E01208840014908601E
:101190007047000000E100E010B501F0C9F810BD93
:1011A000F8B50446007800274E4D800671D54D4EA7
:1011B000403EB06BC00004D4B06BA9050843B063D7
:1011C000012749480168C90511D4016882151143F6
:1011D0000160FFF765FD009005E0FFF761FD0099F4
:1011E000401A642837D840480068C005F5D53268F1
:1011F0000321090560680A400140914208D081033B
:10120000890F032904D13168890301D50120F8BD74
:101210002A69032109040A4022D0084090421FD0C5
:10122000207880061CD528692A6988430121C904D1
:101230000A432A612A698A432A612861C0050FD5B9
:10124000FFF72EFD009008E0FFF72AFD0099411AF4
:101250002648814201D90320F8BD28698005F3D5CD
:1012600061688803800F032805D132680005824336
:1012700001400A4332602869032261681204114068
:1012800008432861002F04D0B16B0120000781437F
:10129000B1632078800705D5E8680C218843A168F0
:1012A0000843E8602078400706D5E86803218902F2
:1012B0008843E1680843E8602078000706D5E868BD
:1012C00003210903884321690843E8602078000668
:1012D00006D5E86803218904884361690843E8600A
:1012E0000020F8BD4010024000700040881300004C
:1012F000F8B50E46050038D05E480068C007C00F3C
:10130000B04214D25B4C206840084000304320605B
:10131000FFF7C6FC074605E0FFF7C2FCC11B5648B5
:1013200081427AD82068C007C00FB042F4D1287833
:10133000524C800705D5E068F0218843A96808432E
:10134000E0602878C00752D06868022806D00328D9
:1013500007D0216801280AD0890504E021688903A3
:1013600001E021688901002903DB0120F8BD49075C
:10137000F9E7E168890889000143E160FFF790FC23
:101380000746686802280AD0032814D001281ED016
:1013900029E0FFF785FCC11B374881423DD8E06852
:1013A0000007800F0228F4D121E0FFF779FCC11B70
:1013B0003148814231D8E0680007800F0328F4D11A
:1013C00015E0FFF76DFCC11B2B48814225D8E06872
:1013D0000007800F0128F4D109E0FFF761FCC11B71
:1013E0002548814219D8E0680007800FF5D12148CF
:1013F0000168C907C90FB14217D9016849084900F6
:1014000031430160FFF74CFC074608E005E0FFF7B9
:1014100047FCC11B1848814201D90320F8BD15487B
:101420000068C007C00FB042F1D12878400706D548
:10143000E068072109028843E9680843E0602878EA
:10144000000707D5E0680721C90288432969C90058
:101450000843E06000F01AF8E168094A0906090F3C
:10146000515CC8400749086007480068FFF75AFE0A
:10147000F8BD000000200240881300000010024068
:10148000EC2B00083C0000203400002070B51A4A04
:10149000D3681A490C2018408D0004280CD04E0047
:1014A000082810D00C2810D050680004410F0120EB
:1014B000C003491C884070BD1068C00601D50846AD
:1014C00070BD284670BD304670BD98020C4C000FB0
:1014D000205C1B029C0FD368641CDB0301D53146E2
:1014E00003E01268D20600D4294600F0FBFE224633
:1014F0000023FEF771FE70BD0010024000093D00A0
:10150000FC2B0008FEB505007ED0F74CE7680C20E8
:10151000E66807400120000406402878C00747D04D
:10152000082F05D00C2F0AD101200004864206D1D5
:10153000206880033CD568680028E5D038E00120A9
:1015400069680004814203D121680143216011E0F0
:10155000052301221B0492049942216802D1114300
:101560002160F1E7814321602168014000912068FA
:1015700090432060686800280DD0FFF791FB009031
:1015800005E0FFF78DFB0099401A64287ED820689B
:101590008003F6D50CE0FFF783FB009005E0FFF732
:1015A0007FFB0099401A6428F0D820688003F6D4A5
:1015B000287880075DD5E868810604D52268202157
:1015C0000A43226088430923042F0DD00C2F01D138
:1015D000002E09D000283CD02168994301432160A6
:1015E000FFF75EFB064628E02168490701D5002881
:1015F0008AD061681F22120291432A6912021143A4
:1016000061602168994300E091E101432160FFF7A7
:101610003DFFE16809060A0FB449895CC840B44936
:101620000860B4480068FFF77DFD002874D120E011
:10163000FFF736FB801B0228A8D820684007F7D5A3
:1016400060681F2109028843296909020843606014
:101650000FE02068400840002060FFF721FB0646AD
:1016600004E0FFF71DFB801B02288FD8206840078D
:10167000F7D42878C00661D5002F0DD0A8690028BE
:101680004BD02068FF210131084300E0C6E0206014
:10169000FFF706FB06462DE02068800502D5A86905
:1016A0000028A5D06068072149038843296A0843B8
:1016B00060606068297F0002000A090608436060D4
:1016C000286A410B0120C003491C8840E1680906D3
:1016D0000A0F8649895CC8408549086085480068CA
:1016E000FFF720FD002817D128E0FFF7D9FA801B6B
:1016F0000228A1D820688005F7D560680721490332
:101700008843296A084360606068297F0002000AF4
:1017100009060843606011E0E1E02168FF20013024
:1017200081432160FFF7BCFA064604E0FFF7B8FAF0
:10173000801B022872D820688005F7D428786E4E66
:10174000000724D568690028306910D001210843BA
:101750003061FFF7A5FA009005E0FFF7A1FA0099C4
:10176000401A02285AD830698007F6D50FE04008A1
:1017700040003061FFF794FA009005E0FFF790FA1F
:101780000099401A022849D830698007F6D4287891
:10179000400765D500200290A06BC00006D4A06B66
:1017A000012109070843A063012002905348016802
:1017B000C90511D40168821511430160FFF770FA61
:1017C000009005E0FFF76CFA0099401A642825D8CC
:1017D0004A480068C005F5D5FF20AA68013082425A
:1017E00003D131690143316111E001218902002AED
:1017F00007D005231B029A4203D132690A433261A2
:10180000EFE7326982433261306988433061A8680A
:1018100000280FD0FFF744FA009007E05EE0FFF7E2
:101820003FFA0099411A3648814257D830698005FD
:10183000F5D50DE0FFF734FA009006E0FFF730FA37
:101840000099411A2E48814248D830698005F5D464
:101850000298002804D0A06B012109078843A063E7
:10186000686A002865D00C2F4CD001263606022865
:10187000206805D0B0432060FFF712FA05462FE03C
:10188000B0432060FFF70CFA074604E0FFF708FAC0
:10189000C01B022822D820688001F7D4E96AA86A10
:1018A000E2680843296BFD231B049A431143084354
:1018B000E060206830432060FFF7F2F9054604E05D
:1018C000FFF7EEF9401B022808D820688001F7D501
:1018D0002FE0FFF7E5F9401B022801D90320FEBDE8
:1018E00020688001F5D424E000100240EC2B0008B1
:1018F0003C000020340000204010024000700040F6
:10190000881300000128EAD0E06801210904AA6ACE
:10191000014091420BD10F218904EA6A01409142B2
:1019200005D1032189050840296B884201D0012097
:10193000FEBD0020FEBD0000094910B5401E8842D2
:1019400001D9012010BD074C60610321081F00F080
:10195000EFFC0020A06107202061002010BD0000E6
:10196000FFFFFF0000E000E0FEE701688A69D24364
:10197000920701D400228A6200688169C943C907BD
:1019800003D081690122114381617047F7B5044694
:1019900000680F468169C943C90636D44168890188
:1019A00004D4416801229203114341600026254678
:1019B000403520688069C043800612D5781CF8D075
:1019C000FFF76EF90299401AB84201D8002FF0D102
:1019D000616C2020014361646870AE702E7001203C
:1019E000FEBD21681020C86120682027C7612046FD
:1019F000FFF7BBFF20684168054A11404160606CF9
:101A00000421084360646F70E7E70020FEBD00001A
:101A100000E800FEF8B50446164615481D46DAB241
:101A20000090079F0023204600F054F83A462046D5
:101A3000069900F0B0F8002818D12846F5B2012820
:101A400009D02168300A88623A462046069900F09B
:101A5000A2F800280AD12068856200970022402160
:101A60002046069B00F04AF8002800D00120F8BD6F
:101A700000200080F8B50446164615481D46DAB227
:101A8000C3020090079F204600F024F83A46204603
:101A9000069900F080F8002818D12846F5B20128F0
:101AA00009D02168300A88623A462046069900F03B
:101AB00072F800280AD120688562009700228021F0
:101AC0002046069B00F01AF8002800D00120F8BD3F
:101AD00000200080F0B50668059C7568064F600D13
:101AE000384385438805800D11040843184320437B
:101AF00005437560F0BD0000FF63FF03F8B51D46A8
:101B000017460E46044609E0681C07D0FFF7C8F8E0
:101B10000699401AA8420BD8002D09D02068816987
:101B2000304688430FD00020B842EDD00020F8BDE9
:101B3000616C202001436164403460700020A0701B
:101B400020700120F8BD0120EEE770B516460D4665
:101B500004460FE0324629462046FFF717FF0028CB
:101B600001D0012070BDFFF79BF8801BA84208D868
:101B7000002D06D020688069C0438006EAD400208A
:101B800070BD616C202001436164403460700020AE
:101B9000A0702070E5E770B516460D46044611E0CA
:101BA000324629462046FFF7F1FE002801D00120E9
:101BB00070BD681C06D0FFF773F8801BA84208D8D8
:101BC000002D06D020688069C0438007E8D400203B
:101BD00070BD616C2020014361644034607000205E
:101BE000A0702070E3E70000F0B587B014216846CC
:101BF000FEF7B0FB2E48C16A04252943C162C16AC1
:101C000029400591C16A01221143C162C16A114094
:101C10000591C16A02263143C162C06A0022304088
:101C20000590052040210007FFF733F803208003CB
:101C30000327002400906946019702941D48FEF78F
:101C400053FF052001946946000700970294FEF7B0
:101C50004BFF312000040190052069460095029455
:101C60000007FEF741FFB820009005206946019764
:101C700002940007FEF738FF4020009001200190F9
:101C800005200294694603940007FEF72DFF69467C
:101C90000948019700960294FEF726FF002211469C
:101CA0000620FFF779FA0620FFF76AFA07B0F0BDC1
:101CB00000100240000800500004005010B5134806
:101CC000114901601421416000218160016141617D
:101CD00081610122C161C2600162FFF731F8002811
:101CE00001D0FEF7B3FE00210848FEF7DFFF002811
:101CF00001D0FEF7ABFE00210448FEF7FCFF0028F0
:101D000001D0FEF7A3FE10BD005400404C0000209F
:101D1000FEE77047F8B5FE48017800297ED101241E
:101D200005462C706878A87000F0A1FA68787E21CA
:101D30003C2618270025030000F0ECFA0C070A2FB8
:101D40005256A7B8E6FDFC09FB0900F090FAA0E1A5
:101D500000262046B040C043C1B2032000F0AEFAD6
:101D60001920FEF775FE761CF6B2082EF1D3FF217E
:101D7000032000F0A3FA00262046B040C043C1B2C1
:101D8000022000F09BFA1920FEF762FE761CF6B2E4
:101D9000082EF1D3FF2102201FE007262046B04085
:101DA000C043C1B2022000F089FA1920FEF750FEAC
:101DB000761EF3D5FF21022000F080FA0726204688
:101DC000B040C043C1B2032000F078FA1920FEF7FA
:101DD0003FFE761EF3D5FF21032000F06FFA58E195
:101DE00000F04FFAFA208CE000262046B040C743AE
:101DF000F9B2022000F062FAF9B2032000F05EFAB4
:101E00004B20FEF725FE761CF6B2082EEDD300F02F
:101E10002EFA00262046B040C74300E040E1F9B268
:101E2000022000F04BFAF9B2032000F047FA4B20F1
:101E3000FEF70EFE761CF6B2082EEBD300F017FA72
:101E400007262046B040C743F9B2022000F036FA18
:101E5000F9B2032000F032FA1920FEF7F9FD761EE0
:101E6000EFD500F004FA07262046B040C743F9B288
:101E7000022000F023FAF9B2032000F01FFA192023
:101E8000FEF7E6FD761EEFD55FE7FF260024F53668
:101E900000F0F7F93046FEF7DBFD00F0E8F93046D8
:101EA000FEF7D6FD641C032CF2DBF2E00C460220A8
:101EB00000F004FA2146032000F000FAFA20FEF7B1
:101EC000C7FD3146022000F0F9F93146032000F049
:101ED000F5F9FA20FEF7BCFD3946022000F0EEF9D4
:101EE0003946032000F0EAF9FA20FEF7B1FD294651
:101EF000022000F0E3F92946032000F0DFF9FF207B
:101F0000F530FEF7A5FDC4E00C46022000F0D6F93E
:101F10002146032000F0D2F9FA20FEF799FD314660
:101F2000022000F0CBF93146032000F0C7F9FA2077
:101F300002E0B6E07DE047E0FEF78AFD3946022088
:101F400000F0BCF93946032000F0B8F9FA20FEF79A
:101F50007FFD2946022000F0B1F92946032000F058
:101F6000ADF96C4C2046FEF773FD81263146022008
:101F700000F0A4F93146032000F0A0F9FA20FEF7A2
:101F800067FDC3263146022000F098F93146032050
:101F900000F094F9FA20FEF75BFDE72631460220B7
:101FA00000F08CF93146032000F088F9FA20FEF7A2
:101FB0004FFDFF263146022000F080F93146032014
:101FC00000F07CF920469CE7F0260F2700243146DC
:101FD000022000F073F93946032000F06FF9FA206F
:101FE000FEF736FD3946022000F068F9314603203D
:101FF00000F064F9FA20FEF72BFDFF2100260220F5
:1020000000F05CF93146032000F058F9FA20FEF7A1
:102010001FFDFF273146022000F050F9394603200A
:1020200000F04CF9FA20FEF713FD641C032CCEDB04
:102030002FE0002707262046B040721E214691401F
:102040000843C043C1B2022000F038F93220FEF745
:10205000FFFCB61E012EEEDAFF21022000F02EF961
:1020600007262046B040711E22468A401043C043D6
:10207000C1B2032000F022F93220FEF7E9FCB61EBF
:10208000012EEEDAFF21032000F018F97F1C052F46
:10209000D0DB002000F04EF81D48057000F0E7F896
:1020A000F8BD00262046B040C043C1B2022000F077
:1020B00005F9F01F00D5404221468140C843C1B216
:1020C000032000F0FBF89620FEF7C2FC761C082ED9
:1020D000E8DB07262046B040C043C1B2022000F032
:1020E000EDF8F01F00D5404221468140C843C1B2FF
:1020F000032000F0E3F89620FEF7AAFC761EE9D54F
:1021000000F0B5F89620FEF7A3FC00F0BAF803E063
:1021100000000020EE0200007D20C000F1E67047C4
:10212000034800210170417081700921C17070471E
:102130000000002002494A788A7048707047000009
:102140000000002010B5FEF7D1FF10BD10B598B00B
:1021500034216846FEF7FEF814210DA8FEF7FAF8C0
:10216000182112A8FEF7F6F8184801680322D202D7
:102170009143C2148918016010200090012006903C
:10218000002480030890079409946846FFF7BAF981
:10219000002801D072B6FEE70F200D900E940F9428
:1021A0001094002111940DA8FFF7A2F8002801D087
:1021B00072B6FEE708201290169412A8FEF7F0FF00
:1021C000002801D072B6FEE718B010BD00700040C4
:1021D00070B5204DE8680C211F4C084018D0042829
:1021E0001FD0082824D0E868E96880021B4A000F45
:1021F000105C0902EA68890F01231B04491C1A427A
:1022000004D12A68D20615D5154A14E0154A12E001
:10221000686801210004400FC903401C814021600F
:102220000DE02868C00601D50D4807E00E4805E01E
:102230000C4803E00C4A5043FEF78EF82060E86833
:1022400006490006000F1039085C2168C140216072
:1022500070BD0000001002403C000020FC2B000874
:1022600000093D0000127A000024F400704710B508
:10227000FF21022000F022F8FF21032000F01EF8C9
:1022800010BD10B50021022000F018F80021032035
:1022900000F014F810BD10B500F003F800F007F8D6
:1022A00010BD10B50021062000F008F810BD10B5D3
:1022B0000021072000F002F810BD000003B583B034
:1022C0000023DB430122029304A9019213460091EB
:1022D000024640210248FEF737FE05B000BD00006F
:1022E0004C000020F8B5040C8BB2264682B25E4347
:1022F0000D0C1046370C58433604801900217941E3
:1023000016466E43370C36048019794126466E43D3
:102310008919F8BD30B47446641E2578641CAB423C
:1023200000D21D46635D5B00E31830BC1847000017
:102330008307FF22DB0E9A408907090E9940002887
:1023400008DB830809489B001B1818689043084362
:10235000186070470007000F0838830804489B0086
:102360001B18D86990430843D861704700E400E027
:1023700000ED00E01CB50C4606236A46282100F05B
:1023800028F96946497821800A0269460978511876
:1023900021806946C97861800A02694689785118A6
:1023A000618069464979A1800A0269460979511814
:1023B000A1801CBD38B50C46054601236A461F2185
:1023C00000F007F900281CD1002C05D00121284677
:1023D00000F018F8002814D169460878A1074006D3
:1023E000C90F400EC9010843BF210840E107490E4B
:1023F00008436946087001236A461F21284600F0F9
:1024000045F938BD38B50C46054601236A462321F7
:1024100000F0DFF800280DD169460878E101400698
:10242000400E08436946087001236A462321284666
:1024300000F02CF938BD38B50C46054601236A4634
:10244000202100F0C6F800280DD169460878210146
:102450000007000F08436946087001236A462021DF
:10246000284600F013F938BD10B50A4601230F21A4
:1024700000F0AFF810BD38B50C46054601236A469A
:102480003D2100F0A6F8002807D16846047001231A
:102490006A463D21284600F0F9F838BD10B5FEF730
:1024A0005FF90321C943FEF767F910BD38B50C4643
:1024B000054601236A46232100F08BF800280ED13F
:1024C00069460878CF210840A107890E084369466C
:1024D000087001236A462321284600F0D7F838BD4A
:1024E00038B50C46054601236A46332100F071F8E1
:1024F00000280ED1694608786106C009C001490E5E
:1025000008436946087001236A463321284600F0D3
:10251000BDF838BD7CB50C46054601236A4620212E
:1025200000F057F8002832D1012301AA23212846C0
:1025300000F04FF800282AD1F7200822002C04D000
:10254000012C0AD0022C0DD013E069460B78034011
:102550000B700879104308710BE069460A78024055
:102560000A7003E069460B7813430B700A79024046
:102570000A7101236A462021284600F087F80028C6
:1025800005D1012301AA2321284600F07FF87CBD54
:1025900010B50A460123222100F01BF810BD10B52A
:1025A0000A460123222100F071F810BD38B50C460F
:1025B000054601236A463C2100F00BF8002807D1AC
:1025C0006846047001236A463C21284600F05EF804
:1025D00038BD30B4044664688068A44630BC6047A7
:1025E00038B50C46054601236A463B21FFF7F1FF4B
:1025F00000280ED1694608786106C009C001490E5D
:1026000008436946087001236A463B21284600F0CA
:102610003DF838BD10B50A4601233821FFF7D9FF30
:1026200010BD10B50A460123382100F02FF810BD67
:1026300010B50A4601233921FFF7CBFF10BD38B58D
:102640000C46054601236A463A21FFF7C2FF0028DF
:102650000ED1694608786106C009C001490E0843D9
:102660006946087001236A463A21284600F00EF8B0
:1026700038BD38B50C4601236A460721FFF7A9FF8C
:10268000694609784907C90F217038BD30B404463E
:1026900024688068A44630BC604738B50C460123E6
:1026A0006A462721FFF795FF694609780907C90F90
:1026B000217038BD8E4C88B002252571FEF71EFDB5
:1026C000FFF744FDFFF790FAFFF7F8FA2571FFF7DF
:1026D0007FFDFFF7E0FDFFF7CAFDFFF721FD0B20AF
:1026E000FFF728FDFFF716FB042020716078002516
:1026F000002800D065707F4802907F4803907F4893
:102700007B490490491D02A8FFF7AEFE607933288B
:1027100000D0FEE7012102A8FFF774FE012102A804
:10272000FFF789FE002102A8FFF7C0FE032102A8DF
:10273000FFF740FE002102A8FFF7ECFE552102A89A
:10274000FFF77DFF202102A8FFF74AFF202102A802
:10275000FFF72CFF252102A8FFF78DFE694602A88E
:10276000FFF716FF6946087880210843694608701C
:1027700002A8FFF714FF002102A8FFF7B1FE01A98C
:1027800002A8FFF747FF69460879F5210840202194
:1027900008436946087101A902A8FFF742FF072113
:1027A00002A8FFF748FE6078002800D0657005A9F0
:1027B00002A8FFF772FF6846007D00281BD04C4836
:1027C00006212430FDF7C4FD494902A82431FFF752
:1027D000D1FD474F00202437385EFFF75FFE484E9B
:1027E00030600220385EFFF759FE70600420385ECA
:1027F000FFF754FEB06005A902A8FFF73AFFA678DC
:10280000322E43D33046FDF7B3FF014607902069CF
:10281000FDF7BAFE2061074607996069FDF7B4FE2F
:10282000606106460799A069FDF7AEFE0146A0610A
:1028300000F0F0F831460790084600F0EBF8064645
:102840003946084600F0E6F8314600F09DF8079951
:1028500000F09AF8FDF76EFE00F072F8FDF72CFE1E
:102860002062E16900F02EF90DD20120E070206AAB
:10287000FDF73AFFFDF732FDFDF776FC0B21FDF782
:1028800075FDE16000E0E570A57011E01C4F206966
:10289000396800F079F820617968606900F074F8AF
:1028A0006061B968A06900F06FF8761CA061A6703D
:1028B00006A902A8FFF7BCFE6846007E800600D489
:1028C00071E70F480F4980688842F9DD206AFDF7FB
:1028D0000BFFFDF703FDFDF747FC0B21FDF746FD60
:1028E000C8B2E160FFF726FCFFF714FA5BE70000CF
:1028F0000400002025290008092900084C000020B8
:1029000040000020000061443EB5802421437D2426
:10291000E4006D461CC50A4601233121FEF76AFA20
:1029200000203EBD3EB5802421437D24E4006D4659
:102930001CC50A4601233121FEF706FB00203EBDDF
:10294000F8B506460C46FDF745FF051E0F4600D0BC
:102950000120014349000B484908411AC90F0DD015
:10296000002E01D0012100E000210C436100490844
:10297000401AC00F02D10120FDF725FF2846394635
:10298000F8BD00000000F07F70B501250400ED07E0
:102990004C4020D4441A01D2001B0919C60D4B002B
:1029A000F2B2FF2A29D01B0E2CD000020C02D31A3F
:1029B0002C43DC402843051910D2280A02D3401CBE
:1029C0006D0611D0761EF6058019FF2A00DA70BD5B
:1029D000C00DC00570BD694000F0A6F80120054398
:1029E000C541521C761CE8E764089C40C90161405F
:1029F0008900E7D10124A043E4E71B0E440200D084
:102A0000034870BD002AFCD1C00FC00770BD00BFD5
:102A10000000C07F70B5420064414B005C41120E63
:102A200039D01B0E38D0FF2A3CD0FF2B3AD04002C1
:102A30004902400A490A060045184E43000A090A9D
:102A4000D2184843ED017F3A0104731A4019190C5A
:102A50004318990F04D001215B0849075B1A521CE7
:102A6000D80904D3401CF50301D19D0607D0FF2AE5
:102A700008D2D50506D0E4072043401970BD0125D2
:102A8000A843F4E7002A01DCE00770BD2402FF2020
:102A90002043C00570BD1B0EFF2A03D0FF2B01D0C1
:102AA000E00770BDFF2645003606B54206D84D004A
:102AB000B54203D8D218FF2A00D0E7E7004870BD1E
:102AC0000000C07F01230A00DB0502430DD4DA4277
:102AD00003D49A4207D481427047D94214D4D842D1
:102AE00012D48142704789427047DA4203D59A4234
:102AF000F9D5884270475B004A00DA4204D24200AE
:102B0000DA4201D2884270474840414010B5024A3B
:102B10004840FDF7DFFE10BD0900160470B5012521
:102B20000400ED074C4022D4441A02D26C40001B32
:102B30000919C60D4B00F2B2FF2A4BD01B0E50D024
:102B400000020C02D31A2C43DC40A843051B05D518
:102B5000AD0019D36D08761E521E37D0F605280A2F
:102B600001D2801970BD70416D0603D070BD6940FF
:102B7000FFF710FF9C4009026140490001D0401E50
:102B800070BD0124A04370BD6D081DD001202B0C29
:102B900001D12D0410302B0E01D12D0208302B0F46
:102BA00001D12D01001DAB0F01D1AD00801CEB0F39
:102BB00001D16D00401C6D00361A121A680AF50525
:102BC0004019012A02DB70BD002070BDC036300AFA
:102BD000C00770BD1B0E440201D1FF2B00D102487B
:102BE00070BD002AF0D070BD0000C07F0000000062
:102BF0000000000001020304060708090304060898
:102C00000C101820308182838485868788898B8C7C
:102C10008D8E8F919293959697999A9C9D9FA0A245
:102C2000A3A5A7A8AAACAEB0B2B3B5B7B9BCBEC095
:102C3000C2C5C7C9CCCED1D4D7D9DCDFE2E6E9EC36
:102C4000F0F3F7FAFE000000682C000800000020F6
:102C50004000000004010008A82C000840000020EB
:102C6000A007000020010008000000000000000094
:102C70000000000000000000000000000000000054
:102C800000000000000000000080BB4400000000C5
:102C9000000000000000000001000000040000002F
:082CA00000000000000020000C
:04000005080000C12E
:00000001FF
